{
	"contracts/structs.sol": {
		"UserManager": {
			"abi": [
				{
					"inputs": [
						{
							"internalType": "address",
							"name": "_userAddress",
							"type": "address"
						}
					],
					"name": "getUser",
					"outputs": [
						{
							"components": [
								{
									"internalType": "string",
									"name": "name",
									"type": "string"
								},
								{
									"internalType": "uint256",
									"name": "age",
									"type": "uint256"
								},
								{
									"internalType": "bool",
									"name": "isActive",
									"type": "bool"
								}
							],
							"internalType": "struct UserManager.User",
							"name": "",
							"type": "tuple"
						}
					],
					"stateMutability": "view",
					"type": "function"
				},
				{
					"inputs": [
						{
							"internalType": "string",
							"name": "_name",
							"type": "string"
						},
						{
							"internalType": "uint256",
							"name": "_age",
							"type": "uint256"
						}
					],
					"name": "register",
					"outputs": [],
					"stateMutability": "nonpayable",
					"type": "function"
				},
				{
					"inputs": [
						{
							"internalType": "address",
							"name": "",
							"type": "address"
						}
					],
					"name": "users",
					"outputs": [
						{
							"internalType": "string",
							"name": "name",
							"type": "string"
						},
						{
							"internalType": "uint256",
							"name": "age",
							"type": "uint256"
						},
						{
							"internalType": "bool",
							"name": "isActive",
							"type": "bool"
						}
					],
					"stateMutability": "view",
					"type": "function"
				}
			],
			"devdoc": {
				"kind": "dev",
				"methods": {},
				"version": 1
			},
			"evm": {
				"assembly": "    /* \"contracts/structs.sol\":60:593  contract UserManager {... */\n  mstore(0x40, 0x80)\n  callvalue\n  dup1\n  iszero\n  tag_1\n  jumpi\n  0x00\n  dup1\n  revert\ntag_1:\n  pop\n  dataSize(sub_0)\n  dup1\n  dataOffset(sub_0)\n  0x00\n  codecopy\n  0x00\n  return\nstop\n\nsub_0: assembly {\n        /* \"contracts/structs.sol\":60:593  contract UserManager {... */\n      mstore(0x40, 0x80)\n      callvalue\n      dup1\n      iszero\n      tag_1\n      jumpi\n      0x00\n      dup1\n      revert\n    tag_1:\n      pop\n      jumpi(tag_2, lt(calldatasize, 0x04))\n      shr(0xe0, calldataload(0x00))\n      dup1\n      0x6f77926b\n      eq\n      tag_3\n      jumpi\n      dup1\n      0xa87430ba\n      eq\n      tag_4\n      jumpi\n      dup1\n      0xea87152b\n      eq\n      tag_5\n      jumpi\n    tag_2:\n      0x00\n      dup1\n      revert\n        /* \"contracts/structs.sol\":472:590  function getUser(address _userAddress) public view returns (User memory) {... */\n    tag_3:\n      tag_6\n      0x04\n      dup1\n      calldatasize\n      sub\n      dup2\n      add\n      swap1\n      tag_7\n      swap2\n      swap1\n      tag_8\n      jump\t// in\n    tag_7:\n      tag_9\n      jump\t// in\n    tag_6:\n      mload(0x40)\n      tag_10\n      swap2\n      swap1\n      tag_11\n      jump\t// in\n    tag_10:\n      mload(0x40)\n      dup1\n      swap2\n      sub\n      swap1\n      return\n        /* \"contracts/structs.sol\":249:286  mapping(address => User) public users */\n    tag_4:\n      tag_12\n      0x04\n      dup1\n      calldatasize\n      sub\n      dup2\n      add\n      swap1\n      tag_13\n      swap2\n      swap1\n      tag_8\n      jump\t// in\n    tag_13:\n      tag_14\n      jump\t// in\n    tag_12:\n      mload(0x40)\n      tag_15\n      swap4\n      swap3\n      swap2\n      swap1\n      tag_16\n      jump\t// in\n    tag_15:\n      mload(0x40)\n      dup1\n      swap2\n      sub\n      swap1\n      return\n        /* \"contracts/structs.sol\":323:442  function register(string memory _name, uint _age) public {... */\n    tag_5:\n      tag_17\n      0x04\n      dup1\n      calldatasize\n      sub\n      dup2\n      add\n      swap1\n      tag_18\n      swap2\n      swap1\n      tag_19\n      jump\t// in\n    tag_18:\n      tag_20\n      jump\t// in\n    tag_17:\n      stop\n        /* \"contracts/structs.sol\":472:590  function getUser(address _userAddress) public view returns (User memory) {... */\n    tag_9:\n        /* \"contracts/structs.sol\":532:543  User memory */\n      tag_21\n      tag_22\n      jump\t// in\n    tag_21:\n        /* \"contracts/structs.sol\":563:568  users */\n      0x00\n        /* \"contracts/structs.sol\":563:582  users[_userAddress] */\n      dup1\n        /* \"contracts/structs.sol\":569:581  _userAddress */\n      dup4\n        /* \"contracts/structs.sol\":563:582  users[_userAddress] */\n      0xffffffffffffffffffffffffffffffffffffffff\n      and\n      0xffffffffffffffffffffffffffffffffffffffff\n      and\n      dup2\n      mstore\n      0x20\n      add\n      swap1\n      dup2\n      mstore\n      0x20\n      add\n      0x00\n      keccak256\n        /* \"contracts/structs.sol\":556:582  return users[_userAddress] */\n      mload(0x40)\n      dup1\n      0x60\n      add\n      0x40\n      mstore\n      swap1\n      dup2\n      0x00\n      dup3\n      add\n      dup1\n      sload\n      tag_24\n      swap1\n      tag_25\n      jump\t// in\n    tag_24:\n      dup1\n      0x1f\n      add\n      0x20\n      dup1\n      swap2\n      div\n      mul\n      0x20\n      add\n      mload(0x40)\n      swap1\n      dup2\n      add\n      0x40\n      mstore\n      dup1\n      swap3\n      swap2\n      swap1\n      dup2\n      dup2\n      mstore\n      0x20\n      add\n      dup3\n      dup1\n      sload\n      tag_26\n      swap1\n      tag_25\n      jump\t// in\n    tag_26:\n      dup1\n      iszero\n      tag_27\n      jumpi\n      dup1\n      0x1f\n      lt\n      tag_28\n      jumpi\n      0x0100\n      dup1\n      dup4\n      sload\n      div\n      mul\n      dup4\n      mstore\n      swap2\n      0x20\n      add\n      swap2\n      jump(tag_27)\n    tag_28:\n      dup3\n      add\n      swap2\n      swap1\n      0x00\n      mstore\n      keccak256(0x00, 0x20)\n      swap1\n    tag_29:\n      dup2\n      sload\n      dup2\n      mstore\n      swap1\n      0x01\n      add\n      swap1\n      0x20\n      add\n      dup1\n      dup4\n      gt\n      tag_29\n      jumpi\n      dup3\n      swap1\n      sub\n      0x1f\n      and\n      dup3\n      add\n      swap2\n    tag_27:\n      pop\n      pop\n      pop\n      pop\n      pop\n      dup2\n      mstore\n      0x20\n      add\n      0x01\n      dup3\n      add\n      sload\n      dup2\n      mstore\n      0x20\n      add\n      0x02\n      dup3\n      add\n      0x00\n      swap1\n      sload\n      swap1\n      0x0100\n      exp\n      swap1\n      div\n      0xff\n      and\n      iszero\n      iszero\n      iszero\n      iszero\n      dup2\n      mstore\n      pop\n      pop\n      swap1\n      pop\n        /* \"contracts/structs.sol\":472:590  function getUser(address _userAddress) public view returns (User memory) {... */\n      swap2\n      swap1\n      pop\n      jump\t// out\n        /* \"contracts/structs.sol\":249:286  mapping(address => User) public users */\n    tag_14:\n      mstore(0x20, 0x00)\n      dup1\n      0x00\n      mstore\n      keccak256(0x00, 0x40)\n      0x00\n      swap2\n      pop\n      swap1\n      pop\n      dup1\n      0x00\n      add\n      dup1\n      sload\n      tag_30\n      swap1\n      tag_25\n      jump\t// in\n    tag_30:\n      dup1\n      0x1f\n      add\n      0x20\n      dup1\n      swap2\n      div\n      mul\n      0x20\n      add\n      mload(0x40)\n      swap1\n      dup2\n      add\n      0x40\n      mstore\n      dup1\n      swap3\n      swap2\n      swap1\n      dup2\n      dup2\n      mstore\n      0x20\n      add\n      dup3\n      dup1\n      sload\n      tag_31\n      swap1\n      tag_25\n      jump\t// in\n    tag_31:\n      dup1\n      iszero\n      tag_32\n      jumpi\n      dup1\n      0x1f\n      lt\n      tag_33\n      jumpi\n      0x0100\n      dup1\n      dup4\n      sload\n      div\n      mul\n      dup4\n      mstore\n      swap2\n      0x20\n      add\n      swap2\n      jump(tag_32)\n    tag_33:\n      dup3\n      add\n      swap2\n      swap1\n      0x00\n      mstore\n      keccak256(0x00, 0x20)\n      swap1\n    tag_34:\n      dup2\n      sload\n      dup2\n      mstore\n      swap1\n      0x01\n      add\n      swap1\n      0x20\n      add\n      dup1\n      dup4\n      gt\n      tag_34\n      jumpi\n      dup3\n      swap1\n      sub\n      0x1f\n      and\n      dup3\n      add\n      swap2\n    tag_32:\n      pop\n      pop\n      pop\n      pop\n      pop\n      swap1\n      dup1\n      0x01\n      add\n      sload\n      swap1\n      dup1\n      0x02\n      add\n      0x00\n      swap1\n      sload\n      swap1\n      0x0100\n      exp\n      swap1\n      div\n      0xff\n      and\n      swap1\n      pop\n      dup4\n      jump\t// out\n        /* \"contracts/structs.sol\":323:442  function register(string memory _name, uint _age) public {... */\n    tag_20:\n        /* \"contracts/structs.sol\":411:434  User(_name, _age, true) */\n      mload(0x40)\n      dup1\n      0x60\n      add\n      0x40\n      mstore\n      dup1\n        /* \"contracts/structs.sol\":416:421  _name */\n      dup4\n        /* \"contracts/structs.sol\":411:434  User(_name, _age, true) */\n      dup2\n      mstore\n      0x20\n      add\n        /* \"contracts/structs.sol\":423:427  _age */\n      dup3\n        /* \"contracts/structs.sol\":411:434  User(_name, _age, true) */\n      dup2\n      mstore\n      0x20\n      add\n        /* \"contracts/structs.sol\":429:433  true */\n      0x01\n        /* \"contracts/structs.sol\":411:434  User(_name, _age, true) */\n      iszero\n      iszero\n      dup2\n      mstore\n      pop\n        /* \"contracts/structs.sol\":391:396  users */\n      0x00\n        /* \"contracts/structs.sol\":391:408  users[msg.sender] */\n      dup1\n        /* \"contracts/structs.sol\":397:407  msg.sender */\n      caller\n        /* \"contracts/structs.sol\":391:408  users[msg.sender] */\n      0xffffffffffffffffffffffffffffffffffffffff\n      and\n      0xffffffffffffffffffffffffffffffffffffffff\n      and\n      dup2\n      mstore\n      0x20\n      add\n      swap1\n      dup2\n      mstore\n      0x20\n      add\n      0x00\n      keccak256\n        /* \"contracts/structs.sol\":391:434  users[msg.sender] = User(_name, _age, true) */\n      0x00\n      dup3\n      add\n      mload\n      dup2\n      0x00\n      add\n      swap1\n      dup2\n      tag_36\n      swap2\n      swap1\n      tag_37\n      jump\t// in\n    tag_36:\n      pop\n      0x20\n      dup3\n      add\n      mload\n      dup2\n      0x01\n      add\n      sstore\n      0x40\n      dup3\n      add\n      mload\n      dup2\n      0x02\n      add\n      exp(0x0100, 0x00)\n      dup2\n      sload\n      dup2\n      0xff\n      mul\n      not\n      and\n      swap1\n      dup4\n      iszero\n      iszero\n      mul\n      or\n      swap1\n      sstore\n      pop\n      swap1\n      pop\n      pop\n        /* \"contracts/structs.sol\":323:442  function register(string memory _name, uint _age) public {... */\n      pop\n      pop\n      jump\t// out\n    tag_22:\n      mload(0x40)\n      dup1\n      0x60\n      add\n      0x40\n      mstore\n      dup1\n      0x60\n      dup2\n      mstore\n      0x20\n      add\n      0x00\n      dup2\n      mstore\n      0x20\n      add\n      iszero(iszero(0x00))\n      dup2\n      mstore\n      pop\n      swap1\n      jump\t// out\n        /* \"#utility.yul\":7:82   */\n    tag_38:\n        /* \"#utility.yul\":40:46   */\n      0x00\n        /* \"#utility.yul\":73:75   */\n      0x40\n        /* \"#utility.yul\":67:76   */\n      mload\n        /* \"#utility.yul\":57:76   */\n      swap1\n      pop\n        /* \"#utility.yul\":7:82   */\n      swap1\n      jump\t// out\n        /* \"#utility.yul\":88:205   */\n    tag_39:\n        /* \"#utility.yul\":197:198   */\n      0x00\n        /* \"#utility.yul\":194:195   */\n      dup1\n        /* \"#utility.yul\":187:199   */\n      revert\n        /* \"#utility.yul\":211:328   */\n    tag_40:\n        /* \"#utility.yul\":320:321   */\n      0x00\n        /* \"#utility.yul\":317:318   */\n      dup1\n        /* \"#utility.yul\":310:322   */\n      revert\n        /* \"#utility.yul\":334:460   */\n    tag_41:\n        /* \"#utility.yul\":371:378   */\n      0x00\n        /* \"#utility.yul\":411:453   */\n      0xffffffffffffffffffffffffffffffffffffffff\n        /* \"#utility.yul\":404:409   */\n      dup3\n        /* \"#utility.yul\":400:454   */\n      and\n        /* \"#utility.yul\":389:454   */\n      swap1\n      pop\n        /* \"#utility.yul\":334:460   */\n      swap2\n      swap1\n      pop\n      jump\t// out\n        /* \"#utility.yul\":466:562   */\n    tag_42:\n        /* \"#utility.yul\":503:510   */\n      0x00\n        /* \"#utility.yul\":532:556   */\n      tag_92\n        /* \"#utility.yul\":550:555   */\n      dup3\n        /* \"#utility.yul\":532:556   */\n      tag_41\n      jump\t// in\n    tag_92:\n        /* \"#utility.yul\":521:556   */\n      swap1\n      pop\n        /* \"#utility.yul\":466:562   */\n      swap2\n      swap1\n      pop\n      jump\t// out\n        /* \"#utility.yul\":568:690   */\n    tag_43:\n        /* \"#utility.yul\":641:665   */\n      tag_94\n        /* \"#utility.yul\":659:664   */\n      dup2\n        /* \"#utility.yul\":641:665   */\n      tag_42\n      jump\t// in\n    tag_94:\n        /* \"#utility.yul\":634:639   */\n      dup2\n        /* \"#utility.yul\":631:666   */\n      eq\n        /* \"#utility.yul\":621:684   */\n      tag_95\n      jumpi\n        /* \"#utility.yul\":680:681   */\n      0x00\n        /* \"#utility.yul\":677:678   */\n      dup1\n        /* \"#utility.yul\":670:682   */\n      revert\n        /* \"#utility.yul\":621:684   */\n    tag_95:\n        /* \"#utility.yul\":568:690   */\n      pop\n      jump\t// out\n        /* \"#utility.yul\":696:835   */\n    tag_44:\n        /* \"#utility.yul\":742:747   */\n      0x00\n        /* \"#utility.yul\":780:786   */\n      dup2\n        /* \"#utility.yul\":767:787   */\n      calldataload\n        /* \"#utility.yul\":758:787   */\n      swap1\n      pop\n        /* \"#utility.yul\":796:829   */\n      tag_97\n        /* \"#utility.yul\":823:828   */\n      dup2\n        /* \"#utility.yul\":796:829   */\n      tag_43\n      jump\t// in\n    tag_97:\n        /* \"#utility.yul\":696:835   */\n      swap3\n      swap2\n      pop\n      pop\n      jump\t// out\n        /* \"#utility.yul\":841:1170   */\n    tag_8:\n        /* \"#utility.yul\":900:906   */\n      0x00\n        /* \"#utility.yul\":949:951   */\n      0x20\n        /* \"#utility.yul\":937:946   */\n      dup3\n        /* \"#utility.yul\":928:935   */\n      dup5\n        /* \"#utility.yul\":924:947   */\n      sub\n        /* \"#utility.yul\":920:952   */\n      slt\n        /* \"#utility.yul\":917:1036   */\n      iszero\n      tag_99\n      jumpi\n        /* \"#utility.yul\":955:1034   */\n      tag_100\n      tag_39\n      jump\t// in\n    tag_100:\n        /* \"#utility.yul\":917:1036   */\n    tag_99:\n        /* \"#utility.yul\":1075:1076   */\n      0x00\n        /* \"#utility.yul\":1100:1153   */\n      tag_101\n        /* \"#utility.yul\":1145:1152   */\n      dup5\n        /* \"#utility.yul\":1136:1142   */\n      dup3\n        /* \"#utility.yul\":1125:1134   */\n      dup6\n        /* \"#utility.yul\":1121:1143   */\n      add\n        /* \"#utility.yul\":1100:1153   */\n      tag_44\n      jump\t// in\n    tag_101:\n        /* \"#utility.yul\":1090:1153   */\n      swap2\n      pop\n        /* \"#utility.yul\":1046:1163   */\n      pop\n        /* \"#utility.yul\":841:1170   */\n      swap3\n      swap2\n      pop\n      pop\n      jump\t// out\n        /* \"#utility.yul\":1176:1275   */\n    tag_45:\n        /* \"#utility.yul\":1228:1234   */\n      0x00\n        /* \"#utility.yul\":1262:1267   */\n      dup2\n        /* \"#utility.yul\":1256:1268   */\n      mload\n        /* \"#utility.yul\":1246:1268   */\n      swap1\n      pop\n        /* \"#utility.yul\":1176:1275   */\n      swap2\n      swap1\n      pop\n      jump\t// out\n        /* \"#utility.yul\":1281:1440   */\n    tag_46:\n        /* \"#utility.yul\":1355:1366   */\n      0x00\n        /* \"#utility.yul\":1389:1395   */\n      dup3\n        /* \"#utility.yul\":1384:1387   */\n      dup3\n        /* \"#utility.yul\":1377:1396   */\n      mstore\n        /* \"#utility.yul\":1429:1433   */\n      0x20\n        /* \"#utility.yul\":1424:1427   */\n      dup3\n        /* \"#utility.yul\":1420:1434   */\n      add\n        /* \"#utility.yul\":1405:1434   */\n      swap1\n      pop\n        /* \"#utility.yul\":1281:1440   */\n      swap3\n      swap2\n      pop\n      pop\n      jump\t// out\n        /* \"#utility.yul\":1446:1585   */\n    tag_47:\n        /* \"#utility.yul\":1535:1541   */\n      dup3\n        /* \"#utility.yul\":1530:1533   */\n      dup2\n        /* \"#utility.yul\":1525:1528   */\n      dup4\n        /* \"#utility.yul\":1519:1542   */\n      mcopy\n        /* \"#utility.yul\":1576:1577   */\n      0x00\n        /* \"#utility.yul\":1567:1573   */\n      dup4\n        /* \"#utility.yul\":1562:1565   */\n      dup4\n        /* \"#utility.yul\":1558:1574   */\n      add\n        /* \"#utility.yul\":1551:1578   */\n      mstore\n        /* \"#utility.yul\":1446:1585   */\n      pop\n      pop\n      pop\n      jump\t// out\n        /* \"#utility.yul\":1591:1693   */\n    tag_48:\n        /* \"#utility.yul\":1632:1638   */\n      0x00\n        /* \"#utility.yul\":1683:1685   */\n      0x1f\n        /* \"#utility.yul\":1679:1686   */\n      not\n        /* \"#utility.yul\":1674:1676   */\n      0x1f\n        /* \"#utility.yul\":1667:1672   */\n      dup4\n        /* \"#utility.yul\":1663:1677   */\n      add\n        /* \"#utility.yul\":1659:1687   */\n      and\n        /* \"#utility.yul\":1649:1687   */\n      swap1\n      pop\n        /* \"#utility.yul\":1591:1693   */\n      swap2\n      swap1\n      pop\n      jump\t// out\n        /* \"#utility.yul\":1699:2056   */\n    tag_49:\n        /* \"#utility.yul\":1777:1780   */\n      0x00\n        /* \"#utility.yul\":1805:1844   */\n      tag_107\n        /* \"#utility.yul\":1838:1843   */\n      dup3\n        /* \"#utility.yul\":1805:1844   */\n      tag_45\n      jump\t// in\n    tag_107:\n        /* \"#utility.yul\":1860:1921   */\n      tag_108\n        /* \"#utility.yul\":1914:1920   */\n      dup2\n        /* \"#utility.yul\":1909:1912   */\n      dup6\n        /* \"#utility.yul\":1860:1921   */\n      tag_46\n      jump\t// in\n    tag_108:\n        /* \"#utility.yul\":1853:1921   */\n      swap4\n      pop\n        /* \"#utility.yul\":1930:1995   */\n      tag_109\n        /* \"#utility.yul\":1988:1994   */\n      dup2\n        /* \"#utility.yul\":1983:1986   */\n      dup6\n        /* \"#utility.yul\":1976:1980   */\n      0x20\n        /* \"#utility.yul\":1969:1974   */\n      dup7\n        /* \"#utility.yul\":1965:1981   */\n      add\n        /* \"#utility.yul\":1930:1995   */\n      tag_47\n      jump\t// in\n    tag_109:\n        /* \"#utility.yul\":2020:2049   */\n      tag_110\n        /* \"#utility.yul\":2042:2048   */\n      dup2\n        /* \"#utility.yul\":2020:2049   */\n      tag_48\n      jump\t// in\n    tag_110:\n        /* \"#utility.yul\":2015:2018   */\n      dup5\n        /* \"#utility.yul\":2011:2050   */\n      add\n        /* \"#utility.yul\":2004:2050   */\n      swap2\n      pop\n        /* \"#utility.yul\":1781:2056   */\n      pop\n        /* \"#utility.yul\":1699:2056   */\n      swap3\n      swap2\n      pop\n      pop\n      jump\t// out\n        /* \"#utility.yul\":2062:2139   */\n    tag_50:\n        /* \"#utility.yul\":2099:2106   */\n      0x00\n        /* \"#utility.yul\":2128:2133   */\n      dup2\n        /* \"#utility.yul\":2117:2133   */\n      swap1\n      pop\n        /* \"#utility.yul\":2062:2139   */\n      swap2\n      swap1\n      pop\n      jump\t// out\n        /* \"#utility.yul\":2145:2253   */\n    tag_51:\n        /* \"#utility.yul\":2222:2246   */\n      tag_113\n        /* \"#utility.yul\":2240:2245   */\n      dup2\n        /* \"#utility.yul\":2222:2246   */\n      tag_50\n      jump\t// in\n    tag_113:\n        /* \"#utility.yul\":2217:2220   */\n      dup3\n        /* \"#utility.yul\":2210:2247   */\n      mstore\n        /* \"#utility.yul\":2145:2253   */\n      pop\n      pop\n      jump\t// out\n        /* \"#utility.yul\":2259:2349   */\n    tag_52:\n        /* \"#utility.yul\":2293:2300   */\n      0x00\n        /* \"#utility.yul\":2336:2341   */\n      dup2\n        /* \"#utility.yul\":2329:2342   */\n      iszero\n        /* \"#utility.yul\":2322:2343   */\n      iszero\n        /* \"#utility.yul\":2311:2343   */\n      swap1\n      pop\n        /* \"#utility.yul\":2259:2349   */\n      swap2\n      swap1\n      pop\n      jump\t// out\n        /* \"#utility.yul\":2355:2454   */\n    tag_53:\n        /* \"#utility.yul\":2426:2447   */\n      tag_116\n        /* \"#utility.yul\":2441:2446   */\n      dup2\n        /* \"#utility.yul\":2426:2447   */\n      tag_52\n      jump\t// in\n    tag_116:\n        /* \"#utility.yul\":2421:2424   */\n      dup3\n        /* \"#utility.yul\":2414:2448   */\n      mstore\n        /* \"#utility.yul\":2355:2454   */\n      pop\n      pop\n      jump\t// out\n        /* \"#utility.yul\":2518:3283   */\n    tag_54:\n        /* \"#utility.yul\":2625:2628   */\n      0x00\n        /* \"#utility.yul\":2661:2665   */\n      0x60\n        /* \"#utility.yul\":2656:2659   */\n      dup4\n        /* \"#utility.yul\":2652:2666   */\n      add\n        /* \"#utility.yul\":2748:2752   */\n      0x00\n        /* \"#utility.yul\":2741:2746   */\n      dup4\n        /* \"#utility.yul\":2737:2753   */\n      add\n        /* \"#utility.yul\":2731:2754   */\n      mload\n        /* \"#utility.yul\":2801:2804   */\n      dup5\n        /* \"#utility.yul\":2795:2799   */\n      dup3\n        /* \"#utility.yul\":2791:2805   */\n      sub\n        /* \"#utility.yul\":2784:2788   */\n      0x00\n        /* \"#utility.yul\":2779:2782   */\n      dup7\n        /* \"#utility.yul\":2775:2789   */\n      add\n        /* \"#utility.yul\":2768:2806   */\n      mstore\n        /* \"#utility.yul\":2827:2900   */\n      tag_118\n        /* \"#utility.yul\":2895:2899   */\n      dup3\n        /* \"#utility.yul\":2881:2893   */\n      dup3\n        /* \"#utility.yul\":2827:2900   */\n      tag_49\n      jump\t// in\n    tag_118:\n        /* \"#utility.yul\":2819:2900   */\n      swap2\n      pop\n        /* \"#utility.yul\":2676:2911   */\n      pop\n        /* \"#utility.yul\":2992:2996   */\n      0x20\n        /* \"#utility.yul\":2985:2990   */\n      dup4\n        /* \"#utility.yul\":2981:2997   */\n      add\n        /* \"#utility.yul\":2975:2998   */\n      mload\n        /* \"#utility.yul\":3011:3074   */\n      tag_119\n        /* \"#utility.yul\":3068:3072   */\n      0x20\n        /* \"#utility.yul\":3063:3066   */\n      dup7\n        /* \"#utility.yul\":3059:3073   */\n      add\n        /* \"#utility.yul\":3045:3057   */\n      dup3\n        /* \"#utility.yul\":3011:3074   */\n      tag_51\n      jump\t// in\n    tag_119:\n        /* \"#utility.yul\":2921:3084   */\n      pop\n        /* \"#utility.yul\":3170:3174   */\n      0x40\n        /* \"#utility.yul\":3163:3168   */\n      dup4\n        /* \"#utility.yul\":3159:3175   */\n      add\n        /* \"#utility.yul\":3153:3176   */\n      mload\n        /* \"#utility.yul\":3189:3246   */\n      tag_120\n        /* \"#utility.yul\":3240:3244   */\n      0x40\n        /* \"#utility.yul\":3235:3238   */\n      dup7\n        /* \"#utility.yul\":3231:3245   */\n      add\n        /* \"#utility.yul\":3217:3229   */\n      dup3\n        /* \"#utility.yul\":3189:3246   */\n      tag_53\n      jump\t// in\n    tag_120:\n        /* \"#utility.yul\":3094:3256   */\n      pop\n        /* \"#utility.yul\":3273:3277   */\n      dup1\n        /* \"#utility.yul\":3266:3277   */\n      swap2\n      pop\n        /* \"#utility.yul\":2630:3283   */\n      pop\n        /* \"#utility.yul\":2518:3283   */\n      swap3\n      swap2\n      pop\n      pop\n      jump\t// out\n        /* \"#utility.yul\":3289:3638   */\n    tag_11:\n        /* \"#utility.yul\":3420:3424   */\n      0x00\n        /* \"#utility.yul\":3458:3460   */\n      0x20\n        /* \"#utility.yul\":3447:3456   */\n      dup3\n        /* \"#utility.yul\":3443:3461   */\n      add\n        /* \"#utility.yul\":3435:3461   */\n      swap1\n      pop\n        /* \"#utility.yul\":3507:3516   */\n      dup2\n        /* \"#utility.yul\":3501:3505   */\n      dup2\n        /* \"#utility.yul\":3497:3517   */\n      sub\n        /* \"#utility.yul\":3493:3494   */\n      0x00\n        /* \"#utility.yul\":3482:3491   */\n      dup4\n        /* \"#utility.yul\":3478:3495   */\n      add\n        /* \"#utility.yul\":3471:3518   */\n      mstore\n        /* \"#utility.yul\":3535:3631   */\n      tag_122\n        /* \"#utility.yul\":3626:3630   */\n      dup2\n        /* \"#utility.yul\":3617:3623   */\n      dup5\n        /* \"#utility.yul\":3535:3631   */\n      tag_54\n      jump\t// in\n    tag_122:\n        /* \"#utility.yul\":3527:3631   */\n      swap1\n      pop\n        /* \"#utility.yul\":3289:3638   */\n      swap3\n      swap2\n      pop\n      pop\n      jump\t// out\n        /* \"#utility.yul\":3644:3813   */\n    tag_55:\n        /* \"#utility.yul\":3728:3739   */\n      0x00\n        /* \"#utility.yul\":3762:3768   */\n      dup3\n        /* \"#utility.yul\":3757:3760   */\n      dup3\n        /* \"#utility.yul\":3750:3769   */\n      mstore\n        /* \"#utility.yul\":3802:3806   */\n      0x20\n        /* \"#utility.yul\":3797:3800   */\n      dup3\n        /* \"#utility.yul\":3793:3807   */\n      add\n        /* \"#utility.yul\":3778:3807   */\n      swap1\n      pop\n        /* \"#utility.yul\":3644:3813   */\n      swap3\n      swap2\n      pop\n      pop\n      jump\t// out\n        /* \"#utility.yul\":3819:4196   */\n    tag_56:\n        /* \"#utility.yul\":3907:3910   */\n      0x00\n        /* \"#utility.yul\":3935:3974   */\n      tag_125\n        /* \"#utility.yul\":3968:3973   */\n      dup3\n        /* \"#utility.yul\":3935:3974   */\n      tag_45\n      jump\t// in\n    tag_125:\n        /* \"#utility.yul\":3990:4061   */\n      tag_126\n        /* \"#utility.yul\":4054:4060   */\n      dup2\n        /* \"#utility.yul\":4049:4052   */\n      dup6\n        /* \"#utility.yul\":3990:4061   */\n      tag_55\n      jump\t// in\n    tag_126:\n        /* \"#utility.yul\":3983:4061   */\n      swap4\n      pop\n        /* \"#utility.yul\":4070:4135   */\n      tag_127\n        /* \"#utility.yul\":4128:4134   */\n      dup2\n        /* \"#utility.yul\":4123:4126   */\n      dup6\n        /* \"#utility.yul\":4116:4120   */\n      0x20\n        /* \"#utility.yul\":4109:4114   */\n      dup7\n        /* \"#utility.yul\":4105:4121   */\n      add\n        /* \"#utility.yul\":4070:4135   */\n      tag_47\n      jump\t// in\n    tag_127:\n        /* \"#utility.yul\":4160:4189   */\n      tag_128\n        /* \"#utility.yul\":4182:4188   */\n      dup2\n        /* \"#utility.yul\":4160:4189   */\n      tag_48\n      jump\t// in\n    tag_128:\n        /* \"#utility.yul\":4155:4158   */\n      dup5\n        /* \"#utility.yul\":4151:4190   */\n      add\n        /* \"#utility.yul\":4144:4190   */\n      swap2\n      pop\n        /* \"#utility.yul\":3911:4196   */\n      pop\n        /* \"#utility.yul\":3819:4196   */\n      swap3\n      swap2\n      pop\n      pop\n      jump\t// out\n        /* \"#utility.yul\":4202:4320   */\n    tag_57:\n        /* \"#utility.yul\":4289:4313   */\n      tag_130\n        /* \"#utility.yul\":4307:4312   */\n      dup2\n        /* \"#utility.yul\":4289:4313   */\n      tag_50\n      jump\t// in\n    tag_130:\n        /* \"#utility.yul\":4284:4287   */\n      dup3\n        /* \"#utility.yul\":4277:4314   */\n      mstore\n        /* \"#utility.yul\":4202:4320   */\n      pop\n      pop\n      jump\t// out\n        /* \"#utility.yul\":4326:4435   */\n    tag_58:\n        /* \"#utility.yul\":4407:4428   */\n      tag_132\n        /* \"#utility.yul\":4422:4427   */\n      dup2\n        /* \"#utility.yul\":4407:4428   */\n      tag_52\n      jump\t// in\n    tag_132:\n        /* \"#utility.yul\":4402:4405   */\n      dup3\n        /* \"#utility.yul\":4395:4429   */\n      mstore\n        /* \"#utility.yul\":4326:4435   */\n      pop\n      pop\n      jump\t// out\n        /* \"#utility.yul\":4441:4962   */\n    tag_16:\n        /* \"#utility.yul\":4604:4608   */\n      0x00\n        /* \"#utility.yul\":4642:4644   */\n      0x60\n        /* \"#utility.yul\":4631:4640   */\n      dup3\n        /* \"#utility.yul\":4627:4645   */\n      add\n        /* \"#utility.yul\":4619:4645   */\n      swap1\n      pop\n        /* \"#utility.yul\":4691:4700   */\n      dup2\n        /* \"#utility.yul\":4685:4689   */\n      dup2\n        /* \"#utility.yul\":4681:4701   */\n      sub\n        /* \"#utility.yul\":4677:4678   */\n      0x00\n        /* \"#utility.yul\":4666:4675   */\n      dup4\n        /* \"#utility.yul\":4662:4679   */\n      add\n        /* \"#utility.yul\":4655:4702   */\n      mstore\n        /* \"#utility.yul\":4719:4797   */\n      tag_134\n        /* \"#utility.yul\":4792:4796   */\n      dup2\n        /* \"#utility.yul\":4783:4789   */\n      dup7\n        /* \"#utility.yul\":4719:4797   */\n      tag_56\n      jump\t// in\n    tag_134:\n        /* \"#utility.yul\":4711:4797   */\n      swap1\n      pop\n        /* \"#utility.yul\":4807:4879   */\n      tag_135\n        /* \"#utility.yul\":4875:4877   */\n      0x20\n        /* \"#utility.yul\":4864:4873   */\n      dup4\n        /* \"#utility.yul\":4860:4878   */\n      add\n        /* \"#utility.yul\":4851:4857   */\n      dup6\n        /* \"#utility.yul\":4807:4879   */\n      tag_57\n      jump\t// in\n    tag_135:\n        /* \"#utility.yul\":4889:4955   */\n      tag_136\n        /* \"#utility.yul\":4951:4953   */\n      0x40\n        /* \"#utility.yul\":4940:4949   */\n      dup4\n        /* \"#utility.yul\":4936:4954   */\n      add\n        /* \"#utility.yul\":4927:4933   */\n      dup5\n        /* \"#utility.yul\":4889:4955   */\n      tag_58\n      jump\t// in\n    tag_136:\n        /* \"#utility.yul\":4441:4962   */\n      swap5\n      swap4\n      pop\n      pop\n      pop\n      pop\n      jump\t// out\n        /* \"#utility.yul\":4968:5085   */\n    tag_59:\n        /* \"#utility.yul\":5077:5078   */\n      0x00\n        /* \"#utility.yul\":5074:5075   */\n      dup1\n        /* \"#utility.yul\":5067:5079   */\n      revert\n        /* \"#utility.yul\":5091:5208   */\n    tag_60:\n        /* \"#utility.yul\":5200:5201   */\n      0x00\n        /* \"#utility.yul\":5197:5198   */\n      dup1\n        /* \"#utility.yul\":5190:5202   */\n      revert\n        /* \"#utility.yul\":5214:5394   */\n    tag_61:\n        /* \"#utility.yul\":5262:5339   */\n      0x4e487b7100000000000000000000000000000000000000000000000000000000\n        /* \"#utility.yul\":5259:5260   */\n      0x00\n        /* \"#utility.yul\":5252:5340   */\n      mstore\n        /* \"#utility.yul\":5359:5363   */\n      0x41\n        /* \"#utility.yul\":5356:5357   */\n      0x04\n        /* \"#utility.yul\":5349:5364   */\n      mstore\n        /* \"#utility.yul\":5383:5387   */\n      0x24\n        /* \"#utility.yul\":5380:5381   */\n      0x00\n        /* \"#utility.yul\":5373:5388   */\n      revert\n        /* \"#utility.yul\":5400:5681   */\n    tag_62:\n        /* \"#utility.yul\":5483:5510   */\n      tag_141\n        /* \"#utility.yul\":5505:5509   */\n      dup3\n        /* \"#utility.yul\":5483:5510   */\n      tag_48\n      jump\t// in\n    tag_141:\n        /* \"#utility.yul\":5475:5481   */\n      dup2\n        /* \"#utility.yul\":5471:5511   */\n      add\n        /* \"#utility.yul\":5613:5619   */\n      dup2\n        /* \"#utility.yul\":5601:5611   */\n      dup2\n        /* \"#utility.yul\":5598:5620   */\n      lt\n        /* \"#utility.yul\":5577:5595   */\n      0xffffffffffffffff\n        /* \"#utility.yul\":5565:5575   */\n      dup3\n        /* \"#utility.yul\":5562:5596   */\n      gt\n        /* \"#utility.yul\":5559:5621   */\n      or\n        /* \"#utility.yul\":5556:5644   */\n      iszero\n      tag_142\n      jumpi\n        /* \"#utility.yul\":5624:5642   */\n      tag_143\n      tag_61\n      jump\t// in\n    tag_143:\n        /* \"#utility.yul\":5556:5644   */\n    tag_142:\n        /* \"#utility.yul\":5664:5674   */\n      dup1\n        /* \"#utility.yul\":5660:5662   */\n      0x40\n        /* \"#utility.yul\":5653:5675   */\n      mstore\n        /* \"#utility.yul\":5443:5681   */\n      pop\n        /* \"#utility.yul\":5400:5681   */\n      pop\n      pop\n      jump\t// out\n        /* \"#utility.yul\":5687:5816   */\n    tag_63:\n        /* \"#utility.yul\":5721:5727   */\n      0x00\n        /* \"#utility.yul\":5748:5768   */\n      tag_145\n      tag_38\n      jump\t// in\n    tag_145:\n        /* \"#utility.yul\":5738:5768   */\n      swap1\n      pop\n        /* \"#utility.yul\":5777:5810   */\n      tag_146\n        /* \"#utility.yul\":5805:5809   */\n      dup3\n        /* \"#utility.yul\":5797:5803   */\n      dup3\n        /* \"#utility.yul\":5777:5810   */\n      tag_62\n      jump\t// in\n    tag_146:\n        /* \"#utility.yul\":5687:5816   */\n      swap2\n      swap1\n      pop\n      jump\t// out\n        /* \"#utility.yul\":5822:6130   */\n    tag_64:\n        /* \"#utility.yul\":5884:5888   */\n      0x00\n        /* \"#utility.yul\":5974:5992   */\n      0xffffffffffffffff\n        /* \"#utility.yul\":5966:5972   */\n      dup3\n        /* \"#utility.yul\":5963:5993   */\n      gt\n        /* \"#utility.yul\":5960:6016   */\n      iszero\n      tag_148\n      jumpi\n        /* \"#utility.yul\":5996:6014   */\n      tag_149\n      tag_61\n      jump\t// in\n    tag_149:\n        /* \"#utility.yul\":5960:6016   */\n    tag_148:\n        /* \"#utility.yul\":6034:6063   */\n      tag_150\n        /* \"#utility.yul\":6056:6062   */\n      dup3\n        /* \"#utility.yul\":6034:6063   */\n      tag_48\n      jump\t// in\n    tag_150:\n        /* \"#utility.yul\":6026:6063   */\n      swap1\n      pop\n        /* \"#utility.yul\":6118:6122   */\n      0x20\n        /* \"#utility.yul\":6112:6116   */\n      dup2\n        /* \"#utility.yul\":6108:6123   */\n      add\n        /* \"#utility.yul\":6100:6123   */\n      swap1\n      pop\n        /* \"#utility.yul\":5822:6130   */\n      swap2\n      swap1\n      pop\n      jump\t// out\n        /* \"#utility.yul\":6136:6284   */\n    tag_65:\n        /* \"#utility.yul\":6234:6240   */\n      dup3\n        /* \"#utility.yul\":6229:6232   */\n      dup2\n        /* \"#utility.yul\":6224:6227   */\n      dup4\n        /* \"#utility.yul\":6211:6241   */\n      calldatacopy\n        /* \"#utility.yul\":6275:6276   */\n      0x00\n        /* \"#utility.yul\":6266:6272   */\n      dup4\n        /* \"#utility.yul\":6261:6264   */\n      dup4\n        /* \"#utility.yul\":6257:6273   */\n      add\n        /* \"#utility.yul\":6250:6277   */\n      mstore\n        /* \"#utility.yul\":6136:6284   */\n      pop\n      pop\n      pop\n      jump\t// out\n        /* \"#utility.yul\":6290:6715   */\n    tag_66:\n        /* \"#utility.yul\":6368:6373   */\n      0x00\n        /* \"#utility.yul\":6393:6459   */\n      tag_153\n        /* \"#utility.yul\":6409:6458   */\n      tag_154\n        /* \"#utility.yul\":6451:6457   */\n      dup5\n        /* \"#utility.yul\":6409:6458   */\n      tag_64\n      jump\t// in\n    tag_154:\n        /* \"#utility.yul\":6393:6459   */\n      tag_63\n      jump\t// in\n    tag_153:\n        /* \"#utility.yul\":6384:6459   */\n      swap1\n      pop\n        /* \"#utility.yul\":6482:6488   */\n      dup3\n        /* \"#utility.yul\":6475:6480   */\n      dup2\n        /* \"#utility.yul\":6468:6489   */\n      mstore\n        /* \"#utility.yul\":6520:6524   */\n      0x20\n        /* \"#utility.yul\":6513:6518   */\n      dup2\n        /* \"#utility.yul\":6509:6525   */\n      add\n        /* \"#utility.yul\":6558:6561   */\n      dup5\n        /* \"#utility.yul\":6549:6555   */\n      dup5\n        /* \"#utility.yul\":6544:6547   */\n      dup5\n        /* \"#utility.yul\":6540:6556   */\n      add\n        /* \"#utility.yul\":6537:6562   */\n      gt\n        /* \"#utility.yul\":6534:6646   */\n      iszero\n      tag_155\n      jumpi\n        /* \"#utility.yul\":6565:6644   */\n      tag_156\n      tag_60\n      jump\t// in\n    tag_156:\n        /* \"#utility.yul\":6534:6646   */\n    tag_155:\n        /* \"#utility.yul\":6655:6709   */\n      tag_157\n        /* \"#utility.yul\":6702:6708   */\n      dup5\n        /* \"#utility.yul\":6697:6700   */\n      dup3\n        /* \"#utility.yul\":6692:6695   */\n      dup6\n        /* \"#utility.yul\":6655:6709   */\n      tag_65\n      jump\t// in\n    tag_157:\n        /* \"#utility.yul\":6374:6715   */\n      pop\n        /* \"#utility.yul\":6290:6715   */\n      swap4\n      swap3\n      pop\n      pop\n      pop\n      jump\t// out\n        /* \"#utility.yul\":6735:7075   */\n    tag_67:\n        /* \"#utility.yul\":6791:6796   */\n      0x00\n        /* \"#utility.yul\":6840:6843   */\n      dup3\n        /* \"#utility.yul\":6833:6837   */\n      0x1f\n        /* \"#utility.yul\":6825:6831   */\n      dup4\n        /* \"#utility.yul\":6821:6838   */\n      add\n        /* \"#utility.yul\":6817:6844   */\n      slt\n        /* \"#utility.yul\":6807:6929   */\n      tag_159\n      jumpi\n        /* \"#utility.yul\":6848:6927   */\n      tag_160\n      tag_59\n      jump\t// in\n    tag_160:\n        /* \"#utility.yul\":6807:6929   */\n    tag_159:\n        /* \"#utility.yul\":6965:6971   */\n      dup2\n        /* \"#utility.yul\":6952:6972   */\n      calldataload\n        /* \"#utility.yul\":6990:7069   */\n      tag_161\n        /* \"#utility.yul\":7065:7068   */\n      dup5\n        /* \"#utility.yul\":7057:7063   */\n      dup3\n        /* \"#utility.yul\":7050:7054   */\n      0x20\n        /* \"#utility.yul\":7042:7048   */\n      dup7\n        /* \"#utility.yul\":7038:7055   */\n      add\n        /* \"#utility.yul\":6990:7069   */\n      tag_66\n      jump\t// in\n    tag_161:\n        /* \"#utility.yul\":6981:7069   */\n      swap2\n      pop\n        /* \"#utility.yul\":6797:7075   */\n      pop\n        /* \"#utility.yul\":6735:7075   */\n      swap3\n      swap2\n      pop\n      pop\n      jump\t// out\n        /* \"#utility.yul\":7081:7203   */\n    tag_68:\n        /* \"#utility.yul\":7154:7178   */\n      tag_163\n        /* \"#utility.yul\":7172:7177   */\n      dup2\n        /* \"#utility.yul\":7154:7178   */\n      tag_50\n      jump\t// in\n    tag_163:\n        /* \"#utility.yul\":7147:7152   */\n      dup2\n        /* \"#utility.yul\":7144:7179   */\n      eq\n        /* \"#utility.yul\":7134:7197   */\n      tag_164\n      jumpi\n        /* \"#utility.yul\":7193:7194   */\n      0x00\n        /* \"#utility.yul\":7190:7191   */\n      dup1\n        /* \"#utility.yul\":7183:7195   */\n      revert\n        /* \"#utility.yul\":7134:7197   */\n    tag_164:\n        /* \"#utility.yul\":7081:7203   */\n      pop\n      jump\t// out\n        /* \"#utility.yul\":7209:7348   */\n    tag_69:\n        /* \"#utility.yul\":7255:7260   */\n      0x00\n        /* \"#utility.yul\":7293:7299   */\n      dup2\n        /* \"#utility.yul\":7280:7300   */\n      calldataload\n        /* \"#utility.yul\":7271:7300   */\n      swap1\n      pop\n        /* \"#utility.yul\":7309:7342   */\n      tag_166\n        /* \"#utility.yul\":7336:7341   */\n      dup2\n        /* \"#utility.yul\":7309:7342   */\n      tag_68\n      jump\t// in\n    tag_166:\n        /* \"#utility.yul\":7209:7348   */\n      swap3\n      swap2\n      pop\n      pop\n      jump\t// out\n        /* \"#utility.yul\":7354:8008   */\n    tag_19:\n        /* \"#utility.yul\":7432:7438   */\n      0x00\n        /* \"#utility.yul\":7440:7446   */\n      dup1\n        /* \"#utility.yul\":7489:7491   */\n      0x40\n        /* \"#utility.yul\":7477:7486   */\n      dup4\n        /* \"#utility.yul\":7468:7475   */\n      dup6\n        /* \"#utility.yul\":7464:7487   */\n      sub\n        /* \"#utility.yul\":7460:7492   */\n      slt\n        /* \"#utility.yul\":7457:7576   */\n      iszero\n      tag_168\n      jumpi\n        /* \"#utility.yul\":7495:7574   */\n      tag_169\n      tag_39\n      jump\t// in\n    tag_169:\n        /* \"#utility.yul\":7457:7576   */\n    tag_168:\n        /* \"#utility.yul\":7643:7644   */\n      0x00\n        /* \"#utility.yul\":7632:7641   */\n      dup4\n        /* \"#utility.yul\":7628:7645   */\n      add\n        /* \"#utility.yul\":7615:7646   */\n      calldataload\n        /* \"#utility.yul\":7673:7691   */\n      0xffffffffffffffff\n        /* \"#utility.yul\":7665:7671   */\n      dup2\n        /* \"#utility.yul\":7662:7692   */\n      gt\n        /* \"#utility.yul\":7659:7776   */\n      iszero\n      tag_170\n      jumpi\n        /* \"#utility.yul\":7695:7774   */\n      tag_171\n      tag_40\n      jump\t// in\n    tag_171:\n        /* \"#utility.yul\":7659:7776   */\n    tag_170:\n        /* \"#utility.yul\":7800:7863   */\n      tag_172\n        /* \"#utility.yul\":7855:7862   */\n      dup6\n        /* \"#utility.yul\":7846:7852   */\n      dup3\n        /* \"#utility.yul\":7835:7844   */\n      dup7\n        /* \"#utility.yul\":7831:7853   */\n      add\n        /* \"#utility.yul\":7800:7863   */\n      tag_67\n      jump\t// in\n    tag_172:\n        /* \"#utility.yul\":7790:7863   */\n      swap3\n      pop\n        /* \"#utility.yul\":7586:7873   */\n      pop\n        /* \"#utility.yul\":7912:7914   */\n      0x20\n        /* \"#utility.yul\":7938:7991   */\n      tag_173\n        /* \"#utility.yul\":7983:7990   */\n      dup6\n        /* \"#utility.yul\":7974:7980   */\n      dup3\n        /* \"#utility.yul\":7963:7972   */\n      dup7\n        /* \"#utility.yul\":7959:7981   */\n      add\n        /* \"#utility.yul\":7938:7991   */\n      tag_69\n      jump\t// in\n    tag_173:\n        /* \"#utility.yul\":7928:7991   */\n      swap2\n      pop\n        /* \"#utility.yul\":7883:8001   */\n      pop\n        /* \"#utility.yul\":7354:8008   */\n      swap3\n      pop\n      swap3\n      swap1\n      pop\n      jump\t// out\n        /* \"#utility.yul\":8014:8194   */\n    tag_70:\n        /* \"#utility.yul\":8062:8139   */\n      0x4e487b7100000000000000000000000000000000000000000000000000000000\n        /* \"#utility.yul\":8059:8060   */\n      0x00\n        /* \"#utility.yul\":8052:8140   */\n      mstore\n        /* \"#utility.yul\":8159:8163   */\n      0x22\n        /* \"#utility.yul\":8156:8157   */\n      0x04\n        /* \"#utility.yul\":8149:8164   */\n      mstore\n        /* \"#utility.yul\":8183:8187   */\n      0x24\n        /* \"#utility.yul\":8180:8181   */\n      0x00\n        /* \"#utility.yul\":8173:8188   */\n      revert\n        /* \"#utility.yul\":8200:8520   */\n    tag_25:\n        /* \"#utility.yul\":8244:8250   */\n      0x00\n        /* \"#utility.yul\":8281:8282   */\n      0x02\n        /* \"#utility.yul\":8275:8279   */\n      dup3\n        /* \"#utility.yul\":8271:8283   */\n      div\n        /* \"#utility.yul\":8261:8283   */\n      swap1\n      pop\n        /* \"#utility.yul\":8328:8329   */\n      0x01\n        /* \"#utility.yul\":8322:8326   */\n      dup3\n        /* \"#utility.yul\":8318:8330   */\n      and\n        /* \"#utility.yul\":8349:8367   */\n      dup1\n        /* \"#utility.yul\":8339:8420   */\n      tag_176\n      jumpi\n        /* \"#utility.yul\":8405:8409   */\n      0x7f\n        /* \"#utility.yul\":8397:8403   */\n      dup3\n        /* \"#utility.yul\":8393:8410   */\n      and\n        /* \"#utility.yul\":8383:8410   */\n      swap2\n      pop\n        /* \"#utility.yul\":8339:8420   */\n    tag_176:\n        /* \"#utility.yul\":8467:8469   */\n      0x20\n        /* \"#utility.yul\":8459:8465   */\n      dup3\n        /* \"#utility.yul\":8456:8470   */\n      lt\n        /* \"#utility.yul\":8436:8454   */\n      dup2\n        /* \"#utility.yul\":8433:8471   */\n      sub\n        /* \"#utility.yul\":8430:8514   */\n      tag_177\n      jumpi\n        /* \"#utility.yul\":8486:8504   */\n      tag_178\n      tag_70\n      jump\t// in\n    tag_178:\n        /* \"#utility.yul\":8430:8514   */\n    tag_177:\n        /* \"#utility.yul\":8251:8520   */\n      pop\n        /* \"#utility.yul\":8200:8520   */\n      swap2\n      swap1\n      pop\n      jump\t// out\n        /* \"#utility.yul\":8526:8667   */\n    tag_71:\n        /* \"#utility.yul\":8575:8579   */\n      0x00\n        /* \"#utility.yul\":8598:8601   */\n      dup2\n        /* \"#utility.yul\":8590:8601   */\n      swap1\n      pop\n        /* \"#utility.yul\":8621:8624   */\n      dup2\n        /* \"#utility.yul\":8618:8619   */\n      0x00\n        /* \"#utility.yul\":8611:8625   */\n      mstore\n        /* \"#utility.yul\":8655:8659   */\n      0x20\n        /* \"#utility.yul\":8652:8653   */\n      0x00\n        /* \"#utility.yul\":8642:8660   */\n      keccak256\n        /* \"#utility.yul\":8634:8660   */\n      swap1\n      pop\n        /* \"#utility.yul\":8526:8667   */\n      swap2\n      swap1\n      pop\n      jump\t// out\n        /* \"#utility.yul\":8673:8766   */\n    tag_72:\n        /* \"#utility.yul\":8710:8716   */\n      0x00\n        /* \"#utility.yul\":8757:8759   */\n      0x20\n        /* \"#utility.yul\":8752:8754   */\n      0x1f\n        /* \"#utility.yul\":8745:8750   */\n      dup4\n        /* \"#utility.yul\":8741:8755   */\n      add\n        /* \"#utility.yul\":8737:8760   */\n      div\n        /* \"#utility.yul\":8727:8760   */\n      swap1\n      pop\n        /* \"#utility.yul\":8673:8766   */\n      swap2\n      swap1\n      pop\n      jump\t// out\n        /* \"#utility.yul\":8772:8879   */\n    tag_73:\n        /* \"#utility.yul\":8816:8824   */\n      0x00\n        /* \"#utility.yul\":8866:8871   */\n      dup3\n        /* \"#utility.yul\":8860:8864   */\n      dup3\n        /* \"#utility.yul\":8856:8872   */\n      shl\n        /* \"#utility.yul\":8835:8872   */\n      swap1\n      pop\n        /* \"#utility.yul\":8772:8879   */\n      swap3\n      swap2\n      pop\n      pop\n      jump\t// out\n        /* \"#utility.yul\":8885:9278   */\n    tag_74:\n        /* \"#utility.yul\":8954:8960   */\n      0x00\n        /* \"#utility.yul\":9004:9005   */\n      0x08\n        /* \"#utility.yul\":8992:9002   */\n      dup4\n        /* \"#utility.yul\":8988:9006   */\n      mul\n        /* \"#utility.yul\":9027:9124   */\n      tag_183\n        /* \"#utility.yul\":9057:9123   */\n      0xffffffffffffffffffffffffffffffffffffffffffffffffffffffffffffffff\n        /* \"#utility.yul\":9046:9055   */\n      dup3\n        /* \"#utility.yul\":9027:9124   */\n      tag_73\n      jump\t// in\n    tag_183:\n        /* \"#utility.yul\":9145:9184   */\n      tag_184\n        /* \"#utility.yul\":9175:9183   */\n      dup7\n        /* \"#utility.yul\":9164:9173   */\n      dup4\n        /* \"#utility.yul\":9145:9184   */\n      tag_73\n      jump\t// in\n    tag_184:\n        /* \"#utility.yul\":9133:9184   */\n      swap6\n      pop\n        /* \"#utility.yul\":9217:9221   */\n      dup1\n        /* \"#utility.yul\":9213:9222   */\n      not\n        /* \"#utility.yul\":9206:9211   */\n      dup5\n        /* \"#utility.yul\":9202:9223   */\n      and\n        /* \"#utility.yul\":9193:9223   */\n      swap4\n      pop\n        /* \"#utility.yul\":9266:9270   */\n      dup1\n        /* \"#utility.yul\":9256:9264   */\n      dup7\n        /* \"#utility.yul\":9252:9271   */\n      and\n        /* \"#utility.yul\":9245:9250   */\n      dup5\n        /* \"#utility.yul\":9242:9272   */\n      or\n        /* \"#utility.yul\":9232:9272   */\n      swap3\n      pop\n        /* \"#utility.yul\":8961:9278   */\n      pop\n      pop\n        /* \"#utility.yul\":8885:9278   */\n      swap4\n      swap3\n      pop\n      pop\n      pop\n      jump\t// out\n        /* \"#utility.yul\":9284:9344   */\n    tag_75:\n        /* \"#utility.yul\":9312:9315   */\n      0x00\n        /* \"#utility.yul\":9333:9338   */\n      dup2\n        /* \"#utility.yul\":9326:9338   */\n      swap1\n      pop\n        /* \"#utility.yul\":9284:9344   */\n      swap2\n      swap1\n      pop\n      jump\t// out\n        /* \"#utility.yul\":9350:9492   */\n    tag_76:\n        /* \"#utility.yul\":9400:9409   */\n      0x00\n        /* \"#utility.yul\":9433:9486   */\n      tag_187\n        /* \"#utility.yul\":9451:9485   */\n      tag_188\n        /* \"#utility.yul\":9460:9484   */\n      tag_189\n        /* \"#utility.yul\":9478:9483   */\n      dup5\n        /* \"#utility.yul\":9460:9484   */\n      tag_50\n      jump\t// in\n    tag_189:\n        /* \"#utility.yul\":9451:9485   */\n      tag_75\n      jump\t// in\n    tag_188:\n        /* \"#utility.yul\":9433:9486   */\n      tag_50\n      jump\t// in\n    tag_187:\n        /* \"#utility.yul\":9420:9486   */\n      swap1\n      pop\n        /* \"#utility.yul\":9350:9492   */\n      swap2\n      swap1\n      pop\n      jump\t// out\n        /* \"#utility.yul\":9498:9573   */\n    tag_77:\n        /* \"#utility.yul\":9541:9544   */\n      0x00\n        /* \"#utility.yul\":9562:9567   */\n      dup2\n        /* \"#utility.yul\":9555:9567   */\n      swap1\n      pop\n        /* \"#utility.yul\":9498:9573   */\n      swap2\n      swap1\n      pop\n      jump\t// out\n        /* \"#utility.yul\":9579:9848   */\n    tag_78:\n        /* \"#utility.yul\":9689:9728   */\n      tag_192\n        /* \"#utility.yul\":9720:9727   */\n      dup4\n        /* \"#utility.yul\":9689:9728   */\n      tag_76\n      jump\t// in\n    tag_192:\n        /* \"#utility.yul\":9750:9841   */\n      tag_193\n        /* \"#utility.yul\":9799:9840   */\n      tag_194\n        /* \"#utility.yul\":9823:9839   */\n      dup3\n        /* \"#utility.yul\":9799:9840   */\n      tag_77\n      jump\t// in\n    tag_194:\n        /* \"#utility.yul\":9791:9797   */\n      dup5\n        /* \"#utility.yul\":9784:9788   */\n      dup5\n        /* \"#utility.yul\":9778:9789   */\n      sload\n        /* \"#utility.yul\":9750:9841   */\n      tag_74\n      jump\t// in\n    tag_193:\n        /* \"#utility.yul\":9744:9748   */\n      dup3\n        /* \"#utility.yul\":9737:9842   */\n      sstore\n        /* \"#utility.yul\":9655:9848   */\n      pop\n        /* \"#utility.yul\":9579:9848   */\n      pop\n      pop\n      pop\n      jump\t// out\n        /* \"#utility.yul\":9854:9927   */\n    tag_79:\n        /* \"#utility.yul\":9899:9902   */\n      0x00\n        /* \"#utility.yul\":9854:9927   */\n      swap1\n      jump\t// out\n        /* \"#utility.yul\":9933:10122   */\n    tag_80:\n        /* \"#utility.yul\":10010:10042   */\n      tag_197\n      tag_79\n      jump\t// in\n    tag_197:\n        /* \"#utility.yul\":10051:10116   */\n      tag_198\n        /* \"#utility.yul\":10109:10115   */\n      dup2\n        /* \"#utility.yul\":10101:10107   */\n      dup5\n        /* \"#utility.yul\":10095:10099   */\n      dup5\n        /* \"#utility.yul\":10051:10116   */\n      tag_78\n      jump\t// in\n    tag_198:\n        /* \"#utility.yul\":9986:10122   */\n      pop\n        /* \"#utility.yul\":9933:10122   */\n      pop\n      pop\n      jump\t// out\n        /* \"#utility.yul\":10128:10314   */\n    tag_81:\n        /* \"#utility.yul\":10188:10308   */\n    tag_200:\n        /* \"#utility.yul\":10205:10208   */\n      dup2\n        /* \"#utility.yul\":10198:10203   */\n      dup2\n        /* \"#utility.yul\":10195:10209   */\n      lt\n        /* \"#utility.yul\":10188:10308   */\n      iszero\n      tag_202\n      jumpi\n        /* \"#utility.yul\":10259:10298   */\n      tag_203\n        /* \"#utility.yul\":10296:10297   */\n      0x00\n        /* \"#utility.yul\":10289:10294   */\n      dup3\n        /* \"#utility.yul\":10259:10298   */\n      tag_80\n      jump\t// in\n    tag_203:\n        /* \"#utility.yul\":10232:10233   */\n      0x01\n        /* \"#utility.yul\":10225:10230   */\n      dup2\n        /* \"#utility.yul\":10221:10234   */\n      add\n        /* \"#utility.yul\":10212:10234   */\n      swap1\n      pop\n        /* \"#utility.yul\":10188:10308   */\n      jump(tag_200)\n    tag_202:\n        /* \"#utility.yul\":10128:10314   */\n      pop\n      pop\n      jump\t// out\n        /* \"#utility.yul\":10320:10863   */\n    tag_82:\n        /* \"#utility.yul\":10421:10423   */\n      0x1f\n        /* \"#utility.yul\":10416:10419   */\n      dup3\n        /* \"#utility.yul\":10413:10424   */\n      gt\n        /* \"#utility.yul\":10410:10856   */\n      iszero\n      tag_205\n      jumpi\n        /* \"#utility.yul\":10455:10493   */\n      tag_206\n        /* \"#utility.yul\":10487:10492   */\n      dup2\n        /* \"#utility.yul\":10455:10493   */\n      tag_71\n      jump\t// in\n    tag_206:\n        /* \"#utility.yul\":10539:10568   */\n      tag_207\n        /* \"#utility.yul\":10557:10567   */\n      dup5\n        /* \"#utility.yul\":10539:10568   */\n      tag_72\n      jump\t// in\n    tag_207:\n        /* \"#utility.yul\":10529:10537   */\n      dup2\n        /* \"#utility.yul\":10525:10569   */\n      add\n        /* \"#utility.yul\":10722:10724   */\n      0x20\n        /* \"#utility.yul\":10710:10720   */\n      dup6\n        /* \"#utility.yul\":10707:10725   */\n      lt\n        /* \"#utility.yul\":10704:10753   */\n      iszero\n      tag_208\n      jumpi\n        /* \"#utility.yul\":10743:10751   */\n      dup2\n        /* \"#utility.yul\":10728:10751   */\n      swap1\n      pop\n        /* \"#utility.yul\":10704:10753   */\n    tag_208:\n        /* \"#utility.yul\":10766:10846   */\n      tag_209\n        /* \"#utility.yul\":10822:10844   */\n      tag_210\n        /* \"#utility.yul\":10840:10843   */\n      dup6\n        /* \"#utility.yul\":10822:10844   */\n      tag_72\n      jump\t// in\n    tag_210:\n        /* \"#utility.yul\":10812:10820   */\n      dup4\n        /* \"#utility.yul\":10808:10845   */\n      add\n        /* \"#utility.yul\":10795:10806   */\n      dup3\n        /* \"#utility.yul\":10766:10846   */\n      tag_81\n      jump\t// in\n    tag_209:\n        /* \"#utility.yul\":10425:10856   */\n      pop\n      pop\n        /* \"#utility.yul\":10410:10856   */\n    tag_205:\n        /* \"#utility.yul\":10320:10863   */\n      pop\n      pop\n      pop\n      jump\t// out\n        /* \"#utility.yul\":10869:10986   */\n    tag_83:\n        /* \"#utility.yul\":10923:10931   */\n      0x00\n        /* \"#utility.yul\":10973:10978   */\n      dup3\n        /* \"#utility.yul\":10967:10971   */\n      dup3\n        /* \"#utility.yul\":10963:10979   */\n      shr\n        /* \"#utility.yul\":10942:10979   */\n      swap1\n      pop\n        /* \"#utility.yul\":10869:10986   */\n      swap3\n      swap2\n      pop\n      pop\n      jump\t// out\n        /* \"#utility.yul\":10992:11161   */\n    tag_84:\n        /* \"#utility.yul\":11036:11042   */\n      0x00\n        /* \"#utility.yul\":11069:11120   */\n      tag_213\n        /* \"#utility.yul\":11117:11118   */\n      0x00\n        /* \"#utility.yul\":11113:11119   */\n      not\n        /* \"#utility.yul\":11105:11110   */\n      dup5\n        /* \"#utility.yul\":11102:11103   */\n      0x08\n        /* \"#utility.yul\":11098:11111   */\n      mul\n        /* \"#utility.yul\":11069:11120   */\n      tag_83\n      jump\t// in\n    tag_213:\n        /* \"#utility.yul\":11065:11121   */\n      not\n        /* \"#utility.yul\":11150:11154   */\n      dup1\n        /* \"#utility.yul\":11144:11148   */\n      dup4\n        /* \"#utility.yul\":11140:11155   */\n      and\n        /* \"#utility.yul\":11130:11155   */\n      swap2\n      pop\n        /* \"#utility.yul\":11043:11161   */\n      pop\n        /* \"#utility.yul\":10992:11161   */\n      swap3\n      swap2\n      pop\n      pop\n      jump\t// out\n        /* \"#utility.yul\":11166:11461   */\n    tag_85:\n        /* \"#utility.yul\":11242:11246   */\n      0x00\n        /* \"#utility.yul\":11388:11417   */\n      tag_215\n        /* \"#utility.yul\":11413:11416   */\n      dup4\n        /* \"#utility.yul\":11407:11411   */\n      dup4\n        /* \"#utility.yul\":11388:11417   */\n      tag_84\n      jump\t// in\n    tag_215:\n        /* \"#utility.yul\":11380:11417   */\n      swap2\n      pop\n        /* \"#utility.yul\":11450:11453   */\n      dup3\n        /* \"#utility.yul\":11447:11448   */\n      0x02\n        /* \"#utility.yul\":11443:11454   */\n      mul\n        /* \"#utility.yul\":11437:11441   */\n      dup3\n        /* \"#utility.yul\":11434:11455   */\n      or\n        /* \"#utility.yul\":11426:11455   */\n      swap1\n      pop\n        /* \"#utility.yul\":11166:11461   */\n      swap3\n      swap2\n      pop\n      pop\n      jump\t// out\n        /* \"#utility.yul\":11466:12861   */\n    tag_37:\n        /* \"#utility.yul\":11583:11620   */\n      tag_217\n        /* \"#utility.yul\":11616:11619   */\n      dup3\n        /* \"#utility.yul\":11583:11620   */\n      tag_45\n      jump\t// in\n    tag_217:\n        /* \"#utility.yul\":11685:11703   */\n      0xffffffffffffffff\n        /* \"#utility.yul\":11677:11683   */\n      dup2\n        /* \"#utility.yul\":11674:11704   */\n      gt\n        /* \"#utility.yul\":11671:11727   */\n      iszero\n      tag_218\n      jumpi\n        /* \"#utility.yul\":11707:11725   */\n      tag_219\n      tag_61\n      jump\t// in\n    tag_219:\n        /* \"#utility.yul\":11671:11727   */\n    tag_218:\n        /* \"#utility.yul\":11751:11789   */\n      tag_220\n        /* \"#utility.yul\":11783:11787   */\n      dup3\n        /* \"#utility.yul\":11777:11788   */\n      sload\n        /* \"#utility.yul\":11751:11789   */\n      tag_25\n      jump\t// in\n    tag_220:\n        /* \"#utility.yul\":11836:11903   */\n      tag_221\n        /* \"#utility.yul\":11896:11902   */\n      dup3\n        /* \"#utility.yul\":11888:11894   */\n      dup3\n        /* \"#utility.yul\":11882:11886   */\n      dup6\n        /* \"#utility.yul\":11836:11903   */\n      tag_82\n      jump\t// in\n    tag_221:\n        /* \"#utility.yul\":11930:11931   */\n      0x00\n        /* \"#utility.yul\":11954:11958   */\n      0x20\n        /* \"#utility.yul\":11941:11958   */\n      swap1\n      pop\n        /* \"#utility.yul\":11986:11988   */\n      0x1f\n        /* \"#utility.yul\":11978:11984   */\n      dup4\n        /* \"#utility.yul\":11975:11989   */\n      gt\n        /* \"#utility.yul\":12003:12004   */\n      0x01\n        /* \"#utility.yul\":11998:12616   */\n      dup2\n      eq\n      tag_223\n      jumpi\n        /* \"#utility.yul\":12660:12661   */\n      0x00\n        /* \"#utility.yul\":12677:12683   */\n      dup5\n        /* \"#utility.yul\":12674:12751   */\n      iszero\n      tag_224\n      jumpi\n        /* \"#utility.yul\":12726:12735   */\n      dup3\n        /* \"#utility.yul\":12721:12724   */\n      dup8\n        /* \"#utility.yul\":12717:12736   */\n      add\n        /* \"#utility.yul\":12711:12737   */\n      mload\n        /* \"#utility.yul\":12702:12737   */\n      swap1\n      pop\n        /* \"#utility.yul\":12674:12751   */\n    tag_224:\n        /* \"#utility.yul\":12777:12844   */\n      tag_225\n        /* \"#utility.yul\":12837:12843   */\n      dup6\n        /* \"#utility.yul\":12830:12835   */\n      dup3\n        /* \"#utility.yul\":12777:12844   */\n      tag_85\n      jump\t// in\n    tag_225:\n        /* \"#utility.yul\":12771:12775   */\n      dup7\n        /* \"#utility.yul\":12764:12845   */\n      sstore\n        /* \"#utility.yul\":12633:12855   */\n      pop\n        /* \"#utility.yul\":11968:12855   */\n      jump(tag_222)\n        /* \"#utility.yul\":11998:12616   */\n    tag_223:\n        /* \"#utility.yul\":12050:12054   */\n      0x1f\n        /* \"#utility.yul\":12046:12055   */\n      not\n        /* \"#utility.yul\":12038:12044   */\n      dup5\n        /* \"#utility.yul\":12034:12056   */\n      and\n        /* \"#utility.yul\":12084:12121   */\n      tag_226\n        /* \"#utility.yul\":12116:12120   */\n      dup7\n        /* \"#utility.yul\":12084:12121   */\n      tag_71\n      jump\t// in\n    tag_226:\n        /* \"#utility.yul\":12143:12144   */\n      0x00\n        /* \"#utility.yul\":12157:12365   */\n    tag_227:\n        /* \"#utility.yul\":12171:12178   */\n      dup3\n        /* \"#utility.yul\":12168:12169   */\n      dup2\n        /* \"#utility.yul\":12165:12179   */\n      lt\n        /* \"#utility.yul\":12157:12365   */\n      iszero\n      tag_229\n      jumpi\n        /* \"#utility.yul\":12250:12259   */\n      dup5\n        /* \"#utility.yul\":12245:12248   */\n      dup10\n        /* \"#utility.yul\":12241:12260   */\n      add\n        /* \"#utility.yul\":12235:12261   */\n      mload\n        /* \"#utility.yul\":12227:12233   */\n      dup3\n        /* \"#utility.yul\":12220:12262   */\n      sstore\n        /* \"#utility.yul\":12301:12302   */\n      0x01\n        /* \"#utility.yul\":12293:12299   */\n      dup3\n        /* \"#utility.yul\":12289:12303   */\n      add\n        /* \"#utility.yul\":12279:12303   */\n      swap2\n      pop\n        /* \"#utility.yul\":12348:12350   */\n      0x20\n        /* \"#utility.yul\":12337:12346   */\n      dup6\n        /* \"#utility.yul\":12333:12351   */\n      add\n        /* \"#utility.yul\":12320:12351   */\n      swap5\n      pop\n        /* \"#utility.yul\":12194:12198   */\n      0x20\n        /* \"#utility.yul\":12191:12192   */\n      dup2\n        /* \"#utility.yul\":12187:12199   */\n      add\n        /* \"#utility.yul\":12182:12199   */\n      swap1\n      pop\n        /* \"#utility.yul\":12157:12365   */\n      jump(tag_227)\n    tag_229:\n        /* \"#utility.yul\":12393:12399   */\n      dup7\n        /* \"#utility.yul\":12384:12391   */\n      dup4\n        /* \"#utility.yul\":12381:12400   */\n      lt\n        /* \"#utility.yul\":12378:12557   */\n      iszero\n      tag_230\n      jumpi\n        /* \"#utility.yul\":12451:12460   */\n      dup5\n        /* \"#utility.yul\":12446:12449   */\n      dup10\n        /* \"#utility.yul\":12442:12461   */\n      add\n        /* \"#utility.yul\":12436:12462   */\n      mload\n        /* \"#utility.yul\":12494:12542   */\n      tag_231\n        /* \"#utility.yul\":12536:12540   */\n      0x1f\n        /* \"#utility.yul\":12528:12534   */\n      dup10\n        /* \"#utility.yul\":12524:12541   */\n      and\n        /* \"#utility.yul\":12513:12522   */\n      dup3\n        /* \"#utility.yul\":12494:12542   */\n      tag_84\n      jump\t// in\n    tag_231:\n        /* \"#utility.yul\":12486:12492   */\n      dup4\n        /* \"#utility.yul\":12479:12543   */\n      sstore\n        /* \"#utility.yul\":12401:12557   */\n      pop\n        /* \"#utility.yul\":12378:12557   */\n    tag_230:\n        /* \"#utility.yul\":12603:12604   */\n      0x01\n        /* \"#utility.yul\":12599:12600   */\n      0x02\n        /* \"#utility.yul\":12591:12597   */\n      dup9\n        /* \"#utility.yul\":12587:12601   */\n      mul\n        /* \"#utility.yul\":12583:12605   */\n      add\n        /* \"#utility.yul\":12577:12581   */\n      dup9\n        /* \"#utility.yul\":12570:12606   */\n      sstore\n        /* \"#utility.yul\":12005:12616   */\n      pop\n      pop\n      pop\n        /* \"#utility.yul\":11968:12855   */\n    tag_222:\n      pop\n        /* \"#utility.yul\":11558:12861   */\n      pop\n      pop\n      pop\n        /* \"#utility.yul\":11466:12861   */\n      pop\n      pop\n      jump\t// out\n\n    auxdata: 0xa2646970667358221220c358e923dbf70e0114eb71fa8e4883649b9ab7097de5bafe9eeadd01d64dba2164736f6c634300081a0033\n}\n",
				"bytecode": {
					"linkReferences": {},
					"object": "6080604052348015600e575f80fd5b50610a368061001c5f395ff3fe608060405234801561000f575f80fd5b506004361061003f575f3560e01c80636f77926b14610043578063a87430ba14610073578063ea87152b146100a5575b5f80fd5b61005d600480360381019061005891906103ab565b6100c1565b60405161006a91906104c5565b60405180910390f35b61008d600480360381019061008891906103ab565b6101ca565b60405161009c9392919061054b565b60405180910390f35b6100bf60048036038101906100ba91906106dd565b610281565b005b6100c961031f565b5f808373ffffffffffffffffffffffffffffffffffffffff1673ffffffffffffffffffffffffffffffffffffffff1681526020019081526020015f206040518060600160405290815f8201805461011f90610764565b80601f016020809104026020016040519081016040528092919081815260200182805461014b90610764565b80156101965780601f1061016d57610100808354040283529160200191610196565b820191905f5260205f20905b81548152906001019060200180831161017957829003601f168201915b5050505050815260200160018201548152602001600282015f9054906101000a900460ff1615151515815250509050919050565b5f602052805f5260405f205f91509050805f0180546101e890610764565b80601f016020809104026020016040519081016040528092919081815260200182805461021490610764565b801561025f5780601f106102365761010080835404028352916020019161025f565b820191905f5260205f20905b81548152906001019060200180831161024257829003601f168201915b505050505090806001015490806002015f9054906101000a900460ff16905083565b6040518060600160405280838152602001828152602001600115158152505f803373ffffffffffffffffffffffffffffffffffffffff1673ffffffffffffffffffffffffffffffffffffffff1681526020019081526020015f205f820151815f0190816102ee9190610931565b50602082015181600101556040820151816002015f6101000a81548160ff0219169083151502179055509050505050565b6040518060600160405280606081526020015f81526020015f151581525090565b5f604051905090565b5f80fd5b5f80fd5b5f73ffffffffffffffffffffffffffffffffffffffff82169050919050565b5f61037a82610351565b9050919050565b61038a81610370565b8114610394575f80fd5b50565b5f813590506103a581610381565b92915050565b5f602082840312156103c0576103bf610349565b5b5f6103cd84828501610397565b91505092915050565b5f81519050919050565b5f82825260208201905092915050565b8281835e5f83830152505050565b5f601f19601f8301169050919050565b5f610418826103d6565b61042281856103e0565b93506104328185602086016103f0565b61043b816103fe565b840191505092915050565b5f819050919050565b61045881610446565b82525050565b5f8115159050919050565b6104728161045e565b82525050565b5f606083015f8301518482035f860152610492828261040e565b91505060208301516104a7602086018261044f565b5060408301516104ba6040860182610469565b508091505092915050565b5f6020820190508181035f8301526104dd8184610478565b905092915050565b5f82825260208201905092915050565b5f6104ff826103d6565b61050981856104e5565b93506105198185602086016103f0565b610522816103fe565b840191505092915050565b61053681610446565b82525050565b6105458161045e565b82525050565b5f6060820190508181035f83015261056381866104f5565b9050610572602083018561052d565b61057f604083018461053c565b949350505050565b5f80fd5b5f80fd5b7f4e487b71000000000000000000000000000000000000000000000000000000005f52604160045260245ffd5b6105c5826103fe565b810181811067ffffffffffffffff821117156105e4576105e361058f565b5b80604052505050565b5f6105f6610340565b905061060282826105bc565b919050565b5f67ffffffffffffffff8211156106215761062061058f565b5b61062a826103fe565b9050602081019050919050565b828183375f83830152505050565b5f61065761065284610607565b6105ed565b9050828152602081018484840111156106735761067261058b565b5b61067e848285610637565b509392505050565b5f82601f83011261069a57610699610587565b5b81356106aa848260208601610645565b91505092915050565b6106bc81610446565b81146106c6575f80fd5b50565b5f813590506106d7816106b3565b92915050565b5f80604083850312156106f3576106f2610349565b5b5f83013567ffffffffffffffff8111156107105761070f61034d565b5b61071c85828601610686565b925050602061072d858286016106c9565b9150509250929050565b7f4e487b71000000000000000000000000000000000000000000000000000000005f52602260045260245ffd5b5f600282049050600182168061077b57607f821691505b60208210810361078e5761078d610737565b5b50919050565b5f819050815f5260205f209050919050565b5f6020601f8301049050919050565b5f82821b905092915050565b5f600883026107f07fffffffffffffffffffffffffffffffffffffffffffffffffffffffffffffffff826107b5565b6107fa86836107b5565b95508019841693508086168417925050509392505050565b5f819050919050565b5f61083561083061082b84610446565b610812565b610446565b9050919050565b5f819050919050565b61084e8361081b565b61086261085a8261083c565b8484546107c1565b825550505050565b5f90565b61087661086a565b610881818484610845565b505050565b5b818110156108a4576108995f8261086e565b600181019050610887565b5050565b601f8211156108e9576108ba81610794565b6108c3846107a6565b810160208510156108d2578190505b6108e66108de856107a6565b830182610886565b50505b505050565b5f82821c905092915050565b5f6109095f19846008026108ee565b1980831691505092915050565b5f61092183836108fa565b9150826002028217905092915050565b61093a826103d6565b67ffffffffffffffff8111156109535761095261058f565b5b61095d8254610764565b6109688282856108a8565b5f60209050601f831160018114610999575f8415610987578287015190505b6109918582610916565b8655506109f8565b601f1984166109a786610794565b5f5b828110156109ce578489015182556001820191506020850194506020810190506109a9565b868310156109eb57848901516109e7601f8916826108fa565b8355505b6001600288020188555050505b50505050505056fea2646970667358221220c358e923dbf70e0114eb71fa8e4883649b9ab7097de5bafe9eeadd01d64dba2164736f6c634300081a0033",
					"opcodes": "PUSH1 0x80 PUSH1 0x40 MSTORE CALLVALUE DUP1 ISZERO PUSH1 0xE JUMPI PUSH0 DUP1 REVERT JUMPDEST POP PUSH2 0xA36 DUP1 PUSH2 0x1C PUSH0 CODECOPY PUSH0 RETURN INVALID PUSH1 0x80 PUSH1 0x40 MSTORE CALLVALUE DUP1 ISZERO PUSH2 0xF JUMPI PUSH0 DUP1 REVERT JUMPDEST POP PUSH1 0x4 CALLDATASIZE LT PUSH2 0x3F JUMPI PUSH0 CALLDATALOAD PUSH1 0xE0 SHR DUP1 PUSH4 0x6F77926B EQ PUSH2 0x43 JUMPI DUP1 PUSH4 0xA87430BA EQ PUSH2 0x73 JUMPI DUP1 PUSH4 0xEA87152B EQ PUSH2 0xA5 JUMPI JUMPDEST PUSH0 DUP1 REVERT JUMPDEST PUSH2 0x5D PUSH1 0x4 DUP1 CALLDATASIZE SUB DUP2 ADD SWAP1 PUSH2 0x58 SWAP2 SWAP1 PUSH2 0x3AB JUMP JUMPDEST PUSH2 0xC1 JUMP JUMPDEST PUSH1 0x40 MLOAD PUSH2 0x6A SWAP2 SWAP1 PUSH2 0x4C5 JUMP JUMPDEST PUSH1 0x40 MLOAD DUP1 SWAP2 SUB SWAP1 RETURN JUMPDEST PUSH2 0x8D PUSH1 0x4 DUP1 CALLDATASIZE SUB DUP2 ADD SWAP1 PUSH2 0x88 SWAP2 SWAP1 PUSH2 0x3AB JUMP JUMPDEST PUSH2 0x1CA JUMP JUMPDEST PUSH1 0x40 MLOAD PUSH2 0x9C SWAP4 SWAP3 SWAP2 SWAP1 PUSH2 0x54B JUMP JUMPDEST PUSH1 0x40 MLOAD DUP1 SWAP2 SUB SWAP1 RETURN JUMPDEST PUSH2 0xBF PUSH1 0x4 DUP1 CALLDATASIZE SUB DUP2 ADD SWAP1 PUSH2 0xBA SWAP2 SWAP1 PUSH2 0x6DD JUMP JUMPDEST PUSH2 0x281 JUMP JUMPDEST STOP JUMPDEST PUSH2 0xC9 PUSH2 0x31F JUMP JUMPDEST PUSH0 DUP1 DUP4 PUSH20 0xFFFFFFFFFFFFFFFFFFFFFFFFFFFFFFFFFFFFFFFF AND PUSH20 0xFFFFFFFFFFFFFFFFFFFFFFFFFFFFFFFFFFFFFFFF AND DUP2 MSTORE PUSH1 0x20 ADD SWAP1 DUP2 MSTORE PUSH1 0x20 ADD PUSH0 KECCAK256 PUSH1 0x40 MLOAD DUP1 PUSH1 0x60 ADD PUSH1 0x40 MSTORE SWAP1 DUP2 PUSH0 DUP3 ADD DUP1 SLOAD PUSH2 0x11F SWAP1 PUSH2 0x764 JUMP JUMPDEST DUP1 PUSH1 0x1F ADD PUSH1 0x20 DUP1 SWAP2 DIV MUL PUSH1 0x20 ADD PUSH1 0x40 MLOAD SWAP1 DUP2 ADD PUSH1 0x40 MSTORE DUP1 SWAP3 SWAP2 SWAP1 DUP2 DUP2 MSTORE PUSH1 0x20 ADD DUP3 DUP1 SLOAD PUSH2 0x14B SWAP1 PUSH2 0x764 JUMP JUMPDEST DUP1 ISZERO PUSH2 0x196 JUMPI DUP1 PUSH1 0x1F LT PUSH2 0x16D JUMPI PUSH2 0x100 DUP1 DUP4 SLOAD DIV MUL DUP4 MSTORE SWAP2 PUSH1 0x20 ADD SWAP2 PUSH2 0x196 JUMP JUMPDEST DUP3 ADD SWAP2 SWAP1 PUSH0 MSTORE PUSH1 0x20 PUSH0 KECCAK256 SWAP1 JUMPDEST DUP2 SLOAD DUP2 MSTORE SWAP1 PUSH1 0x1 ADD SWAP1 PUSH1 0x20 ADD DUP1 DUP4 GT PUSH2 0x179 JUMPI DUP3 SWAP1 SUB PUSH1 0x1F AND DUP3 ADD SWAP2 JUMPDEST POP POP POP POP POP DUP2 MSTORE PUSH1 0x20 ADD PUSH1 0x1 DUP3 ADD SLOAD DUP2 MSTORE PUSH1 0x20 ADD PUSH1 0x2 DUP3 ADD PUSH0 SWAP1 SLOAD SWAP1 PUSH2 0x100 EXP SWAP1 DIV PUSH1 0xFF AND ISZERO ISZERO ISZERO ISZERO DUP2 MSTORE POP POP SWAP1 POP SWAP2 SWAP1 POP JUMP JUMPDEST PUSH0 PUSH1 0x20 MSTORE DUP1 PUSH0 MSTORE PUSH1 0x40 PUSH0 KECCAK256 PUSH0 SWAP2 POP SWAP1 POP DUP1 PUSH0 ADD DUP1 SLOAD PUSH2 0x1E8 SWAP1 PUSH2 0x764 JUMP JUMPDEST DUP1 PUSH1 0x1F ADD PUSH1 0x20 DUP1 SWAP2 DIV MUL PUSH1 0x20 ADD PUSH1 0x40 MLOAD SWAP1 DUP2 ADD PUSH1 0x40 MSTORE DUP1 SWAP3 SWAP2 SWAP1 DUP2 DUP2 MSTORE PUSH1 0x20 ADD DUP3 DUP1 SLOAD PUSH2 0x214 SWAP1 PUSH2 0x764 JUMP JUMPDEST DUP1 ISZERO PUSH2 0x25F JUMPI DUP1 PUSH1 0x1F LT PUSH2 0x236 JUMPI PUSH2 0x100 DUP1 DUP4 SLOAD DIV MUL DUP4 MSTORE SWAP2 PUSH1 0x20 ADD SWAP2 PUSH2 0x25F JUMP JUMPDEST DUP3 ADD SWAP2 SWAP1 PUSH0 MSTORE PUSH1 0x20 PUSH0 KECCAK256 SWAP1 JUMPDEST DUP2 SLOAD DUP2 MSTORE SWAP1 PUSH1 0x1 ADD SWAP1 PUSH1 0x20 ADD DUP1 DUP4 GT PUSH2 0x242 JUMPI DUP3 SWAP1 SUB PUSH1 0x1F AND DUP3 ADD SWAP2 JUMPDEST POP POP POP POP POP SWAP1 DUP1 PUSH1 0x1 ADD SLOAD SWAP1 DUP1 PUSH1 0x2 ADD PUSH0 SWAP1 SLOAD SWAP1 PUSH2 0x100 EXP SWAP1 DIV PUSH1 0xFF AND SWAP1 POP DUP4 JUMP JUMPDEST PUSH1 0x40 MLOAD DUP1 PUSH1 0x60 ADD PUSH1 0x40 MSTORE DUP1 DUP4 DUP2 MSTORE PUSH1 0x20 ADD DUP3 DUP2 MSTORE PUSH1 0x20 ADD PUSH1 0x1 ISZERO ISZERO DUP2 MSTORE POP PUSH0 DUP1 CALLER PUSH20 0xFFFFFFFFFFFFFFFFFFFFFFFFFFFFFFFFFFFFFFFF AND PUSH20 0xFFFFFFFFFFFFFFFFFFFFFFFFFFFFFFFFFFFFFFFF AND DUP2 MSTORE PUSH1 0x20 ADD SWAP1 DUP2 MSTORE PUSH1 0x20 ADD PUSH0 KECCAK256 PUSH0 DUP3 ADD MLOAD DUP2 PUSH0 ADD SWAP1 DUP2 PUSH2 0x2EE SWAP2 SWAP1 PUSH2 0x931 JUMP JUMPDEST POP PUSH1 0x20 DUP3 ADD MLOAD DUP2 PUSH1 0x1 ADD SSTORE PUSH1 0x40 DUP3 ADD MLOAD DUP2 PUSH1 0x2 ADD PUSH0 PUSH2 0x100 EXP DUP2 SLOAD DUP2 PUSH1 0xFF MUL NOT AND SWAP1 DUP4 ISZERO ISZERO MUL OR SWAP1 SSTORE POP SWAP1 POP POP POP POP JUMP JUMPDEST PUSH1 0x40 MLOAD DUP1 PUSH1 0x60 ADD PUSH1 0x40 MSTORE DUP1 PUSH1 0x60 DUP2 MSTORE PUSH1 0x20 ADD PUSH0 DUP2 MSTORE PUSH1 0x20 ADD PUSH0 ISZERO ISZERO DUP2 MSTORE POP SWAP1 JUMP JUMPDEST PUSH0 PUSH1 0x40 MLOAD SWAP1 POP SWAP1 JUMP JUMPDEST PUSH0 DUP1 REVERT JUMPDEST PUSH0 DUP1 REVERT JUMPDEST PUSH0 PUSH20 0xFFFFFFFFFFFFFFFFFFFFFFFFFFFFFFFFFFFFFFFF DUP3 AND SWAP1 POP SWAP2 SWAP1 POP JUMP JUMPDEST PUSH0 PUSH2 0x37A DUP3 PUSH2 0x351 JUMP JUMPDEST SWAP1 POP SWAP2 SWAP1 POP JUMP JUMPDEST PUSH2 0x38A DUP2 PUSH2 0x370 JUMP JUMPDEST DUP2 EQ PUSH2 0x394 JUMPI PUSH0 DUP1 REVERT JUMPDEST POP JUMP JUMPDEST PUSH0 DUP2 CALLDATALOAD SWAP1 POP PUSH2 0x3A5 DUP2 PUSH2 0x381 JUMP JUMPDEST SWAP3 SWAP2 POP POP JUMP JUMPDEST PUSH0 PUSH1 0x20 DUP3 DUP5 SUB SLT ISZERO PUSH2 0x3C0 JUMPI PUSH2 0x3BF PUSH2 0x349 JUMP JUMPDEST JUMPDEST PUSH0 PUSH2 0x3CD DUP5 DUP3 DUP6 ADD PUSH2 0x397 JUMP JUMPDEST SWAP2 POP POP SWAP3 SWAP2 POP POP JUMP JUMPDEST PUSH0 DUP2 MLOAD SWAP1 POP SWAP2 SWAP1 POP JUMP JUMPDEST PUSH0 DUP3 DUP3 MSTORE PUSH1 0x20 DUP3 ADD SWAP1 POP SWAP3 SWAP2 POP POP JUMP JUMPDEST DUP3 DUP2 DUP4 MCOPY PUSH0 DUP4 DUP4 ADD MSTORE POP POP POP JUMP JUMPDEST PUSH0 PUSH1 0x1F NOT PUSH1 0x1F DUP4 ADD AND SWAP1 POP SWAP2 SWAP1 POP JUMP JUMPDEST PUSH0 PUSH2 0x418 DUP3 PUSH2 0x3D6 JUMP JUMPDEST PUSH2 0x422 DUP2 DUP6 PUSH2 0x3E0 JUMP JUMPDEST SWAP4 POP PUSH2 0x432 DUP2 DUP6 PUSH1 0x20 DUP7 ADD PUSH2 0x3F0 JUMP JUMPDEST PUSH2 0x43B DUP2 PUSH2 0x3FE JUMP JUMPDEST DUP5 ADD SWAP2 POP POP SWAP3 SWAP2 POP POP JUMP JUMPDEST PUSH0 DUP2 SWAP1 POP SWAP2 SWAP1 POP JUMP JUMPDEST PUSH2 0x458 DUP2 PUSH2 0x446 JUMP JUMPDEST DUP3 MSTORE POP POP JUMP JUMPDEST PUSH0 DUP2 ISZERO ISZERO SWAP1 POP SWAP2 SWAP1 POP JUMP JUMPDEST PUSH2 0x472 DUP2 PUSH2 0x45E JUMP JUMPDEST DUP3 MSTORE POP POP JUMP JUMPDEST PUSH0 PUSH1 0x60 DUP4 ADD PUSH0 DUP4 ADD MLOAD DUP5 DUP3 SUB PUSH0 DUP7 ADD MSTORE PUSH2 0x492 DUP3 DUP3 PUSH2 0x40E JUMP JUMPDEST SWAP2 POP POP PUSH1 0x20 DUP4 ADD MLOAD PUSH2 0x4A7 PUSH1 0x20 DUP7 ADD DUP3 PUSH2 0x44F JUMP JUMPDEST POP PUSH1 0x40 DUP4 ADD MLOAD PUSH2 0x4BA PUSH1 0x40 DUP7 ADD DUP3 PUSH2 0x469 JUMP JUMPDEST POP DUP1 SWAP2 POP POP SWAP3 SWAP2 POP POP JUMP JUMPDEST PUSH0 PUSH1 0x20 DUP3 ADD SWAP1 POP DUP2 DUP2 SUB PUSH0 DUP4 ADD MSTORE PUSH2 0x4DD DUP2 DUP5 PUSH2 0x478 JUMP JUMPDEST SWAP1 POP SWAP3 SWAP2 POP POP JUMP JUMPDEST PUSH0 DUP3 DUP3 MSTORE PUSH1 0x20 DUP3 ADD SWAP1 POP SWAP3 SWAP2 POP POP JUMP JUMPDEST PUSH0 PUSH2 0x4FF DUP3 PUSH2 0x3D6 JUMP JUMPDEST PUSH2 0x509 DUP2 DUP6 PUSH2 0x4E5 JUMP JUMPDEST SWAP4 POP PUSH2 0x519 DUP2 DUP6 PUSH1 0x20 DUP7 ADD PUSH2 0x3F0 JUMP JUMPDEST PUSH2 0x522 DUP2 PUSH2 0x3FE JUMP JUMPDEST DUP5 ADD SWAP2 POP POP SWAP3 SWAP2 POP POP JUMP JUMPDEST PUSH2 0x536 DUP2 PUSH2 0x446 JUMP JUMPDEST DUP3 MSTORE POP POP JUMP JUMPDEST PUSH2 0x545 DUP2 PUSH2 0x45E JUMP JUMPDEST DUP3 MSTORE POP POP JUMP JUMPDEST PUSH0 PUSH1 0x60 DUP3 ADD SWAP1 POP DUP2 DUP2 SUB PUSH0 DUP4 ADD MSTORE PUSH2 0x563 DUP2 DUP7 PUSH2 0x4F5 JUMP JUMPDEST SWAP1 POP PUSH2 0x572 PUSH1 0x20 DUP4 ADD DUP6 PUSH2 0x52D JUMP JUMPDEST PUSH2 0x57F PUSH1 0x40 DUP4 ADD DUP5 PUSH2 0x53C JUMP JUMPDEST SWAP5 SWAP4 POP POP POP POP JUMP JUMPDEST PUSH0 DUP1 REVERT JUMPDEST PUSH0 DUP1 REVERT JUMPDEST PUSH32 0x4E487B7100000000000000000000000000000000000000000000000000000000 PUSH0 MSTORE PUSH1 0x41 PUSH1 0x4 MSTORE PUSH1 0x24 PUSH0 REVERT JUMPDEST PUSH2 0x5C5 DUP3 PUSH2 0x3FE JUMP JUMPDEST DUP2 ADD DUP2 DUP2 LT PUSH8 0xFFFFFFFFFFFFFFFF DUP3 GT OR ISZERO PUSH2 0x5E4 JUMPI PUSH2 0x5E3 PUSH2 0x58F JUMP JUMPDEST JUMPDEST DUP1 PUSH1 0x40 MSTORE POP POP POP JUMP JUMPDEST PUSH0 PUSH2 0x5F6 PUSH2 0x340 JUMP JUMPDEST SWAP1 POP PUSH2 0x602 DUP3 DUP3 PUSH2 0x5BC JUMP JUMPDEST SWAP2 SWAP1 POP JUMP JUMPDEST PUSH0 PUSH8 0xFFFFFFFFFFFFFFFF DUP3 GT ISZERO PUSH2 0x621 JUMPI PUSH2 0x620 PUSH2 0x58F JUMP JUMPDEST JUMPDEST PUSH2 0x62A DUP3 PUSH2 0x3FE JUMP JUMPDEST SWAP1 POP PUSH1 0x20 DUP2 ADD SWAP1 POP SWAP2 SWAP1 POP JUMP JUMPDEST DUP3 DUP2 DUP4 CALLDATACOPY PUSH0 DUP4 DUP4 ADD MSTORE POP POP POP JUMP JUMPDEST PUSH0 PUSH2 0x657 PUSH2 0x652 DUP5 PUSH2 0x607 JUMP JUMPDEST PUSH2 0x5ED JUMP JUMPDEST SWAP1 POP DUP3 DUP2 MSTORE PUSH1 0x20 DUP2 ADD DUP5 DUP5 DUP5 ADD GT ISZERO PUSH2 0x673 JUMPI PUSH2 0x672 PUSH2 0x58B JUMP JUMPDEST JUMPDEST PUSH2 0x67E DUP5 DUP3 DUP6 PUSH2 0x637 JUMP JUMPDEST POP SWAP4 SWAP3 POP POP POP JUMP JUMPDEST PUSH0 DUP3 PUSH1 0x1F DUP4 ADD SLT PUSH2 0x69A JUMPI PUSH2 0x699 PUSH2 0x587 JUMP JUMPDEST JUMPDEST DUP2 CALLDATALOAD PUSH2 0x6AA DUP5 DUP3 PUSH1 0x20 DUP7 ADD PUSH2 0x645 JUMP JUMPDEST SWAP2 POP POP SWAP3 SWAP2 POP POP JUMP JUMPDEST PUSH2 0x6BC DUP2 PUSH2 0x446 JUMP JUMPDEST DUP2 EQ PUSH2 0x6C6 JUMPI PUSH0 DUP1 REVERT JUMPDEST POP JUMP JUMPDEST PUSH0 DUP2 CALLDATALOAD SWAP1 POP PUSH2 0x6D7 DUP2 PUSH2 0x6B3 JUMP JUMPDEST SWAP3 SWAP2 POP POP JUMP JUMPDEST PUSH0 DUP1 PUSH1 0x40 DUP4 DUP6 SUB SLT ISZERO PUSH2 0x6F3 JUMPI PUSH2 0x6F2 PUSH2 0x349 JUMP JUMPDEST JUMPDEST PUSH0 DUP4 ADD CALLDATALOAD PUSH8 0xFFFFFFFFFFFFFFFF DUP2 GT ISZERO PUSH2 0x710 JUMPI PUSH2 0x70F PUSH2 0x34D JUMP JUMPDEST JUMPDEST PUSH2 0x71C DUP6 DUP3 DUP7 ADD PUSH2 0x686 JUMP JUMPDEST SWAP3 POP POP PUSH1 0x20 PUSH2 0x72D DUP6 DUP3 DUP7 ADD PUSH2 0x6C9 JUMP JUMPDEST SWAP2 POP POP SWAP3 POP SWAP3 SWAP1 POP JUMP JUMPDEST PUSH32 0x4E487B7100000000000000000000000000000000000000000000000000000000 PUSH0 MSTORE PUSH1 0x22 PUSH1 0x4 MSTORE PUSH1 0x24 PUSH0 REVERT JUMPDEST PUSH0 PUSH1 0x2 DUP3 DIV SWAP1 POP PUSH1 0x1 DUP3 AND DUP1 PUSH2 0x77B JUMPI PUSH1 0x7F DUP3 AND SWAP2 POP JUMPDEST PUSH1 0x20 DUP3 LT DUP2 SUB PUSH2 0x78E JUMPI PUSH2 0x78D PUSH2 0x737 JUMP JUMPDEST JUMPDEST POP SWAP2 SWAP1 POP JUMP JUMPDEST PUSH0 DUP2 SWAP1 POP DUP2 PUSH0 MSTORE PUSH1 0x20 PUSH0 KECCAK256 SWAP1 POP SWAP2 SWAP1 POP JUMP JUMPDEST PUSH0 PUSH1 0x20 PUSH1 0x1F DUP4 ADD DIV SWAP1 POP SWAP2 SWAP1 POP JUMP JUMPDEST PUSH0 DUP3 DUP3 SHL SWAP1 POP SWAP3 SWAP2 POP POP JUMP JUMPDEST PUSH0 PUSH1 0x8 DUP4 MUL PUSH2 0x7F0 PUSH32 0xFFFFFFFFFFFFFFFFFFFFFFFFFFFFFFFFFFFFFFFFFFFFFFFFFFFFFFFFFFFFFFFF DUP3 PUSH2 0x7B5 JUMP JUMPDEST PUSH2 0x7FA DUP7 DUP4 PUSH2 0x7B5 JUMP JUMPDEST SWAP6 POP DUP1 NOT DUP5 AND SWAP4 POP DUP1 DUP7 AND DUP5 OR SWAP3 POP POP POP SWAP4 SWAP3 POP POP POP JUMP JUMPDEST PUSH0 DUP2 SWAP1 POP SWAP2 SWAP1 POP JUMP JUMPDEST PUSH0 PUSH2 0x835 PUSH2 0x830 PUSH2 0x82B DUP5 PUSH2 0x446 JUMP JUMPDEST PUSH2 0x812 JUMP JUMPDEST PUSH2 0x446 JUMP JUMPDEST SWAP1 POP SWAP2 SWAP1 POP JUMP JUMPDEST PUSH0 DUP2 SWAP1 POP SWAP2 SWAP1 POP JUMP JUMPDEST PUSH2 0x84E DUP4 PUSH2 0x81B JUMP JUMPDEST PUSH2 0x862 PUSH2 0x85A DUP3 PUSH2 0x83C JUMP JUMPDEST DUP5 DUP5 SLOAD PUSH2 0x7C1 JUMP JUMPDEST DUP3 SSTORE POP POP POP POP JUMP JUMPDEST PUSH0 SWAP1 JUMP JUMPDEST PUSH2 0x876 PUSH2 0x86A JUMP JUMPDEST PUSH2 0x881 DUP2 DUP5 DUP5 PUSH2 0x845 JUMP JUMPDEST POP POP POP JUMP JUMPDEST JUMPDEST DUP2 DUP2 LT ISZERO PUSH2 0x8A4 JUMPI PUSH2 0x899 PUSH0 DUP3 PUSH2 0x86E JUMP JUMPDEST PUSH1 0x1 DUP2 ADD SWAP1 POP PUSH2 0x887 JUMP JUMPDEST POP POP JUMP JUMPDEST PUSH1 0x1F DUP3 GT ISZERO PUSH2 0x8E9 JUMPI PUSH2 0x8BA DUP2 PUSH2 0x794 JUMP JUMPDEST PUSH2 0x8C3 DUP5 PUSH2 0x7A6 JUMP JUMPDEST DUP2 ADD PUSH1 0x20 DUP6 LT ISZERO PUSH2 0x8D2 JUMPI DUP2 SWAP1 POP JUMPDEST PUSH2 0x8E6 PUSH2 0x8DE DUP6 PUSH2 0x7A6 JUMP JUMPDEST DUP4 ADD DUP3 PUSH2 0x886 JUMP JUMPDEST POP POP JUMPDEST POP POP POP JUMP JUMPDEST PUSH0 DUP3 DUP3 SHR SWAP1 POP SWAP3 SWAP2 POP POP JUMP JUMPDEST PUSH0 PUSH2 0x909 PUSH0 NOT DUP5 PUSH1 0x8 MUL PUSH2 0x8EE JUMP JUMPDEST NOT DUP1 DUP4 AND SWAP2 POP POP SWAP3 SWAP2 POP POP JUMP JUMPDEST PUSH0 PUSH2 0x921 DUP4 DUP4 PUSH2 0x8FA JUMP JUMPDEST SWAP2 POP DUP3 PUSH1 0x2 MUL DUP3 OR SWAP1 POP SWAP3 SWAP2 POP POP JUMP JUMPDEST PUSH2 0x93A DUP3 PUSH2 0x3D6 JUMP JUMPDEST PUSH8 0xFFFFFFFFFFFFFFFF DUP2 GT ISZERO PUSH2 0x953 JUMPI PUSH2 0x952 PUSH2 0x58F JUMP JUMPDEST JUMPDEST PUSH2 0x95D DUP3 SLOAD PUSH2 0x764 JUMP JUMPDEST PUSH2 0x968 DUP3 DUP3 DUP6 PUSH2 0x8A8 JUMP JUMPDEST PUSH0 PUSH1 0x20 SWAP1 POP PUSH1 0x1F DUP4 GT PUSH1 0x1 DUP2 EQ PUSH2 0x999 JUMPI PUSH0 DUP5 ISZERO PUSH2 0x987 JUMPI DUP3 DUP8 ADD MLOAD SWAP1 POP JUMPDEST PUSH2 0x991 DUP6 DUP3 PUSH2 0x916 JUMP JUMPDEST DUP7 SSTORE POP PUSH2 0x9F8 JUMP JUMPDEST PUSH1 0x1F NOT DUP5 AND PUSH2 0x9A7 DUP7 PUSH2 0x794 JUMP JUMPDEST PUSH0 JUMPDEST DUP3 DUP2 LT ISZERO PUSH2 0x9CE JUMPI DUP5 DUP10 ADD MLOAD DUP3 SSTORE PUSH1 0x1 DUP3 ADD SWAP2 POP PUSH1 0x20 DUP6 ADD SWAP5 POP PUSH1 0x20 DUP2 ADD SWAP1 POP PUSH2 0x9A9 JUMP JUMPDEST DUP7 DUP4 LT ISZERO PUSH2 0x9EB JUMPI DUP5 DUP10 ADD MLOAD PUSH2 0x9E7 PUSH1 0x1F DUP10 AND DUP3 PUSH2 0x8FA JUMP JUMPDEST DUP4 SSTORE POP JUMPDEST PUSH1 0x1 PUSH1 0x2 DUP9 MUL ADD DUP9 SSTORE POP POP POP JUMPDEST POP POP POP POP POP POP JUMP INVALID LOG2 PUSH5 0x6970667358 0x22 SLT KECCAK256 0xC3 PC 0xE9 0x23 0xDB 0xF7 0xE ADD EQ 0xEB PUSH18 0xFA8E4883649B9AB7097DE5BAFE9EEADD01D6 0x4D 0xBA 0x21 PUSH5 0x736F6C6343 STOP ADDMOD BYTE STOP CALLER "
				},
				"gasEstimates": {
					"creation": {
						"codeDepositCost": "522800",
						"executionCost": "554",
						"totalCost": "523354"
					},
					"external": {
						"getUser(address)": "infinite",
						"register(string,uint256)": "infinite",
						"users(address)": "infinite"
					}
				},
				"methodIdentifiers": {
					"getUser(address)": "6f77926b",
					"register(string,uint256)": "ea87152b",
					"users(address)": "a87430ba"
				}
			},
			"storageLayout": {
				"storage": [
					{
						"astId": 13,
						"contract": "contracts/structs.sol:UserManager",
						"label": "users",
						"offset": 0,
						"slot": "0",
						"type": "t_mapping(t_address,t_struct(User)8_storage)"
					}
				],
				"types": {
					"t_address": {
						"encoding": "inplace",
						"label": "address",
						"numberOfBytes": "20"
					},
					"t_bool": {
						"encoding": "inplace",
						"label": "bool",
						"numberOfBytes": "1"
					},
					"t_mapping(t_address,t_struct(User)8_storage)": {
						"encoding": "mapping",
						"key": "t_address",
						"label": "mapping(address => struct UserManager.User)",
						"numberOfBytes": "32",
						"value": "t_struct(User)8_storage"
					},
					"t_string_storage": {
						"encoding": "bytes",
						"label": "string",
						"numberOfBytes": "32"
					},
					"t_struct(User)8_storage": {
						"encoding": "inplace",
						"label": "struct UserManager.User",
						"members": [
							{
								"astId": 3,
								"contract": "contracts/structs.sol:UserManager",
								"label": "name",
								"offset": 0,
								"slot": "0",
								"type": "t_string_storage"
							},
							{
								"astId": 5,
								"contract": "contracts/structs.sol:UserManager",
								"label": "age",
								"offset": 0,
								"slot": "1",
								"type": "t_uint256"
							},
							{
								"astId": 7,
								"contract": "contracts/structs.sol:UserManager",
								"label": "isActive",
								"offset": 0,
								"slot": "2",
								"type": "t_bool"
							}
						],
						"numberOfBytes": "96"
					},
					"t_uint256": {
						"encoding": "inplace",
						"label": "uint256",
						"numberOfBytes": "32"
					}
				}
			},
			"userdoc": {
				"kind": "user",
				"methods": {},
				"version": 1
			}
		}
	}
}