{
	"contracts/simplepayable.sol": {
		"SimplePayable": {
			"abi": [
				{
					"inputs": [],
					"stateMutability": "nonpayable",
					"type": "constructor"
				},
				{
					"stateMutability": "payable",
					"type": "fallback"
				},
				{
					"inputs": [],
					"name": "getBalance",
					"outputs": [
						{
							"internalType": "uint256",
							"name": "",
							"type": "uint256"
						}
					],
					"stateMutability": "view",
					"type": "function"
				},
				{
					"inputs": [],
					"name": "owner",
					"outputs": [
						{
							"internalType": "address",
							"name": "",
							"type": "address"
						}
					],
					"stateMutability": "view",
					"type": "function"
				},
				{
					"inputs": [],
					"name": "withdrawAll",
					"outputs": [],
					"stateMutability": "nonpayable",
					"type": "function"
				},
				{
					"inputs": [
						{
							"internalType": "address payable",
							"name": "_recipient",
							"type": "address"
						},
						{
							"internalType": "uint256",
							"name": "_amount",
							"type": "uint256"
						}
					],
					"name": "withdrawTo",
					"outputs": [],
					"stateMutability": "nonpayable",
					"type": "function"
				},
				{
					"stateMutability": "payable",
					"type": "receive"
				}
			],
			"devdoc": {
				"kind": "dev",
				"methods": {},
				"version": 1
			},
			"evm": {
				"assembly": "    /* \"contracts/simplepayable.sol\":63:1373  contract SimplePayable {... */\n  mstore(0x40, 0x80)\n    /* \"contracts/simplepayable.sol\":184:235  constructor() {... */\n  callvalue\n  dup1\n  iszero\n  tag_1\n  jumpi\n  0x00\n  dup1\n  revert\ntag_1:\n  pop\n    /* \"contracts/simplepayable.sol\":217:227  msg.sender */\n  caller\n    /* \"contracts/simplepayable.sol\":209:214  owner */\n  0x00\n  dup1\n    /* \"contracts/simplepayable.sol\":209:227  owner = msg.sender */\n  0x0100\n  exp\n  dup2\n  sload\n  dup2\n  0xffffffffffffffffffffffffffffffffffffffff\n  mul\n  not\n  and\n  swap1\n  dup4\n  0xffffffffffffffffffffffffffffffffffffffff\n  and\n  mul\n  or\n  swap1\n  sstore\n  pop\n    /* \"contracts/simplepayable.sol\":63:1373  contract SimplePayable {... */\n  dataSize(sub_0)\n  dup1\n  dataOffset(sub_0)\n  0x00\n  codecopy\n  0x00\n  return\nstop\n\nsub_0: assembly {\n        /* \"contracts/simplepayable.sol\":63:1373  contract SimplePayable {... */\n      mstore(0x40, 0x80)\n      jumpi(tag_1, lt(calldatasize, 0x04))\n      shr(0xe0, calldataload(0x00))\n      dup1\n      0x12065fe0\n      eq\n      tag_3\n      jumpi\n      dup1\n      0x205c2878\n      eq\n      tag_4\n      jumpi\n      dup1\n      0x853828b6\n      eq\n      tag_5\n      jumpi\n      dup1\n      0x8da5cb5b\n      eq\n      tag_6\n      jumpi\n      jump(tag_2)\n    tag_1:\n      jumpi(tag_2, calldatasize)\n      stop\n    tag_2:\n      stop\n        /* \"contracts/simplepayable.sol\":679:775  function getBalance() public view returns (uint) {... */\n    tag_3:\n      callvalue\n      dup1\n      iszero\n      tag_11\n      jumpi\n      0x00\n      dup1\n      revert\n    tag_11:\n      pop\n      tag_12\n      tag_13\n      jump\t// in\n    tag_12:\n      mload(0x40)\n      tag_14\n      swap2\n      swap1\n      tag_15\n      jump\t// in\n    tag_14:\n      mload(0x40)\n      dup1\n      swap2\n      sub\n      swap1\n      return\n        /* \"contracts/simplepayable.sol\":1002:1370  function withdrawTo(address payable _recipient, uint _amount) public onlyOwner {... */\n    tag_4:\n      callvalue\n      dup1\n      iszero\n      tag_16\n      jumpi\n      0x00\n      dup1\n      revert\n    tag_16:\n      pop\n      tag_17\n      0x04\n      dup1\n      calldatasize\n      sub\n      dup2\n      add\n      swap1\n      tag_18\n      swap2\n      swap1\n      tag_19\n      jump\t// in\n    tag_18:\n      tag_20\n      jump\t// in\n    tag_17:\n      stop\n        /* \"contracts/simplepayable.sol\":822:927  function withdrawAll() public onlyOwner {... */\n    tag_5:\n      callvalue\n      dup1\n      iszero\n      tag_21\n      jumpi\n      0x00\n      dup1\n      revert\n    tag_21:\n      pop\n      tag_22\n      tag_23\n      jump\t// in\n    tag_22:\n      stop\n        /* \"contracts/simplepayable.sol\":93:113  address public owner */\n    tag_6:\n      callvalue\n      dup1\n      iszero\n      tag_24\n      jumpi\n      0x00\n      dup1\n      revert\n    tag_24:\n      pop\n      tag_25\n      tag_26\n      jump\t// in\n    tag_25:\n      mload(0x40)\n      tag_27\n      swap2\n      swap1\n      tag_28\n      jump\t// in\n    tag_27:\n      mload(0x40)\n      dup1\n      swap2\n      sub\n      swap1\n      return\n        /* \"contracts/simplepayable.sol\":679:775  function getBalance() public view returns (uint) {... */\n    tag_13:\n        /* \"contracts/simplepayable.sol\":722:726  uint */\n      0x00\n        /* \"contracts/simplepayable.sol\":746:767  address(this).balance */\n      selfbalance\n        /* \"contracts/simplepayable.sol\":739:767  return address(this).balance */\n      swap1\n      pop\n        /* \"contracts/simplepayable.sol\":679:775  function getBalance() public view returns (uint) {... */\n      swap1\n      jump\t// out\n        /* \"contracts/simplepayable.sol\":1002:1370  function withdrawTo(address payable _recipient, uint _amount) public onlyOwner {... */\n    tag_20:\n        /* \"contracts/simplepayable.sol\":410:415  owner */\n      0x00\n      dup1\n      sload\n      swap1\n      0x0100\n      exp\n      swap1\n      div\n      0xffffffffffffffffffffffffffffffffffffffff\n      and\n        /* \"contracts/simplepayable.sol\":396:415  msg.sender == owner */\n      0xffffffffffffffffffffffffffffffffffffffff\n      and\n        /* \"contracts/simplepayable.sol\":396:406  msg.sender */\n      caller\n        /* \"contracts/simplepayable.sol\":396:415  msg.sender == owner */\n      0xffffffffffffffffffffffffffffffffffffffff\n      and\n      eq\n        /* \"contracts/simplepayable.sol\":388:450  require(msg.sender == owner, \"You Are Not the contract owner\") */\n      tag_31\n      jumpi\n      mload(0x40)\n      0x08c379a000000000000000000000000000000000000000000000000000000000\n      dup2\n      mstore\n      0x04\n      add\n      tag_32\n      swap1\n      tag_33\n      jump\t// in\n    tag_32:\n      mload(0x40)\n      dup1\n      swap2\n      sub\n      swap1\n      revert\n    tag_31:\n        /* \"contracts/simplepayable.sol\":1122:1123  0 */\n      0x00\n        /* \"contracts/simplepayable.sol\":1100:1124  _recipient != address(0) */\n      0xffffffffffffffffffffffffffffffffffffffff\n      and\n        /* \"contracts/simplepayable.sol\":1100:1110  _recipient */\n      dup3\n        /* \"contracts/simplepayable.sol\":1100:1124  _recipient != address(0) */\n      0xffffffffffffffffffffffffffffffffffffffff\n      and\n      sub\n        /* \"contracts/simplepayable.sol\":1092:1154  require(_recipient != address(0), \"Invalid recipient address\") */\n      tag_35\n      jumpi\n      mload(0x40)\n      0x08c379a000000000000000000000000000000000000000000000000000000000\n      dup2\n      mstore\n      0x04\n      add\n      tag_36\n      swap1\n      tag_37\n      jump\t// in\n    tag_36:\n      mload(0x40)\n      dup1\n      swap2\n      sub\n      swap1\n      revert\n    tag_35:\n        /* \"contracts/simplepayable.sol\":1183:1184  0 */\n      0x00\n        /* \"contracts/simplepayable.sol\":1173:1180  _amount */\n      dup2\n        /* \"contracts/simplepayable.sol\":1173:1184  _amount > 0 */\n      gt\n        /* \"contracts/simplepayable.sol\":1165:1236  require(_amount > 0, \"Amount to be withdraw must be greater than nill\") */\n      tag_38\n      jumpi\n      mload(0x40)\n      0x08c379a000000000000000000000000000000000000000000000000000000000\n      dup2\n      mstore\n      0x04\n      add\n      tag_39\n      swap1\n      tag_40\n      jump\t// in\n    tag_39:\n      mload(0x40)\n      dup1\n      swap2\n      sub\n      swap1\n      revert\n    tag_38:\n        /* \"contracts/simplepayable.sol\":1280:1287  _amount */\n      dup1\n        /* \"contracts/simplepayable.sol\":1255:1276  address(this).balance */\n      selfbalance\n        /* \"contracts/simplepayable.sol\":1255:1287  address(this).balance >= _amount */\n      lt\n      iszero\n        /* \"contracts/simplepayable.sol\":1247:1321  require(address(this).balance >= _amount, \"Insufficient contract balance\") */\n      tag_41\n      jumpi\n      mload(0x40)\n      0x08c379a000000000000000000000000000000000000000000000000000000000\n      dup2\n      mstore\n      0x04\n      add\n      tag_42\n      swap1\n      tag_43\n      jump\t// in\n    tag_42:\n      mload(0x40)\n      dup1\n      swap2\n      sub\n      swap1\n      revert\n    tag_41:\n        /* \"contracts/simplepayable.sol\":1334:1344  _recipient */\n      dup2\n        /* \"contracts/simplepayable.sol\":1334:1353  _recipient.transfer */\n      0xffffffffffffffffffffffffffffffffffffffff\n      and\n        /* \"contracts/simplepayable.sol\":1334:1362  _recipient.transfer(_amount) */\n      0x08fc\n        /* \"contracts/simplepayable.sol\":1354:1361  _amount */\n      dup3\n        /* \"contracts/simplepayable.sol\":1334:1362  _recipient.transfer(_amount) */\n      swap1\n      dup2\n      iszero\n      mul\n      swap1\n      mload(0x40)\n      0x00\n      mload(0x40)\n      dup1\n      dup4\n      sub\n      dup2\n      dup6\n      dup9\n      dup9\n      call\n      swap4\n      pop\n      pop\n      pop\n      pop\n      iszero\n      dup1\n      iszero\n      tag_45\n      jumpi\n      returndatasize\n      0x00\n      dup1\n      returndatacopy\n      revert(0x00, returndatasize)\n    tag_45:\n      pop\n        /* \"contracts/simplepayable.sol\":1002:1370  function withdrawTo(address payable _recipient, uint _amount) public onlyOwner {... */\n      pop\n      pop\n      jump\t// out\n        /* \"contracts/simplepayable.sol\":822:927  function withdrawAll() public onlyOwner {... */\n    tag_23:\n        /* \"contracts/simplepayable.sol\":410:415  owner */\n      0x00\n      dup1\n      sload\n      swap1\n      0x0100\n      exp\n      swap1\n      div\n      0xffffffffffffffffffffffffffffffffffffffff\n      and\n        /* \"contracts/simplepayable.sol\":396:415  msg.sender == owner */\n      0xffffffffffffffffffffffffffffffffffffffff\n      and\n        /* \"contracts/simplepayable.sol\":396:406  msg.sender */\n      caller\n        /* \"contracts/simplepayable.sol\":396:415  msg.sender == owner */\n      0xffffffffffffffffffffffffffffffffffffffff\n      and\n      eq\n        /* \"contracts/simplepayable.sol\":388:450  require(msg.sender == owner, \"You Are Not the contract owner\") */\n      tag_47\n      jumpi\n      mload(0x40)\n      0x08c379a000000000000000000000000000000000000000000000000000000000\n      dup2\n      mstore\n      0x04\n      add\n      tag_48\n      swap1\n      tag_33\n      jump\t// in\n    tag_48:\n      mload(0x40)\n      dup1\n      swap2\n      sub\n      swap1\n      revert\n    tag_47:\n        /* \"contracts/simplepayable.sol\":881:886  owner */\n      0x00\n      dup1\n      sload\n      swap1\n      0x0100\n      exp\n      swap1\n      div\n      0xffffffffffffffffffffffffffffffffffffffff\n      and\n        /* \"contracts/simplepayable.sol\":873:896  payable(owner).transfer */\n      0xffffffffffffffffffffffffffffffffffffffff\n      and\n        /* \"contracts/simplepayable.sol\":873:919  payable(owner).transfer(address(this).balance) */\n      0x08fc\n        /* \"contracts/simplepayable.sol\":897:918  address(this).balance */\n      selfbalance\n        /* \"contracts/simplepayable.sol\":873:919  payable(owner).transfer(address(this).balance) */\n      swap1\n      dup2\n      iszero\n      mul\n      swap1\n      mload(0x40)\n      0x00\n      mload(0x40)\n      dup1\n      dup4\n      sub\n      dup2\n      dup6\n      dup9\n      dup9\n      call\n      swap4\n      pop\n      pop\n      pop\n      pop\n      iszero\n      dup1\n      iszero\n      tag_51\n      jumpi\n      returndatasize\n      0x00\n      dup1\n      returndatacopy\n      revert(0x00, returndatasize)\n    tag_51:\n      pop\n        /* \"contracts/simplepayable.sol\":822:927  function withdrawAll() public onlyOwner {... */\n      jump\t// out\n        /* \"contracts/simplepayable.sol\":93:113  address public owner */\n    tag_26:\n      0x00\n      dup1\n      sload\n      swap1\n      0x0100\n      exp\n      swap1\n      div\n      0xffffffffffffffffffffffffffffffffffffffff\n      and\n      dup2\n      jump\t// out\n        /* \"#utility.yul\":7:84   */\n    tag_52:\n        /* \"#utility.yul\":44:51   */\n      0x00\n        /* \"#utility.yul\":73:78   */\n      dup2\n        /* \"#utility.yul\":62:78   */\n      swap1\n      pop\n        /* \"#utility.yul\":7:84   */\n      swap2\n      swap1\n      pop\n      jump\t// out\n        /* \"#utility.yul\":90:208   */\n    tag_53:\n        /* \"#utility.yul\":177:201   */\n      tag_77\n        /* \"#utility.yul\":195:200   */\n      dup2\n        /* \"#utility.yul\":177:201   */\n      tag_52\n      jump\t// in\n    tag_77:\n        /* \"#utility.yul\":172:175   */\n      dup3\n        /* \"#utility.yul\":165:202   */\n      mstore\n        /* \"#utility.yul\":90:208   */\n      pop\n      pop\n      jump\t// out\n        /* \"#utility.yul\":214:436   */\n    tag_15:\n        /* \"#utility.yul\":307:311   */\n      0x00\n        /* \"#utility.yul\":345:347   */\n      0x20\n        /* \"#utility.yul\":334:343   */\n      dup3\n        /* \"#utility.yul\":330:348   */\n      add\n        /* \"#utility.yul\":322:348   */\n      swap1\n      pop\n        /* \"#utility.yul\":358:429   */\n      tag_79\n        /* \"#utility.yul\":426:427   */\n      0x00\n        /* \"#utility.yul\":415:424   */\n      dup4\n        /* \"#utility.yul\":411:428   */\n      add\n        /* \"#utility.yul\":402:408   */\n      dup5\n        /* \"#utility.yul\":358:429   */\n      tag_53\n      jump\t// in\n    tag_79:\n        /* \"#utility.yul\":214:436   */\n      swap3\n      swap2\n      pop\n      pop\n      jump\t// out\n        /* \"#utility.yul\":523:640   */\n    tag_55:\n        /* \"#utility.yul\":632:633   */\n      0x00\n        /* \"#utility.yul\":629:630   */\n      dup1\n        /* \"#utility.yul\":622:634   */\n      revert\n        /* \"#utility.yul\":769:895   */\n    tag_57:\n        /* \"#utility.yul\":806:813   */\n      0x00\n        /* \"#utility.yul\":846:888   */\n      0xffffffffffffffffffffffffffffffffffffffff\n        /* \"#utility.yul\":839:844   */\n      dup3\n        /* \"#utility.yul\":835:889   */\n      and\n        /* \"#utility.yul\":824:889   */\n      swap1\n      pop\n        /* \"#utility.yul\":769:895   */\n      swap2\n      swap1\n      pop\n      jump\t// out\n        /* \"#utility.yul\":901:1005   */\n    tag_58:\n        /* \"#utility.yul\":946:953   */\n      0x00\n        /* \"#utility.yul\":975:999   */\n      tag_85\n        /* \"#utility.yul\":993:998   */\n      dup3\n        /* \"#utility.yul\":975:999   */\n      tag_57\n      jump\t// in\n    tag_85:\n        /* \"#utility.yul\":964:999   */\n      swap1\n      pop\n        /* \"#utility.yul\":901:1005   */\n      swap2\n      swap1\n      pop\n      jump\t// out\n        /* \"#utility.yul\":1011:1149   */\n    tag_59:\n        /* \"#utility.yul\":1092:1124   */\n      tag_87\n        /* \"#utility.yul\":1118:1123   */\n      dup2\n        /* \"#utility.yul\":1092:1124   */\n      tag_58\n      jump\t// in\n    tag_87:\n        /* \"#utility.yul\":1085:1090   */\n      dup2\n        /* \"#utility.yul\":1082:1125   */\n      eq\n        /* \"#utility.yul\":1072:1143   */\n      tag_88\n      jumpi\n        /* \"#utility.yul\":1139:1140   */\n      0x00\n        /* \"#utility.yul\":1136:1137   */\n      dup1\n        /* \"#utility.yul\":1129:1141   */\n      revert\n        /* \"#utility.yul\":1072:1143   */\n    tag_88:\n        /* \"#utility.yul\":1011:1149   */\n      pop\n      jump\t// out\n        /* \"#utility.yul\":1155:1310   */\n    tag_60:\n        /* \"#utility.yul\":1209:1214   */\n      0x00\n        /* \"#utility.yul\":1247:1253   */\n      dup2\n        /* \"#utility.yul\":1234:1254   */\n      calldataload\n        /* \"#utility.yul\":1225:1254   */\n      swap1\n      pop\n        /* \"#utility.yul\":1263:1304   */\n      tag_90\n        /* \"#utility.yul\":1298:1303   */\n      dup2\n        /* \"#utility.yul\":1263:1304   */\n      tag_59\n      jump\t// in\n    tag_90:\n        /* \"#utility.yul\":1155:1310   */\n      swap3\n      swap2\n      pop\n      pop\n      jump\t// out\n        /* \"#utility.yul\":1316:1438   */\n    tag_61:\n        /* \"#utility.yul\":1389:1413   */\n      tag_92\n        /* \"#utility.yul\":1407:1412   */\n      dup2\n        /* \"#utility.yul\":1389:1413   */\n      tag_52\n      jump\t// in\n    tag_92:\n        /* \"#utility.yul\":1382:1387   */\n      dup2\n        /* \"#utility.yul\":1379:1414   */\n      eq\n        /* \"#utility.yul\":1369:1432   */\n      tag_93\n      jumpi\n        /* \"#utility.yul\":1428:1429   */\n      0x00\n        /* \"#utility.yul\":1425:1426   */\n      dup1\n        /* \"#utility.yul\":1418:1430   */\n      revert\n        /* \"#utility.yul\":1369:1432   */\n    tag_93:\n        /* \"#utility.yul\":1316:1438   */\n      pop\n      jump\t// out\n        /* \"#utility.yul\":1444:1583   */\n    tag_62:\n        /* \"#utility.yul\":1490:1495   */\n      0x00\n        /* \"#utility.yul\":1528:1534   */\n      dup2\n        /* \"#utility.yul\":1515:1535   */\n      calldataload\n        /* \"#utility.yul\":1506:1535   */\n      swap1\n      pop\n        /* \"#utility.yul\":1544:1577   */\n      tag_95\n        /* \"#utility.yul\":1571:1576   */\n      dup2\n        /* \"#utility.yul\":1544:1577   */\n      tag_61\n      jump\t// in\n    tag_95:\n        /* \"#utility.yul\":1444:1583   */\n      swap3\n      swap2\n      pop\n      pop\n      jump\t// out\n        /* \"#utility.yul\":1589:2079   */\n    tag_19:\n        /* \"#utility.yul\":1665:1671   */\n      0x00\n        /* \"#utility.yul\":1673:1679   */\n      dup1\n        /* \"#utility.yul\":1722:1724   */\n      0x40\n        /* \"#utility.yul\":1710:1719   */\n      dup4\n        /* \"#utility.yul\":1701:1708   */\n      dup6\n        /* \"#utility.yul\":1697:1720   */\n      sub\n        /* \"#utility.yul\":1693:1725   */\n      slt\n        /* \"#utility.yul\":1690:1809   */\n      iszero\n      tag_97\n      jumpi\n        /* \"#utility.yul\":1728:1807   */\n      tag_98\n      tag_55\n      jump\t// in\n    tag_98:\n        /* \"#utility.yul\":1690:1809   */\n    tag_97:\n        /* \"#utility.yul\":1848:1849   */\n      0x00\n        /* \"#utility.yul\":1873:1934   */\n      tag_99\n        /* \"#utility.yul\":1926:1933   */\n      dup6\n        /* \"#utility.yul\":1917:1923   */\n      dup3\n        /* \"#utility.yul\":1906:1915   */\n      dup7\n        /* \"#utility.yul\":1902:1924   */\n      add\n        /* \"#utility.yul\":1873:1934   */\n      tag_60\n      jump\t// in\n    tag_99:\n        /* \"#utility.yul\":1863:1934   */\n      swap3\n      pop\n        /* \"#utility.yul\":1819:1944   */\n      pop\n        /* \"#utility.yul\":1983:1985   */\n      0x20\n        /* \"#utility.yul\":2009:2062   */\n      tag_100\n        /* \"#utility.yul\":2054:2061   */\n      dup6\n        /* \"#utility.yul\":2045:2051   */\n      dup3\n        /* \"#utility.yul\":2034:2043   */\n      dup7\n        /* \"#utility.yul\":2030:2052   */\n      add\n        /* \"#utility.yul\":2009:2062   */\n      tag_62\n      jump\t// in\n    tag_100:\n        /* \"#utility.yul\":1999:2062   */\n      swap2\n      pop\n        /* \"#utility.yul\":1954:2072   */\n      pop\n        /* \"#utility.yul\":1589:2079   */\n      swap3\n      pop\n      swap3\n      swap1\n      pop\n      jump\t// out\n        /* \"#utility.yul\":2085:2181   */\n    tag_63:\n        /* \"#utility.yul\":2122:2129   */\n      0x00\n        /* \"#utility.yul\":2151:2175   */\n      tag_102\n        /* \"#utility.yul\":2169:2174   */\n      dup3\n        /* \"#utility.yul\":2151:2175   */\n      tag_57\n      jump\t// in\n    tag_102:\n        /* \"#utility.yul\":2140:2175   */\n      swap1\n      pop\n        /* \"#utility.yul\":2085:2181   */\n      swap2\n      swap1\n      pop\n      jump\t// out\n        /* \"#utility.yul\":2187:2305   */\n    tag_64:\n        /* \"#utility.yul\":2274:2298   */\n      tag_104\n        /* \"#utility.yul\":2292:2297   */\n      dup2\n        /* \"#utility.yul\":2274:2298   */\n      tag_63\n      jump\t// in\n    tag_104:\n        /* \"#utility.yul\":2269:2272   */\n      dup3\n        /* \"#utility.yul\":2262:2299   */\n      mstore\n        /* \"#utility.yul\":2187:2305   */\n      pop\n      pop\n      jump\t// out\n        /* \"#utility.yul\":2311:2533   */\n    tag_28:\n        /* \"#utility.yul\":2404:2408   */\n      0x00\n        /* \"#utility.yul\":2442:2444   */\n      0x20\n        /* \"#utility.yul\":2431:2440   */\n      dup3\n        /* \"#utility.yul\":2427:2445   */\n      add\n        /* \"#utility.yul\":2419:2445   */\n      swap1\n      pop\n        /* \"#utility.yul\":2455:2526   */\n      tag_106\n        /* \"#utility.yul\":2523:2524   */\n      0x00\n        /* \"#utility.yul\":2512:2521   */\n      dup4\n        /* \"#utility.yul\":2508:2525   */\n      add\n        /* \"#utility.yul\":2499:2505   */\n      dup5\n        /* \"#utility.yul\":2455:2526   */\n      tag_64\n      jump\t// in\n    tag_106:\n        /* \"#utility.yul\":2311:2533   */\n      swap3\n      swap2\n      pop\n      pop\n      jump\t// out\n        /* \"#utility.yul\":2539:2708   */\n    tag_65:\n        /* \"#utility.yul\":2623:2634   */\n      0x00\n        /* \"#utility.yul\":2657:2663   */\n      dup3\n        /* \"#utility.yul\":2652:2655   */\n      dup3\n        /* \"#utility.yul\":2645:2664   */\n      mstore\n        /* \"#utility.yul\":2697:2701   */\n      0x20\n        /* \"#utility.yul\":2692:2695   */\n      dup3\n        /* \"#utility.yul\":2688:2702   */\n      add\n        /* \"#utility.yul\":2673:2702   */\n      swap1\n      pop\n        /* \"#utility.yul\":2539:2708   */\n      swap3\n      swap2\n      pop\n      pop\n      jump\t// out\n        /* \"#utility.yul\":2714:2894   */\n    tag_66:\n        /* \"#utility.yul\":2854:2886   */\n      0x596f7520417265204e6f742074686520636f6e7472616374206f776e65720000\n        /* \"#utility.yul\":2850:2851   */\n      0x00\n        /* \"#utility.yul\":2842:2848   */\n      dup3\n        /* \"#utility.yul\":2838:2852   */\n      add\n        /* \"#utility.yul\":2831:2887   */\n      mstore\n        /* \"#utility.yul\":2714:2894   */\n      pop\n      jump\t// out\n        /* \"#utility.yul\":2900:3266   */\n    tag_67:\n        /* \"#utility.yul\":3042:3045   */\n      0x00\n        /* \"#utility.yul\":3063:3130   */\n      tag_110\n        /* \"#utility.yul\":3127:3129   */\n      0x1e\n        /* \"#utility.yul\":3122:3125   */\n      dup4\n        /* \"#utility.yul\":3063:3130   */\n      tag_65\n      jump\t// in\n    tag_110:\n        /* \"#utility.yul\":3056:3130   */\n      swap2\n      pop\n        /* \"#utility.yul\":3139:3232   */\n      tag_111\n        /* \"#utility.yul\":3228:3231   */\n      dup3\n        /* \"#utility.yul\":3139:3232   */\n      tag_66\n      jump\t// in\n    tag_111:\n        /* \"#utility.yul\":3257:3259   */\n      0x20\n        /* \"#utility.yul\":3252:3255   */\n      dup3\n        /* \"#utility.yul\":3248:3260   */\n      add\n        /* \"#utility.yul\":3241:3260   */\n      swap1\n      pop\n        /* \"#utility.yul\":2900:3266   */\n      swap2\n      swap1\n      pop\n      jump\t// out\n        /* \"#utility.yul\":3272:3691   */\n    tag_33:\n        /* \"#utility.yul\":3438:3442   */\n      0x00\n        /* \"#utility.yul\":3476:3478   */\n      0x20\n        /* \"#utility.yul\":3465:3474   */\n      dup3\n        /* \"#utility.yul\":3461:3479   */\n      add\n        /* \"#utility.yul\":3453:3479   */\n      swap1\n      pop\n        /* \"#utility.yul\":3525:3534   */\n      dup2\n        /* \"#utility.yul\":3519:3523   */\n      dup2\n        /* \"#utility.yul\":3515:3535   */\n      sub\n        /* \"#utility.yul\":3511:3512   */\n      0x00\n        /* \"#utility.yul\":3500:3509   */\n      dup4\n        /* \"#utility.yul\":3496:3513   */\n      add\n        /* \"#utility.yul\":3489:3536   */\n      mstore\n        /* \"#utility.yul\":3553:3684   */\n      tag_113\n        /* \"#utility.yul\":3679:3683   */\n      dup2\n        /* \"#utility.yul\":3553:3684   */\n      tag_67\n      jump\t// in\n    tag_113:\n        /* \"#utility.yul\":3545:3684   */\n      swap1\n      pop\n        /* \"#utility.yul\":3272:3691   */\n      swap2\n      swap1\n      pop\n      jump\t// out\n        /* \"#utility.yul\":3697:3872   */\n    tag_68:\n        /* \"#utility.yul\":3837:3864   */\n      0x496e76616c696420726563697069656e74206164647265737300000000000000\n        /* \"#utility.yul\":3833:3834   */\n      0x00\n        /* \"#utility.yul\":3825:3831   */\n      dup3\n        /* \"#utility.yul\":3821:3835   */\n      add\n        /* \"#utility.yul\":3814:3865   */\n      mstore\n        /* \"#utility.yul\":3697:3872   */\n      pop\n      jump\t// out\n        /* \"#utility.yul\":3878:4244   */\n    tag_69:\n        /* \"#utility.yul\":4020:4023   */\n      0x00\n        /* \"#utility.yul\":4041:4108   */\n      tag_116\n        /* \"#utility.yul\":4105:4107   */\n      0x19\n        /* \"#utility.yul\":4100:4103   */\n      dup4\n        /* \"#utility.yul\":4041:4108   */\n      tag_65\n      jump\t// in\n    tag_116:\n        /* \"#utility.yul\":4034:4108   */\n      swap2\n      pop\n        /* \"#utility.yul\":4117:4210   */\n      tag_117\n        /* \"#utility.yul\":4206:4209   */\n      dup3\n        /* \"#utility.yul\":4117:4210   */\n      tag_68\n      jump\t// in\n    tag_117:\n        /* \"#utility.yul\":4235:4237   */\n      0x20\n        /* \"#utility.yul\":4230:4233   */\n      dup3\n        /* \"#utility.yul\":4226:4238   */\n      add\n        /* \"#utility.yul\":4219:4238   */\n      swap1\n      pop\n        /* \"#utility.yul\":3878:4244   */\n      swap2\n      swap1\n      pop\n      jump\t// out\n        /* \"#utility.yul\":4250:4669   */\n    tag_37:\n        /* \"#utility.yul\":4416:4420   */\n      0x00\n        /* \"#utility.yul\":4454:4456   */\n      0x20\n        /* \"#utility.yul\":4443:4452   */\n      dup3\n        /* \"#utility.yul\":4439:4457   */\n      add\n        /* \"#utility.yul\":4431:4457   */\n      swap1\n      pop\n        /* \"#utility.yul\":4503:4512   */\n      dup2\n        /* \"#utility.yul\":4497:4501   */\n      dup2\n        /* \"#utility.yul\":4493:4513   */\n      sub\n        /* \"#utility.yul\":4489:4490   */\n      0x00\n        /* \"#utility.yul\":4478:4487   */\n      dup4\n        /* \"#utility.yul\":4474:4491   */\n      add\n        /* \"#utility.yul\":4467:4514   */\n      mstore\n        /* \"#utility.yul\":4531:4662   */\n      tag_119\n        /* \"#utility.yul\":4657:4661   */\n      dup2\n        /* \"#utility.yul\":4531:4662   */\n      tag_69\n      jump\t// in\n    tag_119:\n        /* \"#utility.yul\":4523:4662   */\n      swap1\n      pop\n        /* \"#utility.yul\":4250:4669   */\n      swap2\n      swap1\n      pop\n      jump\t// out\n        /* \"#utility.yul\":4675:4909   */\n    tag_70:\n        /* \"#utility.yul\":4815:4849   */\n      0x416d6f756e7420746f206265207769746864726177206d757374206265206772\n        /* \"#utility.yul\":4811:4812   */\n      0x00\n        /* \"#utility.yul\":4803:4809   */\n      dup3\n        /* \"#utility.yul\":4799:4813   */\n      add\n        /* \"#utility.yul\":4792:4850   */\n      mstore\n        /* \"#utility.yul\":4884:4901   */\n      0x6561746572207468616e206e696c6c0000000000000000000000000000000000\n        /* \"#utility.yul\":4879:4881   */\n      0x20\n        /* \"#utility.yul\":4871:4877   */\n      dup3\n        /* \"#utility.yul\":4867:4882   */\n      add\n        /* \"#utility.yul\":4860:4902   */\n      mstore\n        /* \"#utility.yul\":4675:4909   */\n      pop\n      jump\t// out\n        /* \"#utility.yul\":4915:5281   */\n    tag_71:\n        /* \"#utility.yul\":5057:5060   */\n      0x00\n        /* \"#utility.yul\":5078:5145   */\n      tag_122\n        /* \"#utility.yul\":5142:5144   */\n      0x2f\n        /* \"#utility.yul\":5137:5140   */\n      dup4\n        /* \"#utility.yul\":5078:5145   */\n      tag_65\n      jump\t// in\n    tag_122:\n        /* \"#utility.yul\":5071:5145   */\n      swap2\n      pop\n        /* \"#utility.yul\":5154:5247   */\n      tag_123\n        /* \"#utility.yul\":5243:5246   */\n      dup3\n        /* \"#utility.yul\":5154:5247   */\n      tag_70\n      jump\t// in\n    tag_123:\n        /* \"#utility.yul\":5272:5274   */\n      0x40\n        /* \"#utility.yul\":5267:5270   */\n      dup3\n        /* \"#utility.yul\":5263:5275   */\n      add\n        /* \"#utility.yul\":5256:5275   */\n      swap1\n      pop\n        /* \"#utility.yul\":4915:5281   */\n      swap2\n      swap1\n      pop\n      jump\t// out\n        /* \"#utility.yul\":5287:5706   */\n    tag_40:\n        /* \"#utility.yul\":5453:5457   */\n      0x00\n        /* \"#utility.yul\":5491:5493   */\n      0x20\n        /* \"#utility.yul\":5480:5489   */\n      dup3\n        /* \"#utility.yul\":5476:5494   */\n      add\n        /* \"#utility.yul\":5468:5494   */\n      swap1\n      pop\n        /* \"#utility.yul\":5540:5549   */\n      dup2\n        /* \"#utility.yul\":5534:5538   */\n      dup2\n        /* \"#utility.yul\":5530:5550   */\n      sub\n        /* \"#utility.yul\":5526:5527   */\n      0x00\n        /* \"#utility.yul\":5515:5524   */\n      dup4\n        /* \"#utility.yul\":5511:5528   */\n      add\n        /* \"#utility.yul\":5504:5551   */\n      mstore\n        /* \"#utility.yul\":5568:5699   */\n      tag_125\n        /* \"#utility.yul\":5694:5698   */\n      dup2\n        /* \"#utility.yul\":5568:5699   */\n      tag_71\n      jump\t// in\n    tag_125:\n        /* \"#utility.yul\":5560:5699   */\n      swap1\n      pop\n        /* \"#utility.yul\":5287:5706   */\n      swap2\n      swap1\n      pop\n      jump\t// out\n        /* \"#utility.yul\":5712:5891   */\n    tag_72:\n        /* \"#utility.yul\":5852:5883   */\n      0x496e73756666696369656e7420636f6e74726163742062616c616e6365000000\n        /* \"#utility.yul\":5848:5849   */\n      0x00\n        /* \"#utility.yul\":5840:5846   */\n      dup3\n        /* \"#utility.yul\":5836:5850   */\n      add\n        /* \"#utility.yul\":5829:5884   */\n      mstore\n        /* \"#utility.yul\":5712:5891   */\n      pop\n      jump\t// out\n        /* \"#utility.yul\":5897:6263   */\n    tag_73:\n        /* \"#utility.yul\":6039:6042   */\n      0x00\n        /* \"#utility.yul\":6060:6127   */\n      tag_128\n        /* \"#utility.yul\":6124:6126   */\n      0x1d\n        /* \"#utility.yul\":6119:6122   */\n      dup4\n        /* \"#utility.yul\":6060:6127   */\n      tag_65\n      jump\t// in\n    tag_128:\n        /* \"#utility.yul\":6053:6127   */\n      swap2\n      pop\n        /* \"#utility.yul\":6136:6229   */\n      tag_129\n        /* \"#utility.yul\":6225:6228   */\n      dup3\n        /* \"#utility.yul\":6136:6229   */\n      tag_72\n      jump\t// in\n    tag_129:\n        /* \"#utility.yul\":6254:6256   */\n      0x20\n        /* \"#utility.yul\":6249:6252   */\n      dup3\n        /* \"#utility.yul\":6245:6257   */\n      add\n        /* \"#utility.yul\":6238:6257   */\n      swap1\n      pop\n        /* \"#utility.yul\":5897:6263   */\n      swap2\n      swap1\n      pop\n      jump\t// out\n        /* \"#utility.yul\":6269:6688   */\n    tag_43:\n        /* \"#utility.yul\":6435:6439   */\n      0x00\n        /* \"#utility.yul\":6473:6475   */\n      0x20\n        /* \"#utility.yul\":6462:6471   */\n      dup3\n        /* \"#utility.yul\":6458:6476   */\n      add\n        /* \"#utility.yul\":6450:6476   */\n      swap1\n      pop\n        /* \"#utility.yul\":6522:6531   */\n      dup2\n        /* \"#utility.yul\":6516:6520   */\n      dup2\n        /* \"#utility.yul\":6512:6532   */\n      sub\n        /* \"#utility.yul\":6508:6509   */\n      0x00\n        /* \"#utility.yul\":6497:6506   */\n      dup4\n        /* \"#utility.yul\":6493:6510   */\n      add\n        /* \"#utility.yul\":6486:6533   */\n      mstore\n        /* \"#utility.yul\":6550:6681   */\n      tag_131\n        /* \"#utility.yul\":6676:6680   */\n      dup2\n        /* \"#utility.yul\":6550:6681   */\n      tag_73\n      jump\t// in\n    tag_131:\n        /* \"#utility.yul\":6542:6681   */\n      swap1\n      pop\n        /* \"#utility.yul\":6269:6688   */\n      swap2\n      swap1\n      pop\n      jump\t// out\n\n    auxdata: 0xa2646970667358221220718a7dc2cdf38a60e411b665abe8dbe5d6bc1072592b27a456ad9d9b8f9010c264736f6c634300081a0033\n}\n",
				"bytecode": {
					"linkReferences": {},
					"object": "6080604052348015600e575f80fd5b50335f806101000a81548173ffffffffffffffffffffffffffffffffffffffff021916908373ffffffffffffffffffffffffffffffffffffffff1602179055506106fd8061005b5f395ff3fe608060405260043610610042575f3560e01c806312065fe01461004b578063205c287814610075578063853828b61461009d5780638da5cb5b146100b357610049565b3661004957005b005b348015610056575f80fd5b5061005f6100dd565b60405161006c91906103d9565b60405180910390f35b348015610080575f80fd5b5061009b6004803603810190610096919061047a565b6100e4565b005b3480156100a8575f80fd5b506100b16102ac565b005b3480156100be575f80fd5b506100c761039e565b6040516100d491906104d8565b60405180910390f35b5f47905090565b5f8054906101000a900473ffffffffffffffffffffffffffffffffffffffff1673ffffffffffffffffffffffffffffffffffffffff163373ffffffffffffffffffffffffffffffffffffffff1614610171576040517f08c379a00000000000000000000000000000000000000000000000000000000081526004016101689061054b565b60405180910390fd5b5f73ffffffffffffffffffffffffffffffffffffffff168273ffffffffffffffffffffffffffffffffffffffff16036101df576040517f08c379a00000000000000000000000000000000000000000000000000000000081526004016101d6906105b3565b60405180910390fd5b5f8111610221576040517f08c379a000000000000000000000000000000000000000000000000000000000815260040161021890610641565b60405180910390fd5b80471015610264576040517f08c379a000000000000000000000000000000000000000000000000000000000815260040161025b906106a9565b60405180910390fd5b8173ffffffffffffffffffffffffffffffffffffffff166108fc8290811502906040515f60405180830381858888f193505050501580156102a7573d5f803e3d5ffd5b505050565b5f8054906101000a900473ffffffffffffffffffffffffffffffffffffffff1673ffffffffffffffffffffffffffffffffffffffff163373ffffffffffffffffffffffffffffffffffffffff1614610339576040517f08c379a00000000000000000000000000000000000000000000000000000000081526004016103309061054b565b60405180910390fd5b5f8054906101000a900473ffffffffffffffffffffffffffffffffffffffff1673ffffffffffffffffffffffffffffffffffffffff166108fc4790811502906040515f60405180830381858888f1935050505015801561039b573d5f803e3d5ffd5b50565b5f8054906101000a900473ffffffffffffffffffffffffffffffffffffffff1681565b5f819050919050565b6103d3816103c1565b82525050565b5f6020820190506103ec5f8301846103ca565b92915050565b5f80fd5b5f73ffffffffffffffffffffffffffffffffffffffff82169050919050565b5f61041f826103f6565b9050919050565b61042f81610415565b8114610439575f80fd5b50565b5f8135905061044a81610426565b92915050565b610459816103c1565b8114610463575f80fd5b50565b5f8135905061047481610450565b92915050565b5f80604083850312156104905761048f6103f2565b5b5f61049d8582860161043c565b92505060206104ae85828601610466565b9150509250929050565b5f6104c2826103f6565b9050919050565b6104d2816104b8565b82525050565b5f6020820190506104eb5f8301846104c9565b92915050565b5f82825260208201905092915050565b7f596f7520417265204e6f742074686520636f6e7472616374206f776e657200005f82015250565b5f610535601e836104f1565b915061054082610501565b602082019050919050565b5f6020820190508181035f83015261056281610529565b9050919050565b7f496e76616c696420726563697069656e742061646472657373000000000000005f82015250565b5f61059d6019836104f1565b91506105a882610569565b602082019050919050565b5f6020820190508181035f8301526105ca81610591565b9050919050565b7f416d6f756e7420746f206265207769746864726177206d7573742062652067725f8201527f6561746572207468616e206e696c6c0000000000000000000000000000000000602082015250565b5f61062b602f836104f1565b9150610636826105d1565b604082019050919050565b5f6020820190508181035f8301526106588161061f565b9050919050565b7f496e73756666696369656e7420636f6e74726163742062616c616e63650000005f82015250565b5f610693601d836104f1565b915061069e8261065f565b602082019050919050565b5f6020820190508181035f8301526106c081610687565b905091905056fea2646970667358221220718a7dc2cdf38a60e411b665abe8dbe5d6bc1072592b27a456ad9d9b8f9010c264736f6c634300081a0033",
					"opcodes": "PUSH1 0x80 PUSH1 0x40 MSTORE CALLVALUE DUP1 ISZERO PUSH1 0xE JUMPI PUSH0 DUP1 REVERT JUMPDEST POP CALLER PUSH0 DUP1 PUSH2 0x100 EXP DUP2 SLOAD DUP2 PUSH20 0xFFFFFFFFFFFFFFFFFFFFFFFFFFFFFFFFFFFFFFFF MUL NOT AND SWAP1 DUP4 PUSH20 0xFFFFFFFFFFFFFFFFFFFFFFFFFFFFFFFFFFFFFFFF AND MUL OR SWAP1 SSTORE POP PUSH2 0x6FD DUP1 PUSH2 0x5B PUSH0 CODECOPY PUSH0 RETURN INVALID PUSH1 0x80 PUSH1 0x40 MSTORE PUSH1 0x4 CALLDATASIZE LT PUSH2 0x42 JUMPI PUSH0 CALLDATALOAD PUSH1 0xE0 SHR DUP1 PUSH4 0x12065FE0 EQ PUSH2 0x4B JUMPI DUP1 PUSH4 0x205C2878 EQ PUSH2 0x75 JUMPI DUP1 PUSH4 0x853828B6 EQ PUSH2 0x9D JUMPI DUP1 PUSH4 0x8DA5CB5B EQ PUSH2 0xB3 JUMPI PUSH2 0x49 JUMP JUMPDEST CALLDATASIZE PUSH2 0x49 JUMPI STOP JUMPDEST STOP JUMPDEST CALLVALUE DUP1 ISZERO PUSH2 0x56 JUMPI PUSH0 DUP1 REVERT JUMPDEST POP PUSH2 0x5F PUSH2 0xDD JUMP JUMPDEST PUSH1 0x40 MLOAD PUSH2 0x6C SWAP2 SWAP1 PUSH2 0x3D9 JUMP JUMPDEST PUSH1 0x40 MLOAD DUP1 SWAP2 SUB SWAP1 RETURN JUMPDEST CALLVALUE DUP1 ISZERO PUSH2 0x80 JUMPI PUSH0 DUP1 REVERT JUMPDEST POP PUSH2 0x9B PUSH1 0x4 DUP1 CALLDATASIZE SUB DUP2 ADD SWAP1 PUSH2 0x96 SWAP2 SWAP1 PUSH2 0x47A JUMP JUMPDEST PUSH2 0xE4 JUMP JUMPDEST STOP JUMPDEST CALLVALUE DUP1 ISZERO PUSH2 0xA8 JUMPI PUSH0 DUP1 REVERT JUMPDEST POP PUSH2 0xB1 PUSH2 0x2AC JUMP JUMPDEST STOP JUMPDEST CALLVALUE DUP1 ISZERO PUSH2 0xBE JUMPI PUSH0 DUP1 REVERT JUMPDEST POP PUSH2 0xC7 PUSH2 0x39E JUMP JUMPDEST PUSH1 0x40 MLOAD PUSH2 0xD4 SWAP2 SWAP1 PUSH2 0x4D8 JUMP JUMPDEST PUSH1 0x40 MLOAD DUP1 SWAP2 SUB SWAP1 RETURN JUMPDEST PUSH0 SELFBALANCE SWAP1 POP SWAP1 JUMP JUMPDEST PUSH0 DUP1 SLOAD SWAP1 PUSH2 0x100 EXP SWAP1 DIV PUSH20 0xFFFFFFFFFFFFFFFFFFFFFFFFFFFFFFFFFFFFFFFF AND PUSH20 0xFFFFFFFFFFFFFFFFFFFFFFFFFFFFFFFFFFFFFFFF AND CALLER PUSH20 0xFFFFFFFFFFFFFFFFFFFFFFFFFFFFFFFFFFFFFFFF AND EQ PUSH2 0x171 JUMPI PUSH1 0x40 MLOAD PUSH32 0x8C379A000000000000000000000000000000000000000000000000000000000 DUP2 MSTORE PUSH1 0x4 ADD PUSH2 0x168 SWAP1 PUSH2 0x54B JUMP JUMPDEST PUSH1 0x40 MLOAD DUP1 SWAP2 SUB SWAP1 REVERT JUMPDEST PUSH0 PUSH20 0xFFFFFFFFFFFFFFFFFFFFFFFFFFFFFFFFFFFFFFFF AND DUP3 PUSH20 0xFFFFFFFFFFFFFFFFFFFFFFFFFFFFFFFFFFFFFFFF AND SUB PUSH2 0x1DF JUMPI PUSH1 0x40 MLOAD PUSH32 0x8C379A000000000000000000000000000000000000000000000000000000000 DUP2 MSTORE PUSH1 0x4 ADD PUSH2 0x1D6 SWAP1 PUSH2 0x5B3 JUMP JUMPDEST PUSH1 0x40 MLOAD DUP1 SWAP2 SUB SWAP1 REVERT JUMPDEST PUSH0 DUP2 GT PUSH2 0x221 JUMPI PUSH1 0x40 MLOAD PUSH32 0x8C379A000000000000000000000000000000000000000000000000000000000 DUP2 MSTORE PUSH1 0x4 ADD PUSH2 0x218 SWAP1 PUSH2 0x641 JUMP JUMPDEST PUSH1 0x40 MLOAD DUP1 SWAP2 SUB SWAP1 REVERT JUMPDEST DUP1 SELFBALANCE LT ISZERO PUSH2 0x264 JUMPI PUSH1 0x40 MLOAD PUSH32 0x8C379A000000000000000000000000000000000000000000000000000000000 DUP2 MSTORE PUSH1 0x4 ADD PUSH2 0x25B SWAP1 PUSH2 0x6A9 JUMP JUMPDEST PUSH1 0x40 MLOAD DUP1 SWAP2 SUB SWAP1 REVERT JUMPDEST DUP2 PUSH20 0xFFFFFFFFFFFFFFFFFFFFFFFFFFFFFFFFFFFFFFFF AND PUSH2 0x8FC DUP3 SWAP1 DUP2 ISZERO MUL SWAP1 PUSH1 0x40 MLOAD PUSH0 PUSH1 0x40 MLOAD DUP1 DUP4 SUB DUP2 DUP6 DUP9 DUP9 CALL SWAP4 POP POP POP POP ISZERO DUP1 ISZERO PUSH2 0x2A7 JUMPI RETURNDATASIZE PUSH0 DUP1 RETURNDATACOPY RETURNDATASIZE PUSH0 REVERT JUMPDEST POP POP POP JUMP JUMPDEST PUSH0 DUP1 SLOAD SWAP1 PUSH2 0x100 EXP SWAP1 DIV PUSH20 0xFFFFFFFFFFFFFFFFFFFFFFFFFFFFFFFFFFFFFFFF AND PUSH20 0xFFFFFFFFFFFFFFFFFFFFFFFFFFFFFFFFFFFFFFFF AND CALLER PUSH20 0xFFFFFFFFFFFFFFFFFFFFFFFFFFFFFFFFFFFFFFFF AND EQ PUSH2 0x339 JUMPI PUSH1 0x40 MLOAD PUSH32 0x8C379A000000000000000000000000000000000000000000000000000000000 DUP2 MSTORE PUSH1 0x4 ADD PUSH2 0x330 SWAP1 PUSH2 0x54B JUMP JUMPDEST PUSH1 0x40 MLOAD DUP1 SWAP2 SUB SWAP1 REVERT JUMPDEST PUSH0 DUP1 SLOAD SWAP1 PUSH2 0x100 EXP SWAP1 DIV PUSH20 0xFFFFFFFFFFFFFFFFFFFFFFFFFFFFFFFFFFFFFFFF AND PUSH20 0xFFFFFFFFFFFFFFFFFFFFFFFFFFFFFFFFFFFFFFFF AND PUSH2 0x8FC SELFBALANCE SWAP1 DUP2 ISZERO MUL SWAP1 PUSH1 0x40 MLOAD PUSH0 PUSH1 0x40 MLOAD DUP1 DUP4 SUB DUP2 DUP6 DUP9 DUP9 CALL SWAP4 POP POP POP POP ISZERO DUP1 ISZERO PUSH2 0x39B JUMPI RETURNDATASIZE PUSH0 DUP1 RETURNDATACOPY RETURNDATASIZE PUSH0 REVERT JUMPDEST POP JUMP JUMPDEST PUSH0 DUP1 SLOAD SWAP1 PUSH2 0x100 EXP SWAP1 DIV PUSH20 0xFFFFFFFFFFFFFFFFFFFFFFFFFFFFFFFFFFFFFFFF AND DUP2 JUMP JUMPDEST PUSH0 DUP2 SWAP1 POP SWAP2 SWAP1 POP JUMP JUMPDEST PUSH2 0x3D3 DUP2 PUSH2 0x3C1 JUMP JUMPDEST DUP3 MSTORE POP POP JUMP JUMPDEST PUSH0 PUSH1 0x20 DUP3 ADD SWAP1 POP PUSH2 0x3EC PUSH0 DUP4 ADD DUP5 PUSH2 0x3CA JUMP JUMPDEST SWAP3 SWAP2 POP POP JUMP JUMPDEST PUSH0 DUP1 REVERT JUMPDEST PUSH0 PUSH20 0xFFFFFFFFFFFFFFFFFFFFFFFFFFFFFFFFFFFFFFFF DUP3 AND SWAP1 POP SWAP2 SWAP1 POP JUMP JUMPDEST PUSH0 PUSH2 0x41F DUP3 PUSH2 0x3F6 JUMP JUMPDEST SWAP1 POP SWAP2 SWAP1 POP JUMP JUMPDEST PUSH2 0x42F DUP2 PUSH2 0x415 JUMP JUMPDEST DUP2 EQ PUSH2 0x439 JUMPI PUSH0 DUP1 REVERT JUMPDEST POP JUMP JUMPDEST PUSH0 DUP2 CALLDATALOAD SWAP1 POP PUSH2 0x44A DUP2 PUSH2 0x426 JUMP JUMPDEST SWAP3 SWAP2 POP POP JUMP JUMPDEST PUSH2 0x459 DUP2 PUSH2 0x3C1 JUMP JUMPDEST DUP2 EQ PUSH2 0x463 JUMPI PUSH0 DUP1 REVERT JUMPDEST POP JUMP JUMPDEST PUSH0 DUP2 CALLDATALOAD SWAP1 POP PUSH2 0x474 DUP2 PUSH2 0x450 JUMP JUMPDEST SWAP3 SWAP2 POP POP JUMP JUMPDEST PUSH0 DUP1 PUSH1 0x40 DUP4 DUP6 SUB SLT ISZERO PUSH2 0x490 JUMPI PUSH2 0x48F PUSH2 0x3F2 JUMP JUMPDEST JUMPDEST PUSH0 PUSH2 0x49D DUP6 DUP3 DUP7 ADD PUSH2 0x43C JUMP JUMPDEST SWAP3 POP POP PUSH1 0x20 PUSH2 0x4AE DUP6 DUP3 DUP7 ADD PUSH2 0x466 JUMP JUMPDEST SWAP2 POP POP SWAP3 POP SWAP3 SWAP1 POP JUMP JUMPDEST PUSH0 PUSH2 0x4C2 DUP3 PUSH2 0x3F6 JUMP JUMPDEST SWAP1 POP SWAP2 SWAP1 POP JUMP JUMPDEST PUSH2 0x4D2 DUP2 PUSH2 0x4B8 JUMP JUMPDEST DUP3 MSTORE POP POP JUMP JUMPDEST PUSH0 PUSH1 0x20 DUP3 ADD SWAP1 POP PUSH2 0x4EB PUSH0 DUP4 ADD DUP5 PUSH2 0x4C9 JUMP JUMPDEST SWAP3 SWAP2 POP POP JUMP JUMPDEST PUSH0 DUP3 DUP3 MSTORE PUSH1 0x20 DUP3 ADD SWAP1 POP SWAP3 SWAP2 POP POP JUMP JUMPDEST PUSH32 0x596F7520417265204E6F742074686520636F6E7472616374206F776E65720000 PUSH0 DUP3 ADD MSTORE POP JUMP JUMPDEST PUSH0 PUSH2 0x535 PUSH1 0x1E DUP4 PUSH2 0x4F1 JUMP JUMPDEST SWAP2 POP PUSH2 0x540 DUP3 PUSH2 0x501 JUMP JUMPDEST PUSH1 0x20 DUP3 ADD SWAP1 POP SWAP2 SWAP1 POP JUMP JUMPDEST PUSH0 PUSH1 0x20 DUP3 ADD SWAP1 POP DUP2 DUP2 SUB PUSH0 DUP4 ADD MSTORE PUSH2 0x562 DUP2 PUSH2 0x529 JUMP JUMPDEST SWAP1 POP SWAP2 SWAP1 POP JUMP JUMPDEST PUSH32 0x496E76616C696420726563697069656E74206164647265737300000000000000 PUSH0 DUP3 ADD MSTORE POP JUMP JUMPDEST PUSH0 PUSH2 0x59D PUSH1 0x19 DUP4 PUSH2 0x4F1 JUMP JUMPDEST SWAP2 POP PUSH2 0x5A8 DUP3 PUSH2 0x569 JUMP JUMPDEST PUSH1 0x20 DUP3 ADD SWAP1 POP SWAP2 SWAP1 POP JUMP JUMPDEST PUSH0 PUSH1 0x20 DUP3 ADD SWAP1 POP DUP2 DUP2 SUB PUSH0 DUP4 ADD MSTORE PUSH2 0x5CA DUP2 PUSH2 0x591 JUMP JUMPDEST SWAP1 POP SWAP2 SWAP1 POP JUMP JUMPDEST PUSH32 0x416D6F756E7420746F206265207769746864726177206D757374206265206772 PUSH0 DUP3 ADD MSTORE PUSH32 0x6561746572207468616E206E696C6C0000000000000000000000000000000000 PUSH1 0x20 DUP3 ADD MSTORE POP JUMP JUMPDEST PUSH0 PUSH2 0x62B PUSH1 0x2F DUP4 PUSH2 0x4F1 JUMP JUMPDEST SWAP2 POP PUSH2 0x636 DUP3 PUSH2 0x5D1 JUMP JUMPDEST PUSH1 0x40 DUP3 ADD SWAP1 POP SWAP2 SWAP1 POP JUMP JUMPDEST PUSH0 PUSH1 0x20 DUP3 ADD SWAP1 POP DUP2 DUP2 SUB PUSH0 DUP4 ADD MSTORE PUSH2 0x658 DUP2 PUSH2 0x61F JUMP JUMPDEST SWAP1 POP SWAP2 SWAP1 POP JUMP JUMPDEST PUSH32 0x496E73756666696369656E7420636F6E74726163742062616C616E6365000000 PUSH0 DUP3 ADD MSTORE POP JUMP JUMPDEST PUSH0 PUSH2 0x693 PUSH1 0x1D DUP4 PUSH2 0x4F1 JUMP JUMPDEST SWAP2 POP PUSH2 0x69E DUP3 PUSH2 0x65F JUMP JUMPDEST PUSH1 0x20 DUP3 ADD SWAP1 POP SWAP2 SWAP1 POP JUMP JUMPDEST PUSH0 PUSH1 0x20 DUP3 ADD SWAP1 POP DUP2 DUP2 SUB PUSH0 DUP4 ADD MSTORE PUSH2 0x6C0 DUP2 PUSH2 0x687 JUMP JUMPDEST SWAP1 POP SWAP2 SWAP1 POP JUMP INVALID LOG2 PUSH5 0x6970667358 0x22 SLT KECCAK256 PUSH18 0x8A7DC2CDF38A60E411B665ABE8DBE5D6BC10 PUSH19 0x592B27A456AD9D9B8F9010C264736F6C634300 ADDMOD BYTE STOP CALLER "
				},
				"gasEstimates": {
					"creation": {
						"codeDepositCost": "357800",
						"executionCost": "24656",
						"totalCost": "382456"
					},
					"external": {
						"": "150",
						"getBalance()": "312",
						"owner()": "2549",
						"withdrawAll()": "infinite",
						"withdrawTo(address,uint256)": "infinite"
					}
				},
				"methodIdentifiers": {
					"getBalance()": "12065fe0",
					"owner()": "8da5cb5b",
					"withdrawAll()": "853828b6",
					"withdrawTo(address,uint256)": "205c2878"
				}
			},
			"storageLayout": {
				"storage": [
					{
						"astId": 3,
						"contract": "contracts/simplepayable.sol:SimplePayable",
						"label": "owner",
						"offset": 0,
						"slot": "0",
						"type": "t_address"
					}
				],
				"types": {
					"t_address": {
						"encoding": "inplace",
						"label": "address",
						"numberOfBytes": "20"
					}
				}
			},
			"userdoc": {
				"kind": "user",
				"methods": {},
				"version": 1
			}
		}
	}
}