{
	"contracts/globalVariable.sol": {
		"GlobalVariable": {
			"abi": [
				{
					"inputs": [],
					"stateMutability": "payable",
					"type": "constructor"
				},
				{
					"inputs": [],
					"name": "Firstfour",
					"outputs": [
						{
							"internalType": "bytes4",
							"name": "",
							"type": "bytes4"
						}
					],
					"stateMutability": "view",
					"type": "function"
				},
				{
					"inputs": [],
					"name": "Myblockhash",
					"outputs": [
						{
							"internalType": "address",
							"name": "",
							"type": "address"
						}
					],
					"stateMutability": "view",
					"type": "function"
				},
				{
					"inputs": [],
					"name": "blockNumber",
					"outputs": [
						{
							"internalType": "uint256",
							"name": "",
							"type": "uint256"
						}
					],
					"stateMutability": "view",
					"type": "function"
				},
				{
					"inputs": [],
					"name": "callData",
					"outputs": [
						{
							"internalType": "bytes",
							"name": "",
							"type": "bytes"
						}
					],
					"stateMutability": "view",
					"type": "function"
				},
				{
					"inputs": [],
					"name": "coinbase",
					"outputs": [
						{
							"internalType": "address",
							"name": "",
							"type": "address"
						}
					],
					"stateMutability": "view",
					"type": "function"
				},
				{
					"inputs": [],
					"name": "difficulty",
					"outputs": [
						{
							"internalType": "uint256",
							"name": "",
							"type": "uint256"
						}
					],
					"stateMutability": "view",
					"type": "function"
				},
				{
					"inputs": [],
					"name": "gasLimit",
					"outputs": [
						{
							"internalType": "uint256",
							"name": "",
							"type": "uint256"
						}
					],
					"stateMutability": "view",
					"type": "function"
				},
				{
					"inputs": [],
					"name": "gasPrice",
					"outputs": [
						{
							"internalType": "uint256",
							"name": "",
							"type": "uint256"
						}
					],
					"stateMutability": "view",
					"type": "function"
				},
				{
					"inputs": [],
					"name": "gasUsed",
					"outputs": [
						{
							"internalType": "uint256",
							"name": "",
							"type": "uint256"
						}
					],
					"stateMutability": "view",
					"type": "function"
				},
				{
					"inputs": [],
					"name": "nowOn",
					"outputs": [
						{
							"internalType": "uint256",
							"name": "",
							"type": "uint256"
						}
					],
					"stateMutability": "view",
					"type": "function"
				},
				{
					"inputs": [],
					"name": "origin",
					"outputs": [
						{
							"internalType": "address",
							"name": "",
							"type": "address"
						}
					],
					"stateMutability": "view",
					"type": "function"
				},
				{
					"inputs": [],
					"name": "owner",
					"outputs": [
						{
							"internalType": "address",
							"name": "",
							"type": "address"
						}
					],
					"stateMutability": "view",
					"type": "function"
				},
				{
					"inputs": [],
					"name": "timestamp",
					"outputs": [
						{
							"internalType": "uint256",
							"name": "",
							"type": "uint256"
						}
					],
					"stateMutability": "view",
					"type": "function"
				},
				{
					"inputs": [],
					"name": "value",
					"outputs": [
						{
							"internalType": "uint256",
							"name": "",
							"type": "uint256"
						}
					],
					"stateMutability": "view",
					"type": "function"
				}
			],
			"devdoc": {
				"kind": "dev",
				"methods": {},
				"version": 1
			},
			"evm": {
				"assembly": "    /* \"contracts/globalVariable.sol\":95:2614  contract GlobalVariable{... */\n  mstore(0x40, 0x80)\n    /* \"contracts/globalVariable.sol\":727:737  msg.sender */\n  caller\n    /* \"contracts/globalVariable.sol\":719:724  owner */\n  0x00\n  dup1\n    /* \"contracts/globalVariable.sol\":719:737  owner = msg.sender */\n  0x0100\n  exp\n  dup2\n  sload\n  dup2\n  0xffffffffffffffffffffffffffffffffffffffff\n  mul\n  not\n  and\n  swap1\n  dup4\n  0xffffffffffffffffffffffffffffffffffffffff\n  and\n  mul\n  or\n  swap1\n  sstore\n  pop\n    /* \"contracts/globalVariable.sol\":846:850  this */\n  address\n    /* \"contracts/globalVariable.sol\":824:835  Myblockhash */\n  0x01\n  0x00\n    /* \"contracts/globalVariable.sol\":824:851  Myblockhash = address(this) */\n  0x0100\n  exp\n  dup2\n  sload\n  dup2\n  0xffffffffffffffffffffffffffffffffffffffff\n  mul\n  not\n  and\n  swap1\n  dup4\n  0xffffffffffffffffffffffffffffffffffffffff\n  and\n  mul\n  or\n  swap1\n  sstore\n  pop\n    /* \"contracts/globalVariable.sol\":876:888  block.number */\n  number\n    /* \"contracts/globalVariable.sol\":862:873  blockNumber */\n  0x02\n    /* \"contracts/globalVariable.sol\":862:888  blockNumber = block.number */\n  dup2\n  swap1\n  sstore\n  pop\n    /* \"contracts/globalVariable.sol\":910:924  block.gaslimit */\n  gaslimit\n    /* \"contracts/globalVariable.sol\":899:907  gasLimit */\n  0x03\n    /* \"contracts/globalVariable.sol\":899:924  gasLimit = block.gaslimit */\n  dup2\n  swap1\n  sstore\n  pop\n    /* \"contracts/globalVariable.sol\":945:954  gasleft() */\n  gas\n    /* \"contracts/globalVariable.sol\":935:942  gasUsed */\n  0x04\n    /* \"contracts/globalVariable.sol\":935:954  gasUsed = gasleft() */\n  dup2\n  swap1\n  sstore\n  pop\n    /* \"contracts/globalVariable.sol\":977:992  block.timestamp */\n  timestamp\n    /* \"contracts/globalVariable.sol\":965:974  timestamp */\n  0x05\n    /* \"contracts/globalVariable.sol\":965:992  timestamp = block.timestamp */\n  dup2\n  swap1\n  sstore\n  pop\n    /* \"contracts/globalVariable.sol\":1016:1032  block.prevrandao */\n  prevrandao\n    /* \"contracts/globalVariable.sol\":1003:1013  difficulty */\n  0x06\n    /* \"contracts/globalVariable.sol\":1003:1032  difficulty = block.prevrandao */\n  dup2\n  swap1\n  sstore\n  pop\n    /* \"contracts/globalVariable.sol\":1054:1065  tx.gasprice */\n  gasprice\n    /* \"contracts/globalVariable.sol\":1043:1051  gasPrice */\n  0x07\n    /* \"contracts/globalVariable.sol\":1043:1065  gasPrice = tx.gasprice */\n  dup2\n  swap1\n  sstore\n  pop\n    /* \"contracts/globalVariable.sol\":1087:1101  block.coinbase */\n  coinbase\n    /* \"contracts/globalVariable.sol\":1076:1084  coinbase */\n  0x08\n  0x00\n    /* \"contracts/globalVariable.sol\":1076:1101  coinbase = block.coinbase */\n  0x0100\n  exp\n  dup2\n  sload\n  dup2\n  0xffffffffffffffffffffffffffffffffffffffff\n  mul\n  not\n  and\n  swap1\n  dup4\n  0xffffffffffffffffffffffffffffffffffffffff\n  and\n  mul\n  or\n  swap1\n  sstore\n  pop\n    /* \"contracts/globalVariable.sol\":1120:1129  msg.value */\n  callvalue\n    /* \"contracts/globalVariable.sol\":1112:1117  value */\n  0x09\n    /* \"contracts/globalVariable.sol\":1112:1129  value = msg.value */\n  dup2\n  swap1\n  sstore\n  pop\n    /* \"contracts/globalVariable.sol\":1203:1210  msg.sig */\n  and(0xffffffff00000000000000000000000000000000000000000000000000000000, calldataload(0x00))\n    /* \"contracts/globalVariable.sol\":1191:1200  Firstfour */\n  0x0a\n  0x00\n    /* \"contracts/globalVariable.sol\":1191:1210  Firstfour = msg.sig */\n  0x0100\n  exp\n  dup2\n  sload\n  dup2\n  0xffffffff\n  mul\n  not\n  and\n  swap1\n  dup4\n  0xe0\n  shr\n  mul\n  or\n  swap1\n  sstore\n  pop\n    /* \"contracts/globalVariable.sol\":1230:1239  tx.origin */\n  origin\n    /* \"contracts/globalVariable.sol\":1221:1227  origin */\n  0x0a\n  0x04\n    /* \"contracts/globalVariable.sol\":1221:1239  origin = tx.origin */\n  0x0100\n  exp\n  dup2\n  sload\n  dup2\n  0xffffffffffffffffffffffffffffffffffffffff\n  mul\n  not\n  and\n  swap1\n  dup4\n  0xffffffffffffffffffffffffffffffffffffffff\n  and\n  mul\n  or\n  swap1\n  sstore\n  pop\n    /* \"contracts/globalVariable.sol\":1261:1269  msg.data */\n  0x00\n  calldatasize\n    /* \"contracts/globalVariable.sol\":1250:1258  callData */\n  0x0b\n    /* \"contracts/globalVariable.sol\":1250:1269  callData = msg.data */\n  swap2\n  dup3\n  tag_3\n  swap3\n  swap2\n  swap1\n  tag_4\n  jump\t// in\ntag_3:\n  pop\n    /* \"contracts/globalVariable.sol\":1288:1297  gasleft() */\n  gas\n    /* \"contracts/globalVariable.sol\":1280:1285  nowOn */\n  0x0c\n    /* \"contracts/globalVariable.sol\":1280:1297  nowOn = gasleft() */\n  dup2\n  swap1\n  sstore\n  pop\n    /* \"contracts/globalVariable.sol\":1332:1336  this */\n  address\n    /* \"contracts/globalVariable.sol\":1310:1321  Myblockhash */\n  0x01\n  0x00\n    /* \"contracts/globalVariable.sol\":1310:1337  Myblockhash = address(this) */\n  0x0100\n  exp\n  dup2\n  sload\n  dup2\n  0xffffffffffffffffffffffffffffffffffffffff\n  mul\n  not\n  and\n  swap1\n  dup4\n  0xffffffffffffffffffffffffffffffffffffffff\n  and\n  mul\n  or\n  swap1\n  sstore\n  pop\n    /* \"contracts/globalVariable.sol\":1409:1421  block.number */\n  number\n    /* \"contracts/globalVariable.sol\":1395:1406  blockNumber */\n  0x02\n    /* \"contracts/globalVariable.sol\":1395:1421  blockNumber = block.number */\n  dup2\n  swap1\n  sstore\n  pop\n    /* \"contracts/globalVariable.sol\":1480:1494  block.gaslimit */\n  gaslimit\n    /* \"contracts/globalVariable.sol\":1469:1477  gasLimit */\n  0x03\n    /* \"contracts/globalVariable.sol\":1469:1494  gasLimit = block.gaslimit */\n  dup2\n  swap1\n  sstore\n  pop\n    /* \"contracts/globalVariable.sol\":1574:1583  gasleft() */\n  gas\n    /* \"contracts/globalVariable.sol\":1564:1571  gasUsed */\n  0x04\n    /* \"contracts/globalVariable.sol\":1564:1583  gasUsed = gasleft() */\n  dup2\n  swap1\n  sstore\n  pop\n    /* \"contracts/globalVariable.sol\":1672:1687  block.timestamp */\n  timestamp\n    /* \"contracts/globalVariable.sol\":1660:1669  timestamp */\n  0x05\n    /* \"contracts/globalVariable.sol\":1660:1687  timestamp = block.timestamp */\n  dup2\n  swap1\n  sstore\n  pop\n    /* \"contracts/globalVariable.sol\":1756:1772  block.prevrandao */\n  prevrandao\n    /* \"contracts/globalVariable.sol\":1743:1753  difficulty */\n  0x06\n    /* \"contracts/globalVariable.sol\":1743:1772  difficulty = block.prevrandao */\n  dup2\n  swap1\n  sstore\n  pop\n    /* \"contracts/globalVariable.sol\":1871:1882  tx.gasprice */\n  gasprice\n    /* \"contracts/globalVariable.sol\":1860:1868  gasPrice */\n  0x07\n    /* \"contracts/globalVariable.sol\":1860:1882  gasPrice = tx.gasprice */\n  dup2\n  swap1\n  sstore\n  pop\n    /* \"contracts/globalVariable.sol\":1963:1977  block.coinbase */\n  coinbase\n    /* \"contracts/globalVariable.sol\":1952:1960  coinbase */\n  0x08\n  0x00\n    /* \"contracts/globalVariable.sol\":1952:1977  coinbase = block.coinbase */\n  0x0100\n  exp\n  dup2\n  sload\n  dup2\n  0xffffffffffffffffffffffffffffffffffffffff\n  mul\n  not\n  and\n  swap1\n  dup4\n  0xffffffffffffffffffffffffffffffffffffffff\n  and\n  mul\n  or\n  swap1\n  sstore\n  pop\n    /* \"contracts/globalVariable.sol\":2044:2053  msg.value */\n  callvalue\n    /* \"contracts/globalVariable.sol\":2036:2041  value */\n  0x09\n    /* \"contracts/globalVariable.sol\":2036:2053  value = msg.value */\n  dup2\n  swap1\n  sstore\n  pop\n    /* \"contracts/globalVariable.sol\":2130:2137  msg.sig */\n  and(0xffffffff00000000000000000000000000000000000000000000000000000000, calldataload(0x00))\n    /* \"contracts/globalVariable.sol\":2119:2128  Firstfour */\n  0x0a\n  0x00\n    /* \"contracts/globalVariable.sol\":2119:2137  Firstfour= msg.sig */\n  0x0100\n  exp\n  dup2\n  sload\n  dup2\n  0xffffffff\n  mul\n  not\n  and\n  swap1\n  dup4\n  0xe0\n  shr\n  mul\n  or\n  swap1\n  sstore\n  pop\n    /* \"contracts/globalVariable.sol\":2220:2229  tx.origin */\n  origin\n    /* \"contracts/globalVariable.sol\":2211:2217  origin */\n  0x0a\n  0x04\n    /* \"contracts/globalVariable.sol\":2211:2229  origin = tx.origin */\n  0x0100\n  exp\n  dup2\n  sload\n  dup2\n  0xffffffffffffffffffffffffffffffffffffffff\n  mul\n  not\n  and\n  swap1\n  dup4\n  0xffffffffffffffffffffffffffffffffffffffff\n  and\n  mul\n  or\n  swap1\n  sstore\n  pop\n    /* \"contracts/globalVariable.sol\":2338:2346  msg.data */\n  0x00\n  calldatasize\n    /* \"contracts/globalVariable.sol\":2327:2335  callData */\n  0x0b\n    /* \"contracts/globalVariable.sol\":2327:2346  callData = msg.data */\n  swap2\n  dup3\n  tag_5\n  swap3\n  swap2\n  swap1\n  tag_4\n  jump\t// in\ntag_5:\n  pop\n    /* \"contracts/globalVariable.sol\":2430:2439  gasleft() */\n  gas\n    /* \"contracts/globalVariable.sol\":2422:2427  nowOn */\n  0x0c\n    /* \"contracts/globalVariable.sol\":2422:2439  nowOn = gasleft() */\n  dup2\n  swap1\n  sstore\n  pop\n    /* \"contracts/globalVariable.sol\":95:2614  contract GlobalVariable{... */\n  jump(tag_6)\n    /* \"#utility.yul\":7:103   */\ntag_7:\n    /* \"#utility.yul\":65:71   */\n  0x00\n    /* \"#utility.yul\":93:96   */\n  dup3\n    /* \"#utility.yul\":83:96   */\n  swap1\n  pop\n    /* \"#utility.yul\":7:103   */\n  swap3\n  swap2\n  pop\n  pop\n  jump\t// out\n    /* \"#utility.yul\":109:289   */\ntag_8:\n    /* \"#utility.yul\":157:234   */\n  0x4e487b7100000000000000000000000000000000000000000000000000000000\n    /* \"#utility.yul\":154:155   */\n  0x00\n    /* \"#utility.yul\":147:235   */\n  mstore\n    /* \"#utility.yul\":254:258   */\n  0x41\n    /* \"#utility.yul\":251:252   */\n  0x04\n    /* \"#utility.yul\":244:259   */\n  mstore\n    /* \"#utility.yul\":278:282   */\n  0x24\n    /* \"#utility.yul\":275:276   */\n  0x00\n    /* \"#utility.yul\":268:283   */\n  revert\n    /* \"#utility.yul\":295:475   */\ntag_9:\n    /* \"#utility.yul\":343:420   */\n  0x4e487b7100000000000000000000000000000000000000000000000000000000\n    /* \"#utility.yul\":340:341   */\n  0x00\n    /* \"#utility.yul\":333:421   */\n  mstore\n    /* \"#utility.yul\":440:444   */\n  0x22\n    /* \"#utility.yul\":437:438   */\n  0x04\n    /* \"#utility.yul\":430:445   */\n  mstore\n    /* \"#utility.yul\":464:468   */\n  0x24\n    /* \"#utility.yul\":461:462   */\n  0x00\n    /* \"#utility.yul\":454:469   */\n  revert\n    /* \"#utility.yul\":481:801   */\ntag_10:\n    /* \"#utility.yul\":525:531   */\n  0x00\n    /* \"#utility.yul\":562:563   */\n  0x02\n    /* \"#utility.yul\":556:560   */\n  dup3\n    /* \"#utility.yul\":552:564   */\n  div\n    /* \"#utility.yul\":542:564   */\n  swap1\n  pop\n    /* \"#utility.yul\":609:610   */\n  0x01\n    /* \"#utility.yul\":603:607   */\n  dup3\n    /* \"#utility.yul\":599:611   */\n  and\n    /* \"#utility.yul\":630:648   */\n  dup1\n    /* \"#utility.yul\":620:701   */\n  tag_32\n  jumpi\n    /* \"#utility.yul\":686:690   */\n  0x7f\n    /* \"#utility.yul\":678:684   */\n  dup3\n    /* \"#utility.yul\":674:691   */\n  and\n    /* \"#utility.yul\":664:691   */\n  swap2\n  pop\n    /* \"#utility.yul\":620:701   */\ntag_32:\n    /* \"#utility.yul\":748:750   */\n  0x20\n    /* \"#utility.yul\":740:746   */\n  dup3\n    /* \"#utility.yul\":737:751   */\n  lt\n    /* \"#utility.yul\":717:735   */\n  dup2\n    /* \"#utility.yul\":714:752   */\n  sub\n    /* \"#utility.yul\":711:795   */\n  tag_33\n  jumpi\n    /* \"#utility.yul\":767:785   */\n  tag_34\n  tag_9\n  jump\t// in\ntag_34:\n    /* \"#utility.yul\":711:795   */\ntag_33:\n    /* \"#utility.yul\":532:801   */\n  pop\n    /* \"#utility.yul\":481:801   */\n  swap2\n  swap1\n  pop\n  jump\t// out\n    /* \"#utility.yul\":807:947   */\ntag_11:\n    /* \"#utility.yul\":855:859   */\n  0x00\n    /* \"#utility.yul\":878:881   */\n  dup2\n    /* \"#utility.yul\":870:881   */\n  swap1\n  pop\n    /* \"#utility.yul\":901:904   */\n  dup2\n    /* \"#utility.yul\":898:899   */\n  0x00\n    /* \"#utility.yul\":891:905   */\n  mstore\n    /* \"#utility.yul\":935:939   */\n  0x20\n    /* \"#utility.yul\":932:933   */\n  0x00\n    /* \"#utility.yul\":922:940   */\n  keccak256\n    /* \"#utility.yul\":914:940   */\n  swap1\n  pop\n    /* \"#utility.yul\":807:947   */\n  swap2\n  swap1\n  pop\n  jump\t// out\n    /* \"#utility.yul\":953:1046   */\ntag_12:\n    /* \"#utility.yul\":990:996   */\n  0x00\n    /* \"#utility.yul\":1037:1039   */\n  0x20\n    /* \"#utility.yul\":1032:1034   */\n  0x1f\n    /* \"#utility.yul\":1025:1030   */\n  dup4\n    /* \"#utility.yul\":1021:1035   */\n  add\n    /* \"#utility.yul\":1017:1040   */\n  div\n    /* \"#utility.yul\":1007:1040   */\n  swap1\n  pop\n    /* \"#utility.yul\":953:1046   */\n  swap2\n  swap1\n  pop\n  jump\t// out\n    /* \"#utility.yul\":1052:1159   */\ntag_13:\n    /* \"#utility.yul\":1096:1104   */\n  0x00\n    /* \"#utility.yul\":1146:1151   */\n  dup3\n    /* \"#utility.yul\":1140:1144   */\n  dup3\n    /* \"#utility.yul\":1136:1152   */\n  shl\n    /* \"#utility.yul\":1115:1152   */\n  swap1\n  pop\n    /* \"#utility.yul\":1052:1159   */\n  swap3\n  swap2\n  pop\n  pop\n  jump\t// out\n    /* \"#utility.yul\":1165:1558   */\ntag_14:\n    /* \"#utility.yul\":1234:1240   */\n  0x00\n    /* \"#utility.yul\":1284:1285   */\n  0x08\n    /* \"#utility.yul\":1272:1282   */\n  dup4\n    /* \"#utility.yul\":1268:1286   */\n  mul\n    /* \"#utility.yul\":1307:1404   */\n  tag_39\n    /* \"#utility.yul\":1337:1403   */\n  0xffffffffffffffffffffffffffffffffffffffffffffffffffffffffffffffff\n    /* \"#utility.yul\":1326:1335   */\n  dup3\n    /* \"#utility.yul\":1307:1404   */\n  tag_13\n  jump\t// in\ntag_39:\n    /* \"#utility.yul\":1425:1464   */\n  tag_40\n    /* \"#utility.yul\":1455:1463   */\n  dup7\n    /* \"#utility.yul\":1444:1453   */\n  dup4\n    /* \"#utility.yul\":1425:1464   */\n  tag_13\n  jump\t// in\ntag_40:\n    /* \"#utility.yul\":1413:1464   */\n  swap6\n  pop\n    /* \"#utility.yul\":1497:1501   */\n  dup1\n    /* \"#utility.yul\":1493:1502   */\n  not\n    /* \"#utility.yul\":1486:1491   */\n  dup5\n    /* \"#utility.yul\":1482:1503   */\n  and\n    /* \"#utility.yul\":1473:1503   */\n  swap4\n  pop\n    /* \"#utility.yul\":1546:1550   */\n  dup1\n    /* \"#utility.yul\":1536:1544   */\n  dup7\n    /* \"#utility.yul\":1532:1551   */\n  and\n    /* \"#utility.yul\":1525:1530   */\n  dup5\n    /* \"#utility.yul\":1522:1552   */\n  or\n    /* \"#utility.yul\":1512:1552   */\n  swap3\n  pop\n    /* \"#utility.yul\":1241:1558   */\n  pop\n  pop\n    /* \"#utility.yul\":1165:1558   */\n  swap4\n  swap3\n  pop\n  pop\n  pop\n  jump\t// out\n    /* \"#utility.yul\":1564:1641   */\ntag_15:\n    /* \"#utility.yul\":1601:1608   */\n  0x00\n    /* \"#utility.yul\":1630:1635   */\n  dup2\n    /* \"#utility.yul\":1619:1635   */\n  swap1\n  pop\n    /* \"#utility.yul\":1564:1641   */\n  swap2\n  swap1\n  pop\n  jump\t// out\n    /* \"#utility.yul\":1647:1707   */\ntag_16:\n    /* \"#utility.yul\":1675:1678   */\n  0x00\n    /* \"#utility.yul\":1696:1701   */\n  dup2\n    /* \"#utility.yul\":1689:1701   */\n  swap1\n  pop\n    /* \"#utility.yul\":1647:1707   */\n  swap2\n  swap1\n  pop\n  jump\t// out\n    /* \"#utility.yul\":1713:1855   */\ntag_17:\n    /* \"#utility.yul\":1763:1772   */\n  0x00\n    /* \"#utility.yul\":1796:1849   */\n  tag_44\n    /* \"#utility.yul\":1814:1848   */\n  tag_45\n    /* \"#utility.yul\":1823:1847   */\n  tag_46\n    /* \"#utility.yul\":1841:1846   */\n  dup5\n    /* \"#utility.yul\":1823:1847   */\n  tag_15\n  jump\t// in\ntag_46:\n    /* \"#utility.yul\":1814:1848   */\n  tag_16\n  jump\t// in\ntag_45:\n    /* \"#utility.yul\":1796:1849   */\n  tag_15\n  jump\t// in\ntag_44:\n    /* \"#utility.yul\":1783:1849   */\n  swap1\n  pop\n    /* \"#utility.yul\":1713:1855   */\n  swap2\n  swap1\n  pop\n  jump\t// out\n    /* \"#utility.yul\":1861:1936   */\ntag_18:\n    /* \"#utility.yul\":1904:1907   */\n  0x00\n    /* \"#utility.yul\":1925:1930   */\n  dup2\n    /* \"#utility.yul\":1918:1930   */\n  swap1\n  pop\n    /* \"#utility.yul\":1861:1936   */\n  swap2\n  swap1\n  pop\n  jump\t// out\n    /* \"#utility.yul\":1942:2211   */\ntag_19:\n    /* \"#utility.yul\":2052:2091   */\n  tag_49\n    /* \"#utility.yul\":2083:2090   */\n  dup4\n    /* \"#utility.yul\":2052:2091   */\n  tag_17\n  jump\t// in\ntag_49:\n    /* \"#utility.yul\":2113:2204   */\n  tag_50\n    /* \"#utility.yul\":2162:2203   */\n  tag_51\n    /* \"#utility.yul\":2186:2202   */\n  dup3\n    /* \"#utility.yul\":2162:2203   */\n  tag_18\n  jump\t// in\ntag_51:\n    /* \"#utility.yul\":2154:2160   */\n  dup5\n    /* \"#utility.yul\":2147:2151   */\n  dup5\n    /* \"#utility.yul\":2141:2152   */\n  sload\n    /* \"#utility.yul\":2113:2204   */\n  tag_14\n  jump\t// in\ntag_50:\n    /* \"#utility.yul\":2107:2111   */\n  dup3\n    /* \"#utility.yul\":2100:2205   */\n  sstore\n    /* \"#utility.yul\":2018:2211   */\n  pop\n    /* \"#utility.yul\":1942:2211   */\n  pop\n  pop\n  pop\n  jump\t// out\n    /* \"#utility.yul\":2217:2290   */\ntag_20:\n    /* \"#utility.yul\":2262:2265   */\n  0x00\n    /* \"#utility.yul\":2217:2290   */\n  swap1\n  jump\t// out\n    /* \"#utility.yul\":2296:2485   */\ntag_21:\n    /* \"#utility.yul\":2373:2405   */\n  tag_54\n  tag_20\n  jump\t// in\ntag_54:\n    /* \"#utility.yul\":2414:2479   */\n  tag_55\n    /* \"#utility.yul\":2472:2478   */\n  dup2\n    /* \"#utility.yul\":2464:2470   */\n  dup5\n    /* \"#utility.yul\":2458:2462   */\n  dup5\n    /* \"#utility.yul\":2414:2479   */\n  tag_19\n  jump\t// in\ntag_55:\n    /* \"#utility.yul\":2349:2485   */\n  pop\n    /* \"#utility.yul\":2296:2485   */\n  pop\n  pop\n  jump\t// out\n    /* \"#utility.yul\":2491:2677   */\ntag_22:\n    /* \"#utility.yul\":2551:2671   */\ntag_57:\n    /* \"#utility.yul\":2568:2571   */\n  dup2\n    /* \"#utility.yul\":2561:2566   */\n  dup2\n    /* \"#utility.yul\":2558:2572   */\n  lt\n    /* \"#utility.yul\":2551:2671   */\n  iszero\n  tag_59\n  jumpi\n    /* \"#utility.yul\":2622:2661   */\n  tag_60\n    /* \"#utility.yul\":2659:2660   */\n  0x00\n    /* \"#utility.yul\":2652:2657   */\n  dup3\n    /* \"#utility.yul\":2622:2661   */\n  tag_21\n  jump\t// in\ntag_60:\n    /* \"#utility.yul\":2595:2596   */\n  0x01\n    /* \"#utility.yul\":2588:2593   */\n  dup2\n    /* \"#utility.yul\":2584:2597   */\n  add\n    /* \"#utility.yul\":2575:2597   */\n  swap1\n  pop\n    /* \"#utility.yul\":2551:2671   */\n  jump(tag_57)\ntag_59:\n    /* \"#utility.yul\":2491:2677   */\n  pop\n  pop\n  jump\t// out\n    /* \"#utility.yul\":2683:3224   */\ntag_23:\n    /* \"#utility.yul\":2783:2785   */\n  0x1f\n    /* \"#utility.yul\":2778:2781   */\n  dup3\n    /* \"#utility.yul\":2775:2786   */\n  gt\n    /* \"#utility.yul\":2772:3217   */\n  iszero\n  tag_62\n  jumpi\n    /* \"#utility.yul\":2817:2854   */\n  tag_63\n    /* \"#utility.yul\":2848:2853   */\n  dup2\n    /* \"#utility.yul\":2817:2854   */\n  tag_11\n  jump\t// in\ntag_63:\n    /* \"#utility.yul\":2900:2929   */\n  tag_64\n    /* \"#utility.yul\":2918:2928   */\n  dup5\n    /* \"#utility.yul\":2900:2929   */\n  tag_12\n  jump\t// in\ntag_64:\n    /* \"#utility.yul\":2890:2898   */\n  dup2\n    /* \"#utility.yul\":2886:2930   */\n  add\n    /* \"#utility.yul\":3083:3085   */\n  0x20\n    /* \"#utility.yul\":3071:3081   */\n  dup6\n    /* \"#utility.yul\":3068:3086   */\n  lt\n    /* \"#utility.yul\":3065:3114   */\n  iszero\n  tag_65\n  jumpi\n    /* \"#utility.yul\":3104:3112   */\n  dup2\n    /* \"#utility.yul\":3089:3112   */\n  swap1\n  pop\n    /* \"#utility.yul\":3065:3114   */\ntag_65:\n    /* \"#utility.yul\":3127:3207   */\n  tag_66\n    /* \"#utility.yul\":3183:3205   */\n  tag_67\n    /* \"#utility.yul\":3201:3204   */\n  dup6\n    /* \"#utility.yul\":3183:3205   */\n  tag_12\n  jump\t// in\ntag_67:\n    /* \"#utility.yul\":3173:3181   */\n  dup4\n    /* \"#utility.yul\":3169:3206   */\n  add\n    /* \"#utility.yul\":3156:3167   */\n  dup3\n    /* \"#utility.yul\":3127:3207   */\n  tag_22\n  jump\t// in\ntag_66:\n    /* \"#utility.yul\":2787:3217   */\n  pop\n  pop\n    /* \"#utility.yul\":2772:3217   */\ntag_62:\n    /* \"#utility.yul\":2683:3224   */\n  pop\n  pop\n  pop\n  jump\t// out\n    /* \"#utility.yul\":3230:3347   */\ntag_24:\n    /* \"#utility.yul\":3284:3292   */\n  0x00\n    /* \"#utility.yul\":3334:3339   */\n  dup3\n    /* \"#utility.yul\":3328:3332   */\n  dup3\n    /* \"#utility.yul\":3324:3340   */\n  shr\n    /* \"#utility.yul\":3303:3340   */\n  swap1\n  pop\n    /* \"#utility.yul\":3230:3347   */\n  swap3\n  swap2\n  pop\n  pop\n  jump\t// out\n    /* \"#utility.yul\":3353:3522   */\ntag_25:\n    /* \"#utility.yul\":3397:3403   */\n  0x00\n    /* \"#utility.yul\":3430:3481   */\n  tag_70\n    /* \"#utility.yul\":3478:3479   */\n  0x00\n    /* \"#utility.yul\":3474:3480   */\n  not\n    /* \"#utility.yul\":3466:3471   */\n  dup5\n    /* \"#utility.yul\":3463:3464   */\n  0x08\n    /* \"#utility.yul\":3459:3472   */\n  mul\n    /* \"#utility.yul\":3430:3481   */\n  tag_24\n  jump\t// in\ntag_70:\n    /* \"#utility.yul\":3426:3482   */\n  not\n    /* \"#utility.yul\":3511:3515   */\n  dup1\n    /* \"#utility.yul\":3505:3509   */\n  dup4\n    /* \"#utility.yul\":3501:3516   */\n  and\n    /* \"#utility.yul\":3491:3516   */\n  swap2\n  pop\n    /* \"#utility.yul\":3404:3522   */\n  pop\n    /* \"#utility.yul\":3353:3522   */\n  swap3\n  swap2\n  pop\n  pop\n  jump\t// out\n    /* \"#utility.yul\":3527:3822   */\ntag_26:\n    /* \"#utility.yul\":3603:3607   */\n  0x00\n    /* \"#utility.yul\":3749:3778   */\n  tag_72\n    /* \"#utility.yul\":3774:3777   */\n  dup4\n    /* \"#utility.yul\":3768:3772   */\n  dup4\n    /* \"#utility.yul\":3749:3778   */\n  tag_25\n  jump\t// in\ntag_72:\n    /* \"#utility.yul\":3741:3778   */\n  swap2\n  pop\n    /* \"#utility.yul\":3811:3814   */\n  dup3\n    /* \"#utility.yul\":3808:3809   */\n  0x02\n    /* \"#utility.yul\":3804:3815   */\n  mul\n    /* \"#utility.yul\":3798:3802   */\n  dup3\n    /* \"#utility.yul\":3795:3816   */\n  or\n    /* \"#utility.yul\":3787:3816   */\n  swap1\n  pop\n    /* \"#utility.yul\":3527:3822   */\n  swap3\n  swap2\n  pop\n  pop\n  jump\t// out\n    /* \"#utility.yul\":3827:5225   */\ntag_4:\n    /* \"#utility.yul\":3949:3992   */\n  tag_74\n    /* \"#utility.yul\":3988:3991   */\n  dup4\n    /* \"#utility.yul\":3983:3986   */\n  dup4\n    /* \"#utility.yul\":3949:3992   */\n  tag_7\n  jump\t// in\ntag_74:\n    /* \"#utility.yul\":4057:4075   */\n  0xffffffffffffffff\n    /* \"#utility.yul\":4049:4055   */\n  dup2\n    /* \"#utility.yul\":4046:4076   */\n  gt\n    /* \"#utility.yul\":4043:4099   */\n  iszero\n  tag_75\n  jumpi\n    /* \"#utility.yul\":4079:4097   */\n  tag_76\n  tag_8\n  jump\t// in\ntag_76:\n    /* \"#utility.yul\":4043:4099   */\ntag_75:\n    /* \"#utility.yul\":4123:4161   */\n  tag_77\n    /* \"#utility.yul\":4155:4159   */\n  dup3\n    /* \"#utility.yul\":4149:4160   */\n  sload\n    /* \"#utility.yul\":4123:4161   */\n  tag_10\n  jump\t// in\ntag_77:\n    /* \"#utility.yul\":4208:4274   */\n  tag_78\n    /* \"#utility.yul\":4267:4273   */\n  dup3\n    /* \"#utility.yul\":4259:4265   */\n  dup3\n    /* \"#utility.yul\":4253:4257   */\n  dup6\n    /* \"#utility.yul\":4208:4274   */\n  tag_23\n  jump\t// in\ntag_78:\n    /* \"#utility.yul\":4301:4302   */\n  0x00\n    /* \"#utility.yul\":4330:4332   */\n  0x1f\n    /* \"#utility.yul\":4322:4328   */\n  dup4\n    /* \"#utility.yul\":4319:4333   */\n  gt\n    /* \"#utility.yul\":4347:4348   */\n  0x01\n    /* \"#utility.yul\":4342:4973   */\n  dup2\n  eq\n  tag_80\n  jumpi\n    /* \"#utility.yul\":5017:5018   */\n  0x00\n    /* \"#utility.yul\":5034:5040   */\n  dup5\n    /* \"#utility.yul\":5031:5115   */\n  iszero\n  tag_81\n  jumpi\n    /* \"#utility.yul\":5090:5099   */\n  dup3\n    /* \"#utility.yul\":5085:5088   */\n  dup8\n    /* \"#utility.yul\":5081:5100   */\n  add\n    /* \"#utility.yul\":5068:5101   */\n  calldataload\n    /* \"#utility.yul\":5059:5101   */\n  swap1\n  pop\n    /* \"#utility.yul\":5031:5115   */\ntag_81:\n    /* \"#utility.yul\":5141:5208   */\n  tag_82\n    /* \"#utility.yul\":5201:5207   */\n  dup6\n    /* \"#utility.yul\":5194:5199   */\n  dup3\n    /* \"#utility.yul\":5141:5208   */\n  tag_26\n  jump\t// in\ntag_82:\n    /* \"#utility.yul\":5135:5139   */\n  dup7\n    /* \"#utility.yul\":5128:5209   */\n  sstore\n    /* \"#utility.yul\":4990:5219   */\n  pop\n    /* \"#utility.yul\":4312:5219   */\n  jump(tag_79)\n    /* \"#utility.yul\":4342:4973   */\ntag_80:\n    /* \"#utility.yul\":4394:4398   */\n  0x1f\n    /* \"#utility.yul\":4390:4399   */\n  not\n    /* \"#utility.yul\":4382:4388   */\n  dup5\n    /* \"#utility.yul\":4378:4400   */\n  and\n    /* \"#utility.yul\":4428:4464   */\n  tag_83\n    /* \"#utility.yul\":4459:4463   */\n  dup7\n    /* \"#utility.yul\":4428:4464   */\n  tag_11\n  jump\t// in\ntag_83:\n    /* \"#utility.yul\":4486:4487   */\n  0x00\n    /* \"#utility.yul\":4500:4715   */\ntag_84:\n    /* \"#utility.yul\":4514:4521   */\n  dup3\n    /* \"#utility.yul\":4511:4512   */\n  dup2\n    /* \"#utility.yul\":4508:4522   */\n  lt\n    /* \"#utility.yul\":4500:4715   */\n  iszero\n  tag_86\n  jumpi\n    /* \"#utility.yul\":4600:4609   */\n  dup5\n    /* \"#utility.yul\":4595:4598   */\n  dup10\n    /* \"#utility.yul\":4591:4610   */\n  add\n    /* \"#utility.yul\":4578:4611   */\n  calldataload\n    /* \"#utility.yul\":4570:4576   */\n  dup3\n    /* \"#utility.yul\":4563:4612   */\n  sstore\n    /* \"#utility.yul\":4651:4652   */\n  0x01\n    /* \"#utility.yul\":4643:4649   */\n  dup3\n    /* \"#utility.yul\":4639:4653   */\n  add\n    /* \"#utility.yul\":4629:4653   */\n  swap2\n  pop\n    /* \"#utility.yul\":4698:4700   */\n  0x20\n    /* \"#utility.yul\":4687:4696   */\n  dup6\n    /* \"#utility.yul\":4683:4701   */\n  add\n    /* \"#utility.yul\":4670:4701   */\n  swap5\n  pop\n    /* \"#utility.yul\":4537:4541   */\n  0x20\n    /* \"#utility.yul\":4534:4535   */\n  dup2\n    /* \"#utility.yul\":4530:4542   */\n  add\n    /* \"#utility.yul\":4525:4542   */\n  swap1\n  pop\n    /* \"#utility.yul\":4500:4715   */\n  jump(tag_84)\ntag_86:\n    /* \"#utility.yul\":4743:4749   */\n  dup7\n    /* \"#utility.yul\":4734:4741   */\n  dup4\n    /* \"#utility.yul\":4731:4750   */\n  lt\n    /* \"#utility.yul\":4728:4914   */\n  iszero\n  tag_87\n  jumpi\n    /* \"#utility.yul\":4808:4817   */\n  dup5\n    /* \"#utility.yul\":4803:4806   */\n  dup10\n    /* \"#utility.yul\":4799:4818   */\n  add\n    /* \"#utility.yul\":4786:4819   */\n  calldataload\n    /* \"#utility.yul\":4851:4899   */\n  tag_88\n    /* \"#utility.yul\":4893:4897   */\n  0x1f\n    /* \"#utility.yul\":4885:4891   */\n  dup10\n    /* \"#utility.yul\":4881:4898   */\n  and\n    /* \"#utility.yul\":4870:4879   */\n  dup3\n    /* \"#utility.yul\":4851:4899   */\n  tag_25\n  jump\t// in\ntag_88:\n    /* \"#utility.yul\":4843:4849   */\n  dup4\n    /* \"#utility.yul\":4836:4900   */\n  sstore\n    /* \"#utility.yul\":4751:4914   */\n  pop\n    /* \"#utility.yul\":4728:4914   */\ntag_87:\n    /* \"#utility.yul\":4960:4961   */\n  0x01\n    /* \"#utility.yul\":4956:4957   */\n  0x02\n    /* \"#utility.yul\":4948:4954   */\n  dup9\n    /* \"#utility.yul\":4944:4958   */\n  mul\n    /* \"#utility.yul\":4940:4962   */\n  add\n    /* \"#utility.yul\":4934:4938   */\n  dup9\n    /* \"#utility.yul\":4927:4963   */\n  sstore\n    /* \"#utility.yul\":4349:4973   */\n  pop\n  pop\n  pop\n    /* \"#utility.yul\":4312:5219   */\ntag_79:\n  pop\n    /* \"#utility.yul\":3924:5225   */\n  pop\n  pop\n  pop\n    /* \"#utility.yul\":3827:5225   */\n  pop\n  pop\n  pop\n  jump\t// out\n    /* \"contracts/globalVariable.sol\":95:2614  contract GlobalVariable{... */\ntag_6:\n  dataSize(sub_0)\n  dup1\n  dataOffset(sub_0)\n  0x00\n  codecopy\n  0x00\n  return\nstop\n\nsub_0: assembly {\n        /* \"contracts/globalVariable.sol\":95:2614  contract GlobalVariable{... */\n      mstore(0x40, 0x80)\n      callvalue\n      dup1\n      iszero\n      tag_1\n      jumpi\n      0x00\n      dup1\n      revert\n    tag_1:\n      pop\n      jumpi(tag_2, lt(calldatasize, 0x04))\n      shr(0xe0, calldataload(0x00))\n      dup1\n      0x8da5cb5b\n      gt\n      tag_17\n      jumpi\n      dup1\n      0xb80777ea\n      gt\n      tag_18\n      jumpi\n      dup1\n      0xb80777ea\n      eq\n      tag_13\n      jumpi\n      dup1\n      0xe976f0bc\n      eq\n      tag_14\n      jumpi\n      dup1\n      0xf68016b7\n      eq\n      tag_15\n      jumpi\n      dup1\n      0xfe173b97\n      eq\n      tag_16\n      jumpi\n      jump(tag_2)\n    tag_18:\n      dup1\n      0x8da5cb5b\n      eq\n      tag_10\n      jumpi\n      dup1\n      0x938b5f32\n      eq\n      tag_11\n      jumpi\n      dup1\n      0xa6ae0aac\n      eq\n      tag_12\n      jumpi\n      jump(tag_2)\n    tag_17:\n      dup1\n      0x4e417a98\n      gt\n      tag_19\n      jumpi\n      dup1\n      0x4e417a98\n      eq\n      tag_6\n      jumpi\n      dup1\n      0x57e871e7\n      eq\n      tag_7\n      jumpi\n      dup1\n      0x592cdadd\n      eq\n      tag_8\n      jumpi\n      dup1\n      0x621a38e5\n      eq\n      tag_9\n      jumpi\n      jump(tag_2)\n    tag_19:\n      dup1\n      0x19cae462\n      eq\n      tag_3\n      jumpi\n      dup1\n      0x22b22ce8\n      eq\n      tag_4\n      jumpi\n      dup1\n      0x3fa4f245\n      eq\n      tag_5\n      jumpi\n    tag_2:\n      0x00\n      dup1\n      revert\n        /* \"contracts/globalVariable.sol\":406:431  uint256 public difficulty */\n    tag_3:\n      tag_20\n      tag_21\n      jump\t// in\n    tag_20:\n      mload(0x40)\n      tag_22\n      swap2\n      swap1\n      tag_23\n      jump\t// in\n    tag_22:\n      mload(0x40)\n      dup1\n      swap2\n      sub\n      swap1\n      return\n        /* \"contracts/globalVariable.sol\":640:661  uint256 public  nowOn */\n    tag_4:\n      tag_24\n      tag_25\n      jump\t// in\n    tag_24:\n      mload(0x40)\n      tag_26\n      swap2\n      swap1\n      tag_23\n      jump\t// in\n    tag_26:\n      mload(0x40)\n      dup1\n      swap2\n      sub\n      swap1\n      return\n        /* \"contracts/globalVariable.sol\":510:530  uint256 public value */\n    tag_5:\n      tag_27\n      tag_28\n      jump\t// in\n    tag_27:\n      mload(0x40)\n      tag_29\n      swap2\n      swap1\n      tag_23\n      jump\t// in\n    tag_29:\n      mload(0x40)\n      dup1\n      swap2\n      sub\n      swap1\n      return\n        /* \"contracts/globalVariable.sol\":607:629  bytes public  callData */\n    tag_6:\n      tag_30\n      tag_31\n      jump\t// in\n    tag_30:\n      mload(0x40)\n      tag_32\n      swap2\n      swap1\n      tag_33\n      jump\t// in\n    tag_32:\n      mload(0x40)\n      dup1\n      swap2\n      sub\n      swap1\n      return\n        /* \"contracts/globalVariable.sol\":267:293  uint256 public blockNumber */\n    tag_7:\n      tag_34\n      tag_35\n      jump\t// in\n    tag_34:\n      mload(0x40)\n      tag_36\n      swap2\n      swap1\n      tag_23\n      jump\t// in\n    tag_36:\n      mload(0x40)\n      dup1\n      swap2\n      sub\n      swap1\n      return\n        /* \"contracts/globalVariable.sol\":338:360  uint256 public gasUsed */\n    tag_8:\n      tag_37\n      tag_38\n      jump\t// in\n    tag_37:\n      mload(0x40)\n      tag_39\n      swap2\n      swap1\n      tag_23\n      jump\t// in\n    tag_39:\n      mload(0x40)\n      dup1\n      swap2\n      sub\n      swap1\n      return\n        /* \"contracts/globalVariable.sol\":541:564  bytes4 public Firstfour */\n    tag_9:\n      tag_40\n      tag_41\n      jump\t// in\n    tag_40:\n      mload(0x40)\n      tag_42\n      swap2\n      swap1\n      tag_43\n      jump\t// in\n    tag_42:\n      mload(0x40)\n      dup1\n      swap2\n      sub\n      swap1\n      return\n        /* \"contracts/globalVariable.sol\":199:219  address public owner */\n    tag_10:\n      tag_44\n      tag_45\n      jump\t// in\n    tag_44:\n      mload(0x40)\n      tag_46\n      swap2\n      swap1\n      tag_47\n      jump\t// in\n    tag_46:\n      mload(0x40)\n      dup1\n      swap2\n      sub\n      swap1\n      return\n        /* \"contracts/globalVariable.sol\":575:596  address public origin */\n    tag_11:\n      tag_48\n      tag_49\n      jump\t// in\n    tag_48:\n      mload(0x40)\n      tag_50\n      swap2\n      swap1\n      tag_47\n      jump\t// in\n    tag_50:\n      mload(0x40)\n      dup1\n      swap2\n      sub\n      swap1\n      return\n        /* \"contracts/globalVariable.sol\":476:499  address public coinbase */\n    tag_12:\n      tag_51\n      tag_52\n      jump\t// in\n    tag_51:\n      mload(0x40)\n      tag_53\n      swap2\n      swap1\n      tag_47\n      jump\t// in\n    tag_53:\n      mload(0x40)\n      dup1\n      swap2\n      sub\n      swap1\n      return\n        /* \"contracts/globalVariable.sol\":371:395  uint256 public timestamp */\n    tag_13:\n      tag_54\n      tag_55\n      jump\t// in\n    tag_54:\n      mload(0x40)\n      tag_56\n      swap2\n      swap1\n      tag_23\n      jump\t// in\n    tag_56:\n      mload(0x40)\n      dup1\n      swap2\n      sub\n      swap1\n      return\n        /* \"contracts/globalVariable.sol\":230:256  address public Myblockhash */\n    tag_14:\n      tag_57\n      tag_58\n      jump\t// in\n    tag_57:\n      mload(0x40)\n      tag_59\n      swap2\n      swap1\n      tag_47\n      jump\t// in\n    tag_59:\n      mload(0x40)\n      dup1\n      swap2\n      sub\n      swap1\n      return\n        /* \"contracts/globalVariable.sol\":304:327  uint256 public gasLimit */\n    tag_15:\n      tag_60\n      tag_61\n      jump\t// in\n    tag_60:\n      mload(0x40)\n      tag_62\n      swap2\n      swap1\n      tag_23\n      jump\t// in\n    tag_62:\n      mload(0x40)\n      dup1\n      swap2\n      sub\n      swap1\n      return\n        /* \"contracts/globalVariable.sol\":442:465  uint256 public gasPrice */\n    tag_16:\n      tag_63\n      tag_64\n      jump\t// in\n    tag_63:\n      mload(0x40)\n      tag_65\n      swap2\n      swap1\n      tag_23\n      jump\t// in\n    tag_65:\n      mload(0x40)\n      dup1\n      swap2\n      sub\n      swap1\n      return\n        /* \"contracts/globalVariable.sol\":406:431  uint256 public difficulty */\n    tag_21:\n      sload(0x06)\n      dup2\n      jump\t// out\n        /* \"contracts/globalVariable.sol\":640:661  uint256 public  nowOn */\n    tag_25:\n      sload(0x0c)\n      dup2\n      jump\t// out\n        /* \"contracts/globalVariable.sol\":510:530  uint256 public value */\n    tag_28:\n      sload(0x09)\n      dup2\n      jump\t// out\n        /* \"contracts/globalVariable.sol\":607:629  bytes public  callData */\n    tag_31:\n      0x0b\n      dup1\n      sload\n      tag_66\n      swap1\n      tag_67\n      jump\t// in\n    tag_66:\n      dup1\n      0x1f\n      add\n      0x20\n      dup1\n      swap2\n      div\n      mul\n      0x20\n      add\n      mload(0x40)\n      swap1\n      dup2\n      add\n      0x40\n      mstore\n      dup1\n      swap3\n      swap2\n      swap1\n      dup2\n      dup2\n      mstore\n      0x20\n      add\n      dup3\n      dup1\n      sload\n      tag_68\n      swap1\n      tag_67\n      jump\t// in\n    tag_68:\n      dup1\n      iszero\n      tag_69\n      jumpi\n      dup1\n      0x1f\n      lt\n      tag_70\n      jumpi\n      0x0100\n      dup1\n      dup4\n      sload\n      div\n      mul\n      dup4\n      mstore\n      swap2\n      0x20\n      add\n      swap2\n      jump(tag_69)\n    tag_70:\n      dup3\n      add\n      swap2\n      swap1\n      0x00\n      mstore\n      keccak256(0x00, 0x20)\n      swap1\n    tag_71:\n      dup2\n      sload\n      dup2\n      mstore\n      swap1\n      0x01\n      add\n      swap1\n      0x20\n      add\n      dup1\n      dup4\n      gt\n      tag_71\n      jumpi\n      dup3\n      swap1\n      sub\n      0x1f\n      and\n      dup3\n      add\n      swap2\n    tag_69:\n      pop\n      pop\n      pop\n      pop\n      pop\n      dup2\n      jump\t// out\n        /* \"contracts/globalVariable.sol\":267:293  uint256 public blockNumber */\n    tag_35:\n      sload(0x02)\n      dup2\n      jump\t// out\n        /* \"contracts/globalVariable.sol\":338:360  uint256 public gasUsed */\n    tag_38:\n      sload(0x04)\n      dup2\n      jump\t// out\n        /* \"contracts/globalVariable.sol\":541:564  bytes4 public Firstfour */\n    tag_41:\n      0x0a\n      0x00\n      swap1\n      sload\n      swap1\n      0x0100\n      exp\n      swap1\n      div\n      0xe0\n      shl\n      dup2\n      jump\t// out\n        /* \"contracts/globalVariable.sol\":199:219  address public owner */\n    tag_45:\n      0x00\n      dup1\n      sload\n      swap1\n      0x0100\n      exp\n      swap1\n      div\n      0xffffffffffffffffffffffffffffffffffffffff\n      and\n      dup2\n      jump\t// out\n        /* \"contracts/globalVariable.sol\":575:596  address public origin */\n    tag_49:\n      0x0a\n      0x04\n      swap1\n      sload\n      swap1\n      0x0100\n      exp\n      swap1\n      div\n      0xffffffffffffffffffffffffffffffffffffffff\n      and\n      dup2\n      jump\t// out\n        /* \"contracts/globalVariable.sol\":476:499  address public coinbase */\n    tag_52:\n      0x08\n      0x00\n      swap1\n      sload\n      swap1\n      0x0100\n      exp\n      swap1\n      div\n      0xffffffffffffffffffffffffffffffffffffffff\n      and\n      dup2\n      jump\t// out\n        /* \"contracts/globalVariable.sol\":371:395  uint256 public timestamp */\n    tag_55:\n      sload(0x05)\n      dup2\n      jump\t// out\n        /* \"contracts/globalVariable.sol\":230:256  address public Myblockhash */\n    tag_58:\n      0x01\n      0x00\n      swap1\n      sload\n      swap1\n      0x0100\n      exp\n      swap1\n      div\n      0xffffffffffffffffffffffffffffffffffffffff\n      and\n      dup2\n      jump\t// out\n        /* \"contracts/globalVariable.sol\":304:327  uint256 public gasLimit */\n    tag_61:\n      sload(0x03)\n      dup2\n      jump\t// out\n        /* \"contracts/globalVariable.sol\":442:465  uint256 public gasPrice */\n    tag_64:\n      sload(0x07)\n      dup2\n      jump\t// out\n        /* \"#utility.yul\":7:84   */\n    tag_72:\n        /* \"#utility.yul\":44:51   */\n      0x00\n        /* \"#utility.yul\":73:78   */\n      dup2\n        /* \"#utility.yul\":62:78   */\n      swap1\n      pop\n        /* \"#utility.yul\":7:84   */\n      swap2\n      swap1\n      pop\n      jump\t// out\n        /* \"#utility.yul\":90:208   */\n    tag_73:\n        /* \"#utility.yul\":177:201   */\n      tag_88\n        /* \"#utility.yul\":195:200   */\n      dup2\n        /* \"#utility.yul\":177:201   */\n      tag_72\n      jump\t// in\n    tag_88:\n        /* \"#utility.yul\":172:175   */\n      dup3\n        /* \"#utility.yul\":165:202   */\n      mstore\n        /* \"#utility.yul\":90:208   */\n      pop\n      pop\n      jump\t// out\n        /* \"#utility.yul\":214:436   */\n    tag_23:\n        /* \"#utility.yul\":307:311   */\n      0x00\n        /* \"#utility.yul\":345:347   */\n      0x20\n        /* \"#utility.yul\":334:343   */\n      dup3\n        /* \"#utility.yul\":330:348   */\n      add\n        /* \"#utility.yul\":322:348   */\n      swap1\n      pop\n        /* \"#utility.yul\":358:429   */\n      tag_90\n        /* \"#utility.yul\":426:427   */\n      0x00\n        /* \"#utility.yul\":415:424   */\n      dup4\n        /* \"#utility.yul\":411:428   */\n      add\n        /* \"#utility.yul\":402:408   */\n      dup5\n        /* \"#utility.yul\":358:429   */\n      tag_73\n      jump\t// in\n    tag_90:\n        /* \"#utility.yul\":214:436   */\n      swap3\n      swap2\n      pop\n      pop\n      jump\t// out\n        /* \"#utility.yul\":442:540   */\n    tag_74:\n        /* \"#utility.yul\":493:499   */\n      0x00\n        /* \"#utility.yul\":527:532   */\n      dup2\n        /* \"#utility.yul\":521:533   */\n      mload\n        /* \"#utility.yul\":511:533   */\n      swap1\n      pop\n        /* \"#utility.yul\":442:540   */\n      swap2\n      swap1\n      pop\n      jump\t// out\n        /* \"#utility.yul\":546:714   */\n    tag_75:\n        /* \"#utility.yul\":629:640   */\n      0x00\n        /* \"#utility.yul\":663:669   */\n      dup3\n        /* \"#utility.yul\":658:661   */\n      dup3\n        /* \"#utility.yul\":651:670   */\n      mstore\n        /* \"#utility.yul\":703:707   */\n      0x20\n        /* \"#utility.yul\":698:701   */\n      dup3\n        /* \"#utility.yul\":694:708   */\n      add\n        /* \"#utility.yul\":679:708   */\n      swap1\n      pop\n        /* \"#utility.yul\":546:714   */\n      swap3\n      swap2\n      pop\n      pop\n      jump\t// out\n        /* \"#utility.yul\":720:859   */\n    tag_76:\n        /* \"#utility.yul\":809:815   */\n      dup3\n        /* \"#utility.yul\":804:807   */\n      dup2\n        /* \"#utility.yul\":799:802   */\n      dup4\n        /* \"#utility.yul\":793:816   */\n      mcopy\n        /* \"#utility.yul\":850:851   */\n      0x00\n        /* \"#utility.yul\":841:847   */\n      dup4\n        /* \"#utility.yul\":836:839   */\n      dup4\n        /* \"#utility.yul\":832:848   */\n      add\n        /* \"#utility.yul\":825:852   */\n      mstore\n        /* \"#utility.yul\":720:859   */\n      pop\n      pop\n      pop\n      jump\t// out\n        /* \"#utility.yul\":865:967   */\n    tag_77:\n        /* \"#utility.yul\":906:912   */\n      0x00\n        /* \"#utility.yul\":957:959   */\n      0x1f\n        /* \"#utility.yul\":953:960   */\n      not\n        /* \"#utility.yul\":948:950   */\n      0x1f\n        /* \"#utility.yul\":941:946   */\n      dup4\n        /* \"#utility.yul\":937:951   */\n      add\n        /* \"#utility.yul\":933:961   */\n      and\n        /* \"#utility.yul\":923:961   */\n      swap1\n      pop\n        /* \"#utility.yul\":865:967   */\n      swap2\n      swap1\n      pop\n      jump\t// out\n        /* \"#utility.yul\":973:1346   */\n    tag_78:\n        /* \"#utility.yul\":1059:1062   */\n      0x00\n        /* \"#utility.yul\":1087:1125   */\n      tag_96\n        /* \"#utility.yul\":1119:1124   */\n      dup3\n        /* \"#utility.yul\":1087:1125   */\n      tag_74\n      jump\t// in\n    tag_96:\n        /* \"#utility.yul\":1141:1211   */\n      tag_97\n        /* \"#utility.yul\":1204:1210   */\n      dup2\n        /* \"#utility.yul\":1199:1202   */\n      dup6\n        /* \"#utility.yul\":1141:1211   */\n      tag_75\n      jump\t// in\n    tag_97:\n        /* \"#utility.yul\":1134:1211   */\n      swap4\n      pop\n        /* \"#utility.yul\":1220:1285   */\n      tag_98\n        /* \"#utility.yul\":1278:1284   */\n      dup2\n        /* \"#utility.yul\":1273:1276   */\n      dup6\n        /* \"#utility.yul\":1266:1270   */\n      0x20\n        /* \"#utility.yul\":1259:1264   */\n      dup7\n        /* \"#utility.yul\":1255:1271   */\n      add\n        /* \"#utility.yul\":1220:1285   */\n      tag_76\n      jump\t// in\n    tag_98:\n        /* \"#utility.yul\":1310:1339   */\n      tag_99\n        /* \"#utility.yul\":1332:1338   */\n      dup2\n        /* \"#utility.yul\":1310:1339   */\n      tag_77\n      jump\t// in\n    tag_99:\n        /* \"#utility.yul\":1305:1308   */\n      dup5\n        /* \"#utility.yul\":1301:1340   */\n      add\n        /* \"#utility.yul\":1294:1340   */\n      swap2\n      pop\n        /* \"#utility.yul\":1063:1346   */\n      pop\n        /* \"#utility.yul\":973:1346   */\n      swap3\n      swap2\n      pop\n      pop\n      jump\t// out\n        /* \"#utility.yul\":1352:1661   */\n    tag_33:\n        /* \"#utility.yul\":1463:1467   */\n      0x00\n        /* \"#utility.yul\":1501:1503   */\n      0x20\n        /* \"#utility.yul\":1490:1499   */\n      dup3\n        /* \"#utility.yul\":1486:1504   */\n      add\n        /* \"#utility.yul\":1478:1504   */\n      swap1\n      pop\n        /* \"#utility.yul\":1550:1559   */\n      dup2\n        /* \"#utility.yul\":1544:1548   */\n      dup2\n        /* \"#utility.yul\":1540:1560   */\n      sub\n        /* \"#utility.yul\":1536:1537   */\n      0x00\n        /* \"#utility.yul\":1525:1534   */\n      dup4\n        /* \"#utility.yul\":1521:1538   */\n      add\n        /* \"#utility.yul\":1514:1561   */\n      mstore\n        /* \"#utility.yul\":1578:1654   */\n      tag_101\n        /* \"#utility.yul\":1649:1653   */\n      dup2\n        /* \"#utility.yul\":1640:1646   */\n      dup5\n        /* \"#utility.yul\":1578:1654   */\n      tag_78\n      jump\t// in\n    tag_101:\n        /* \"#utility.yul\":1570:1654   */\n      swap1\n      pop\n        /* \"#utility.yul\":1352:1661   */\n      swap3\n      swap2\n      pop\n      pop\n      jump\t// out\n        /* \"#utility.yul\":1667:1816   */\n    tag_79:\n        /* \"#utility.yul\":1703:1710   */\n      0x00\n        /* \"#utility.yul\":1743:1809   */\n      0xffffffff00000000000000000000000000000000000000000000000000000000\n        /* \"#utility.yul\":1736:1741   */\n      dup3\n        /* \"#utility.yul\":1732:1810   */\n      and\n        /* \"#utility.yul\":1721:1810   */\n      swap1\n      pop\n        /* \"#utility.yul\":1667:1816   */\n      swap2\n      swap1\n      pop\n      jump\t// out\n        /* \"#utility.yul\":1822:1937   */\n    tag_80:\n        /* \"#utility.yul\":1907:1930   */\n      tag_104\n        /* \"#utility.yul\":1924:1929   */\n      dup2\n        /* \"#utility.yul\":1907:1930   */\n      tag_79\n      jump\t// in\n    tag_104:\n        /* \"#utility.yul\":1902:1905   */\n      dup3\n        /* \"#utility.yul\":1895:1931   */\n      mstore\n        /* \"#utility.yul\":1822:1937   */\n      pop\n      pop\n      jump\t// out\n        /* \"#utility.yul\":1943:2161   */\n    tag_43:\n        /* \"#utility.yul\":2034:2038   */\n      0x00\n        /* \"#utility.yul\":2072:2074   */\n      0x20\n        /* \"#utility.yul\":2061:2070   */\n      dup3\n        /* \"#utility.yul\":2057:2075   */\n      add\n        /* \"#utility.yul\":2049:2075   */\n      swap1\n      pop\n        /* \"#utility.yul\":2085:2154   */\n      tag_106\n        /* \"#utility.yul\":2151:2152   */\n      0x00\n        /* \"#utility.yul\":2140:2149   */\n      dup4\n        /* \"#utility.yul\":2136:2153   */\n      add\n        /* \"#utility.yul\":2127:2133   */\n      dup5\n        /* \"#utility.yul\":2085:2154   */\n      tag_80\n      jump\t// in\n    tag_106:\n        /* \"#utility.yul\":1943:2161   */\n      swap3\n      swap2\n      pop\n      pop\n      jump\t// out\n        /* \"#utility.yul\":2167:2293   */\n    tag_81:\n        /* \"#utility.yul\":2204:2211   */\n      0x00\n        /* \"#utility.yul\":2244:2286   */\n      0xffffffffffffffffffffffffffffffffffffffff\n        /* \"#utility.yul\":2237:2242   */\n      dup3\n        /* \"#utility.yul\":2233:2287   */\n      and\n        /* \"#utility.yul\":2222:2287   */\n      swap1\n      pop\n        /* \"#utility.yul\":2167:2293   */\n      swap2\n      swap1\n      pop\n      jump\t// out\n        /* \"#utility.yul\":2299:2395   */\n    tag_82:\n        /* \"#utility.yul\":2336:2343   */\n      0x00\n        /* \"#utility.yul\":2365:2389   */\n      tag_109\n        /* \"#utility.yul\":2383:2388   */\n      dup3\n        /* \"#utility.yul\":2365:2389   */\n      tag_81\n      jump\t// in\n    tag_109:\n        /* \"#utility.yul\":2354:2389   */\n      swap1\n      pop\n        /* \"#utility.yul\":2299:2395   */\n      swap2\n      swap1\n      pop\n      jump\t// out\n        /* \"#utility.yul\":2401:2519   */\n    tag_83:\n        /* \"#utility.yul\":2488:2512   */\n      tag_111\n        /* \"#utility.yul\":2506:2511   */\n      dup2\n        /* \"#utility.yul\":2488:2512   */\n      tag_82\n      jump\t// in\n    tag_111:\n        /* \"#utility.yul\":2483:2486   */\n      dup3\n        /* \"#utility.yul\":2476:2513   */\n      mstore\n        /* \"#utility.yul\":2401:2519   */\n      pop\n      pop\n      jump\t// out\n        /* \"#utility.yul\":2525:2747   */\n    tag_47:\n        /* \"#utility.yul\":2618:2622   */\n      0x00\n        /* \"#utility.yul\":2656:2658   */\n      0x20\n        /* \"#utility.yul\":2645:2654   */\n      dup3\n        /* \"#utility.yul\":2641:2659   */\n      add\n        /* \"#utility.yul\":2633:2659   */\n      swap1\n      pop\n        /* \"#utility.yul\":2669:2740   */\n      tag_113\n        /* \"#utility.yul\":2737:2738   */\n      0x00\n        /* \"#utility.yul\":2726:2735   */\n      dup4\n        /* \"#utility.yul\":2722:2739   */\n      add\n        /* \"#utility.yul\":2713:2719   */\n      dup5\n        /* \"#utility.yul\":2669:2740   */\n      tag_83\n      jump\t// in\n    tag_113:\n        /* \"#utility.yul\":2525:2747   */\n      swap3\n      swap2\n      pop\n      pop\n      jump\t// out\n        /* \"#utility.yul\":2753:2933   */\n    tag_84:\n        /* \"#utility.yul\":2801:2878   */\n      0x4e487b7100000000000000000000000000000000000000000000000000000000\n        /* \"#utility.yul\":2798:2799   */\n      0x00\n        /* \"#utility.yul\":2791:2879   */\n      mstore\n        /* \"#utility.yul\":2898:2902   */\n      0x22\n        /* \"#utility.yul\":2895:2896   */\n      0x04\n        /* \"#utility.yul\":2888:2903   */\n      mstore\n        /* \"#utility.yul\":2922:2926   */\n      0x24\n        /* \"#utility.yul\":2919:2920   */\n      0x00\n        /* \"#utility.yul\":2912:2927   */\n      revert\n        /* \"#utility.yul\":2939:3259   */\n    tag_67:\n        /* \"#utility.yul\":2983:2989   */\n      0x00\n        /* \"#utility.yul\":3020:3021   */\n      0x02\n        /* \"#utility.yul\":3014:3018   */\n      dup3\n        /* \"#utility.yul\":3010:3022   */\n      div\n        /* \"#utility.yul\":3000:3022   */\n      swap1\n      pop\n        /* \"#utility.yul\":3067:3068   */\n      0x01\n        /* \"#utility.yul\":3061:3065   */\n      dup3\n        /* \"#utility.yul\":3057:3069   */\n      and\n        /* \"#utility.yul\":3088:3106   */\n      dup1\n        /* \"#utility.yul\":3078:3159   */\n      tag_116\n      jumpi\n        /* \"#utility.yul\":3144:3148   */\n      0x7f\n        /* \"#utility.yul\":3136:3142   */\n      dup3\n        /* \"#utility.yul\":3132:3149   */\n      and\n        /* \"#utility.yul\":3122:3149   */\n      swap2\n      pop\n        /* \"#utility.yul\":3078:3159   */\n    tag_116:\n        /* \"#utility.yul\":3206:3208   */\n      0x20\n        /* \"#utility.yul\":3198:3204   */\n      dup3\n        /* \"#utility.yul\":3195:3209   */\n      lt\n        /* \"#utility.yul\":3175:3193   */\n      dup2\n        /* \"#utility.yul\":3172:3210   */\n      sub\n        /* \"#utility.yul\":3169:3253   */\n      tag_117\n      jumpi\n        /* \"#utility.yul\":3225:3243   */\n      tag_118\n      tag_84\n      jump\t// in\n    tag_118:\n        /* \"#utility.yul\":3169:3253   */\n    tag_117:\n        /* \"#utility.yul\":2990:3259   */\n      pop\n        /* \"#utility.yul\":2939:3259   */\n      swap2\n      swap1\n      pop\n      jump\t// out\n\n    auxdata: 0xa2646970667358221220b51b49817d435f7032147c16665089717438ecd8771b4170d1ca7cfe5d862fa764736f6c634300081a0033\n}\n",
				"bytecode": {
					"linkReferences": {},
					"object": "6080604052335f806101000a81548173ffffffffffffffffffffffffffffffffffffffff021916908373ffffffffffffffffffffffffffffffffffffffff1602179055503060015f6101000a81548173ffffffffffffffffffffffffffffffffffffffff021916908373ffffffffffffffffffffffffffffffffffffffff16021790555043600281905550456003819055505a60048190555042600581905550446006819055503a6007819055504160085f6101000a81548173ffffffffffffffffffffffffffffffffffffffff021916908373ffffffffffffffffffffffffffffffffffffffff160217905550346009819055505f357fffffffff0000000000000000000000000000000000000000000000000000000016600a5f6101000a81548163ffffffff021916908360e01c021790555032600a60046101000a81548173ffffffffffffffffffffffffffffffffffffffff021916908373ffffffffffffffffffffffffffffffffffffffff1602179055505f36600b9182610186929190610518565b505a600c819055503060015f6101000a81548173ffffffffffffffffffffffffffffffffffffffff021916908373ffffffffffffffffffffffffffffffffffffffff16021790555043600281905550456003819055505a60048190555042600581905550446006819055503a6007819055504160085f6101000a81548173ffffffffffffffffffffffffffffffffffffffff021916908373ffffffffffffffffffffffffffffffffffffffff160217905550346009819055505f357fffffffff0000000000000000000000000000000000000000000000000000000016600a5f6101000a81548163ffffffff021916908360e01c021790555032600a60046101000a81548173ffffffffffffffffffffffffffffffffffffffff021916908373ffffffffffffffffffffffffffffffffffffffff1602179055505f36600b91826102d1929190610518565b505a600c819055506105e5565b5f82905092915050565b7f4e487b71000000000000000000000000000000000000000000000000000000005f52604160045260245ffd5b7f4e487b71000000000000000000000000000000000000000000000000000000005f52602260045260245ffd5b5f600282049050600182168061035957607f821691505b60208210810361036c5761036b610315565b5b50919050565b5f819050815f5260205f209050919050565b5f6020601f8301049050919050565b5f82821b905092915050565b5f600883026103ce7fffffffffffffffffffffffffffffffffffffffffffffffffffffffffffffffff82610393565b6103d88683610393565b95508019841693508086168417925050509392505050565b5f819050919050565b5f819050919050565b5f61041c610417610412846103f0565b6103f9565b6103f0565b9050919050565b5f819050919050565b61043583610402565b61044961044182610423565b84845461039f565b825550505050565b5f90565b61045d610451565b61046881848461042c565b505050565b5b8181101561048b576104805f82610455565b60018101905061046e565b5050565b601f8211156104d0576104a181610372565b6104aa84610384565b810160208510156104b9578190505b6104cd6104c585610384565b83018261046d565b50505b505050565b5f82821c905092915050565b5f6104f05f19846008026104d5565b1980831691505092915050565b5f61050883836104e1565b9150826002028217905092915050565b61052283836102de565b67ffffffffffffffff81111561053b5761053a6102e8565b5b6105458254610342565b61055082828561048f565b5f601f83116001811461057d575f841561056b578287013590505b61057585826104fd565b8655506105dc565b601f19841661058b86610372565b5f5b828110156105b25784890135825560018201915060208501945060208101905061058d565b868310156105cf57848901356105cb601f8916826104e1565b8355505b6001600288020188555050505b50505050505050565b6105f0806105f25f395ff3fe608060405234801561000f575f80fd5b50600436106100e8575f3560e01c80638da5cb5b1161008a578063b80777ea11610064578063b80777ea14610218578063e976f0bc14610236578063f68016b714610254578063fe173b9714610272576100e8565b80638da5cb5b146101be578063938b5f32146101dc578063a6ae0aac146101fa576100e8565b80634e417a98116100c65780634e417a981461014657806357e871e714610164578063592cdadd14610182578063621a38e5146101a0576100e8565b806319cae462146100ec57806322b22ce81461010a5780633fa4f24514610128575b5f80fd5b6100f4610290565b6040516101019190610409565b60405180910390f35b610112610296565b60405161011f9190610409565b60405180910390f35b61013061029c565b60405161013d9190610409565b60405180910390f35b61014e6102a2565b60405161015b9190610492565b60405180910390f35b61016c61032e565b6040516101799190610409565b60405180910390f35b61018a610334565b6040516101979190610409565b60405180910390f35b6101a861033a565b6040516101b591906104ec565b60405180910390f35b6101c661034c565b6040516101d39190610544565b60405180910390f35b6101e461036f565b6040516101f19190610544565b60405180910390f35b610202610395565b60405161020f9190610544565b60405180910390f35b6102206103ba565b60405161022d9190610409565b60405180910390f35b61023e6103c0565b60405161024b9190610544565b60405180910390f35b61025c6103e5565b6040516102699190610409565b60405180910390f35b61027a6103eb565b6040516102879190610409565b60405180910390f35b60065481565b600c5481565b60095481565b600b80546102af9061058a565b80601f01602080910402602001604051908101604052809291908181526020018280546102db9061058a565b80156103265780601f106102fd57610100808354040283529160200191610326565b820191905f5260205f20905b81548152906001019060200180831161030957829003601f168201915b505050505081565b60025481565b60045481565b600a5f9054906101000a900460e01b81565b5f8054906101000a900473ffffffffffffffffffffffffffffffffffffffff1681565b600a60049054906101000a900473ffffffffffffffffffffffffffffffffffffffff1681565b60085f9054906101000a900473ffffffffffffffffffffffffffffffffffffffff1681565b60055481565b60015f9054906101000a900473ffffffffffffffffffffffffffffffffffffffff1681565b60035481565b60075481565b5f819050919050565b610403816103f1565b82525050565b5f60208201905061041c5f8301846103fa565b92915050565b5f81519050919050565b5f82825260208201905092915050565b8281835e5f83830152505050565b5f601f19601f8301169050919050565b5f61046482610422565b61046e818561042c565b935061047e81856020860161043c565b6104878161044a565b840191505092915050565b5f6020820190508181035f8301526104aa818461045a565b905092915050565b5f7fffffffff0000000000000000000000000000000000000000000000000000000082169050919050565b6104e6816104b2565b82525050565b5f6020820190506104ff5f8301846104dd565b92915050565b5f73ffffffffffffffffffffffffffffffffffffffff82169050919050565b5f61052e82610505565b9050919050565b61053e81610524565b82525050565b5f6020820190506105575f830184610535565b92915050565b7f4e487b71000000000000000000000000000000000000000000000000000000005f52602260045260245ffd5b5f60028204905060018216806105a157607f821691505b6020821081036105b4576105b361055d565b5b5091905056fea2646970667358221220b51b49817d435f7032147c16665089717438ecd8771b4170d1ca7cfe5d862fa764736f6c634300081a0033",
					"opcodes": "PUSH1 0x80 PUSH1 0x40 MSTORE CALLER PUSH0 DUP1 PUSH2 0x100 EXP DUP2 SLOAD DUP2 PUSH20 0xFFFFFFFFFFFFFFFFFFFFFFFFFFFFFFFFFFFFFFFF MUL NOT AND SWAP1 DUP4 PUSH20 0xFFFFFFFFFFFFFFFFFFFFFFFFFFFFFFFFFFFFFFFF AND MUL OR SWAP1 SSTORE POP ADDRESS PUSH1 0x1 PUSH0 PUSH2 0x100 EXP DUP2 SLOAD DUP2 PUSH20 0xFFFFFFFFFFFFFFFFFFFFFFFFFFFFFFFFFFFFFFFF MUL NOT AND SWAP1 DUP4 PUSH20 0xFFFFFFFFFFFFFFFFFFFFFFFFFFFFFFFFFFFFFFFF AND MUL OR SWAP1 SSTORE POP NUMBER PUSH1 0x2 DUP2 SWAP1 SSTORE POP GASLIMIT PUSH1 0x3 DUP2 SWAP1 SSTORE POP GAS PUSH1 0x4 DUP2 SWAP1 SSTORE POP TIMESTAMP PUSH1 0x5 DUP2 SWAP1 SSTORE POP PREVRANDAO PUSH1 0x6 DUP2 SWAP1 SSTORE POP GASPRICE PUSH1 0x7 DUP2 SWAP1 SSTORE POP COINBASE PUSH1 0x8 PUSH0 PUSH2 0x100 EXP DUP2 SLOAD DUP2 PUSH20 0xFFFFFFFFFFFFFFFFFFFFFFFFFFFFFFFFFFFFFFFF MUL NOT AND SWAP1 DUP4 PUSH20 0xFFFFFFFFFFFFFFFFFFFFFFFFFFFFFFFFFFFFFFFF AND MUL OR SWAP1 SSTORE POP CALLVALUE PUSH1 0x9 DUP2 SWAP1 SSTORE POP PUSH0 CALLDATALOAD PUSH32 0xFFFFFFFF00000000000000000000000000000000000000000000000000000000 AND PUSH1 0xA PUSH0 PUSH2 0x100 EXP DUP2 SLOAD DUP2 PUSH4 0xFFFFFFFF MUL NOT AND SWAP1 DUP4 PUSH1 0xE0 SHR MUL OR SWAP1 SSTORE POP ORIGIN PUSH1 0xA PUSH1 0x4 PUSH2 0x100 EXP DUP2 SLOAD DUP2 PUSH20 0xFFFFFFFFFFFFFFFFFFFFFFFFFFFFFFFFFFFFFFFF MUL NOT AND SWAP1 DUP4 PUSH20 0xFFFFFFFFFFFFFFFFFFFFFFFFFFFFFFFFFFFFFFFF AND MUL OR SWAP1 SSTORE POP PUSH0 CALLDATASIZE PUSH1 0xB SWAP2 DUP3 PUSH2 0x186 SWAP3 SWAP2 SWAP1 PUSH2 0x518 JUMP JUMPDEST POP GAS PUSH1 0xC DUP2 SWAP1 SSTORE POP ADDRESS PUSH1 0x1 PUSH0 PUSH2 0x100 EXP DUP2 SLOAD DUP2 PUSH20 0xFFFFFFFFFFFFFFFFFFFFFFFFFFFFFFFFFFFFFFFF MUL NOT AND SWAP1 DUP4 PUSH20 0xFFFFFFFFFFFFFFFFFFFFFFFFFFFFFFFFFFFFFFFF AND MUL OR SWAP1 SSTORE POP NUMBER PUSH1 0x2 DUP2 SWAP1 SSTORE POP GASLIMIT PUSH1 0x3 DUP2 SWAP1 SSTORE POP GAS PUSH1 0x4 DUP2 SWAP1 SSTORE POP TIMESTAMP PUSH1 0x5 DUP2 SWAP1 SSTORE POP PREVRANDAO PUSH1 0x6 DUP2 SWAP1 SSTORE POP GASPRICE PUSH1 0x7 DUP2 SWAP1 SSTORE POP COINBASE PUSH1 0x8 PUSH0 PUSH2 0x100 EXP DUP2 SLOAD DUP2 PUSH20 0xFFFFFFFFFFFFFFFFFFFFFFFFFFFFFFFFFFFFFFFF MUL NOT AND SWAP1 DUP4 PUSH20 0xFFFFFFFFFFFFFFFFFFFFFFFFFFFFFFFFFFFFFFFF AND MUL OR SWAP1 SSTORE POP CALLVALUE PUSH1 0x9 DUP2 SWAP1 SSTORE POP PUSH0 CALLDATALOAD PUSH32 0xFFFFFFFF00000000000000000000000000000000000000000000000000000000 AND PUSH1 0xA PUSH0 PUSH2 0x100 EXP DUP2 SLOAD DUP2 PUSH4 0xFFFFFFFF MUL NOT AND SWAP1 DUP4 PUSH1 0xE0 SHR MUL OR SWAP1 SSTORE POP ORIGIN PUSH1 0xA PUSH1 0x4 PUSH2 0x100 EXP DUP2 SLOAD DUP2 PUSH20 0xFFFFFFFFFFFFFFFFFFFFFFFFFFFFFFFFFFFFFFFF MUL NOT AND SWAP1 DUP4 PUSH20 0xFFFFFFFFFFFFFFFFFFFFFFFFFFFFFFFFFFFFFFFF AND MUL OR SWAP1 SSTORE POP PUSH0 CALLDATASIZE PUSH1 0xB SWAP2 DUP3 PUSH2 0x2D1 SWAP3 SWAP2 SWAP1 PUSH2 0x518 JUMP JUMPDEST POP GAS PUSH1 0xC DUP2 SWAP1 SSTORE POP PUSH2 0x5E5 JUMP JUMPDEST PUSH0 DUP3 SWAP1 POP SWAP3 SWAP2 POP POP JUMP JUMPDEST PUSH32 0x4E487B7100000000000000000000000000000000000000000000000000000000 PUSH0 MSTORE PUSH1 0x41 PUSH1 0x4 MSTORE PUSH1 0x24 PUSH0 REVERT JUMPDEST PUSH32 0x4E487B7100000000000000000000000000000000000000000000000000000000 PUSH0 MSTORE PUSH1 0x22 PUSH1 0x4 MSTORE PUSH1 0x24 PUSH0 REVERT JUMPDEST PUSH0 PUSH1 0x2 DUP3 DIV SWAP1 POP PUSH1 0x1 DUP3 AND DUP1 PUSH2 0x359 JUMPI PUSH1 0x7F DUP3 AND SWAP2 POP JUMPDEST PUSH1 0x20 DUP3 LT DUP2 SUB PUSH2 0x36C JUMPI PUSH2 0x36B PUSH2 0x315 JUMP JUMPDEST JUMPDEST POP SWAP2 SWAP1 POP JUMP JUMPDEST PUSH0 DUP2 SWAP1 POP DUP2 PUSH0 MSTORE PUSH1 0x20 PUSH0 KECCAK256 SWAP1 POP SWAP2 SWAP1 POP JUMP JUMPDEST PUSH0 PUSH1 0x20 PUSH1 0x1F DUP4 ADD DIV SWAP1 POP SWAP2 SWAP1 POP JUMP JUMPDEST PUSH0 DUP3 DUP3 SHL SWAP1 POP SWAP3 SWAP2 POP POP JUMP JUMPDEST PUSH0 PUSH1 0x8 DUP4 MUL PUSH2 0x3CE PUSH32 0xFFFFFFFFFFFFFFFFFFFFFFFFFFFFFFFFFFFFFFFFFFFFFFFFFFFFFFFFFFFFFFFF DUP3 PUSH2 0x393 JUMP JUMPDEST PUSH2 0x3D8 DUP7 DUP4 PUSH2 0x393 JUMP JUMPDEST SWAP6 POP DUP1 NOT DUP5 AND SWAP4 POP DUP1 DUP7 AND DUP5 OR SWAP3 POP POP POP SWAP4 SWAP3 POP POP POP JUMP JUMPDEST PUSH0 DUP2 SWAP1 POP SWAP2 SWAP1 POP JUMP JUMPDEST PUSH0 DUP2 SWAP1 POP SWAP2 SWAP1 POP JUMP JUMPDEST PUSH0 PUSH2 0x41C PUSH2 0x417 PUSH2 0x412 DUP5 PUSH2 0x3F0 JUMP JUMPDEST PUSH2 0x3F9 JUMP JUMPDEST PUSH2 0x3F0 JUMP JUMPDEST SWAP1 POP SWAP2 SWAP1 POP JUMP JUMPDEST PUSH0 DUP2 SWAP1 POP SWAP2 SWAP1 POP JUMP JUMPDEST PUSH2 0x435 DUP4 PUSH2 0x402 JUMP JUMPDEST PUSH2 0x449 PUSH2 0x441 DUP3 PUSH2 0x423 JUMP JUMPDEST DUP5 DUP5 SLOAD PUSH2 0x39F JUMP JUMPDEST DUP3 SSTORE POP POP POP POP JUMP JUMPDEST PUSH0 SWAP1 JUMP JUMPDEST PUSH2 0x45D PUSH2 0x451 JUMP JUMPDEST PUSH2 0x468 DUP2 DUP5 DUP5 PUSH2 0x42C JUMP JUMPDEST POP POP POP JUMP JUMPDEST JUMPDEST DUP2 DUP2 LT ISZERO PUSH2 0x48B JUMPI PUSH2 0x480 PUSH0 DUP3 PUSH2 0x455 JUMP JUMPDEST PUSH1 0x1 DUP2 ADD SWAP1 POP PUSH2 0x46E JUMP JUMPDEST POP POP JUMP JUMPDEST PUSH1 0x1F DUP3 GT ISZERO PUSH2 0x4D0 JUMPI PUSH2 0x4A1 DUP2 PUSH2 0x372 JUMP JUMPDEST PUSH2 0x4AA DUP5 PUSH2 0x384 JUMP JUMPDEST DUP2 ADD PUSH1 0x20 DUP6 LT ISZERO PUSH2 0x4B9 JUMPI DUP2 SWAP1 POP JUMPDEST PUSH2 0x4CD PUSH2 0x4C5 DUP6 PUSH2 0x384 JUMP JUMPDEST DUP4 ADD DUP3 PUSH2 0x46D JUMP JUMPDEST POP POP JUMPDEST POP POP POP JUMP JUMPDEST PUSH0 DUP3 DUP3 SHR SWAP1 POP SWAP3 SWAP2 POP POP JUMP JUMPDEST PUSH0 PUSH2 0x4F0 PUSH0 NOT DUP5 PUSH1 0x8 MUL PUSH2 0x4D5 JUMP JUMPDEST NOT DUP1 DUP4 AND SWAP2 POP POP SWAP3 SWAP2 POP POP JUMP JUMPDEST PUSH0 PUSH2 0x508 DUP4 DUP4 PUSH2 0x4E1 JUMP JUMPDEST SWAP2 POP DUP3 PUSH1 0x2 MUL DUP3 OR SWAP1 POP SWAP3 SWAP2 POP POP JUMP JUMPDEST PUSH2 0x522 DUP4 DUP4 PUSH2 0x2DE JUMP JUMPDEST PUSH8 0xFFFFFFFFFFFFFFFF DUP2 GT ISZERO PUSH2 0x53B JUMPI PUSH2 0x53A PUSH2 0x2E8 JUMP JUMPDEST JUMPDEST PUSH2 0x545 DUP3 SLOAD PUSH2 0x342 JUMP JUMPDEST PUSH2 0x550 DUP3 DUP3 DUP6 PUSH2 0x48F JUMP JUMPDEST PUSH0 PUSH1 0x1F DUP4 GT PUSH1 0x1 DUP2 EQ PUSH2 0x57D JUMPI PUSH0 DUP5 ISZERO PUSH2 0x56B JUMPI DUP3 DUP8 ADD CALLDATALOAD SWAP1 POP JUMPDEST PUSH2 0x575 DUP6 DUP3 PUSH2 0x4FD JUMP JUMPDEST DUP7 SSTORE POP PUSH2 0x5DC JUMP JUMPDEST PUSH1 0x1F NOT DUP5 AND PUSH2 0x58B DUP7 PUSH2 0x372 JUMP JUMPDEST PUSH0 JUMPDEST DUP3 DUP2 LT ISZERO PUSH2 0x5B2 JUMPI DUP5 DUP10 ADD CALLDATALOAD DUP3 SSTORE PUSH1 0x1 DUP3 ADD SWAP2 POP PUSH1 0x20 DUP6 ADD SWAP5 POP PUSH1 0x20 DUP2 ADD SWAP1 POP PUSH2 0x58D JUMP JUMPDEST DUP7 DUP4 LT ISZERO PUSH2 0x5CF JUMPI DUP5 DUP10 ADD CALLDATALOAD PUSH2 0x5CB PUSH1 0x1F DUP10 AND DUP3 PUSH2 0x4E1 JUMP JUMPDEST DUP4 SSTORE POP JUMPDEST PUSH1 0x1 PUSH1 0x2 DUP9 MUL ADD DUP9 SSTORE POP POP POP JUMPDEST POP POP POP POP POP POP POP JUMP JUMPDEST PUSH2 0x5F0 DUP1 PUSH2 0x5F2 PUSH0 CODECOPY PUSH0 RETURN INVALID PUSH1 0x80 PUSH1 0x40 MSTORE CALLVALUE DUP1 ISZERO PUSH2 0xF JUMPI PUSH0 DUP1 REVERT JUMPDEST POP PUSH1 0x4 CALLDATASIZE LT PUSH2 0xE8 JUMPI PUSH0 CALLDATALOAD PUSH1 0xE0 SHR DUP1 PUSH4 0x8DA5CB5B GT PUSH2 0x8A JUMPI DUP1 PUSH4 0xB80777EA GT PUSH2 0x64 JUMPI DUP1 PUSH4 0xB80777EA EQ PUSH2 0x218 JUMPI DUP1 PUSH4 0xE976F0BC EQ PUSH2 0x236 JUMPI DUP1 PUSH4 0xF68016B7 EQ PUSH2 0x254 JUMPI DUP1 PUSH4 0xFE173B97 EQ PUSH2 0x272 JUMPI PUSH2 0xE8 JUMP JUMPDEST DUP1 PUSH4 0x8DA5CB5B EQ PUSH2 0x1BE JUMPI DUP1 PUSH4 0x938B5F32 EQ PUSH2 0x1DC JUMPI DUP1 PUSH4 0xA6AE0AAC EQ PUSH2 0x1FA JUMPI PUSH2 0xE8 JUMP JUMPDEST DUP1 PUSH4 0x4E417A98 GT PUSH2 0xC6 JUMPI DUP1 PUSH4 0x4E417A98 EQ PUSH2 0x146 JUMPI DUP1 PUSH4 0x57E871E7 EQ PUSH2 0x164 JUMPI DUP1 PUSH4 0x592CDADD EQ PUSH2 0x182 JUMPI DUP1 PUSH4 0x621A38E5 EQ PUSH2 0x1A0 JUMPI PUSH2 0xE8 JUMP JUMPDEST DUP1 PUSH4 0x19CAE462 EQ PUSH2 0xEC JUMPI DUP1 PUSH4 0x22B22CE8 EQ PUSH2 0x10A JUMPI DUP1 PUSH4 0x3FA4F245 EQ PUSH2 0x128 JUMPI JUMPDEST PUSH0 DUP1 REVERT JUMPDEST PUSH2 0xF4 PUSH2 0x290 JUMP JUMPDEST PUSH1 0x40 MLOAD PUSH2 0x101 SWAP2 SWAP1 PUSH2 0x409 JUMP JUMPDEST PUSH1 0x40 MLOAD DUP1 SWAP2 SUB SWAP1 RETURN JUMPDEST PUSH2 0x112 PUSH2 0x296 JUMP JUMPDEST PUSH1 0x40 MLOAD PUSH2 0x11F SWAP2 SWAP1 PUSH2 0x409 JUMP JUMPDEST PUSH1 0x40 MLOAD DUP1 SWAP2 SUB SWAP1 RETURN JUMPDEST PUSH2 0x130 PUSH2 0x29C JUMP JUMPDEST PUSH1 0x40 MLOAD PUSH2 0x13D SWAP2 SWAP1 PUSH2 0x409 JUMP JUMPDEST PUSH1 0x40 MLOAD DUP1 SWAP2 SUB SWAP1 RETURN JUMPDEST PUSH2 0x14E PUSH2 0x2A2 JUMP JUMPDEST PUSH1 0x40 MLOAD PUSH2 0x15B SWAP2 SWAP1 PUSH2 0x492 JUMP JUMPDEST PUSH1 0x40 MLOAD DUP1 SWAP2 SUB SWAP1 RETURN JUMPDEST PUSH2 0x16C PUSH2 0x32E JUMP JUMPDEST PUSH1 0x40 MLOAD PUSH2 0x179 SWAP2 SWAP1 PUSH2 0x409 JUMP JUMPDEST PUSH1 0x40 MLOAD DUP1 SWAP2 SUB SWAP1 RETURN JUMPDEST PUSH2 0x18A PUSH2 0x334 JUMP JUMPDEST PUSH1 0x40 MLOAD PUSH2 0x197 SWAP2 SWAP1 PUSH2 0x409 JUMP JUMPDEST PUSH1 0x40 MLOAD DUP1 SWAP2 SUB SWAP1 RETURN JUMPDEST PUSH2 0x1A8 PUSH2 0x33A JUMP JUMPDEST PUSH1 0x40 MLOAD PUSH2 0x1B5 SWAP2 SWAP1 PUSH2 0x4EC JUMP JUMPDEST PUSH1 0x40 MLOAD DUP1 SWAP2 SUB SWAP1 RETURN JUMPDEST PUSH2 0x1C6 PUSH2 0x34C JUMP JUMPDEST PUSH1 0x40 MLOAD PUSH2 0x1D3 SWAP2 SWAP1 PUSH2 0x544 JUMP JUMPDEST PUSH1 0x40 MLOAD DUP1 SWAP2 SUB SWAP1 RETURN JUMPDEST PUSH2 0x1E4 PUSH2 0x36F JUMP JUMPDEST PUSH1 0x40 MLOAD PUSH2 0x1F1 SWAP2 SWAP1 PUSH2 0x544 JUMP JUMPDEST PUSH1 0x40 MLOAD DUP1 SWAP2 SUB SWAP1 RETURN JUMPDEST PUSH2 0x202 PUSH2 0x395 JUMP JUMPDEST PUSH1 0x40 MLOAD PUSH2 0x20F SWAP2 SWAP1 PUSH2 0x544 JUMP JUMPDEST PUSH1 0x40 MLOAD DUP1 SWAP2 SUB SWAP1 RETURN JUMPDEST PUSH2 0x220 PUSH2 0x3BA JUMP JUMPDEST PUSH1 0x40 MLOAD PUSH2 0x22D SWAP2 SWAP1 PUSH2 0x409 JUMP JUMPDEST PUSH1 0x40 MLOAD DUP1 SWAP2 SUB SWAP1 RETURN JUMPDEST PUSH2 0x23E PUSH2 0x3C0 JUMP JUMPDEST PUSH1 0x40 MLOAD PUSH2 0x24B SWAP2 SWAP1 PUSH2 0x544 JUMP JUMPDEST PUSH1 0x40 MLOAD DUP1 SWAP2 SUB SWAP1 RETURN JUMPDEST PUSH2 0x25C PUSH2 0x3E5 JUMP JUMPDEST PUSH1 0x40 MLOAD PUSH2 0x269 SWAP2 SWAP1 PUSH2 0x409 JUMP JUMPDEST PUSH1 0x40 MLOAD DUP1 SWAP2 SUB SWAP1 RETURN JUMPDEST PUSH2 0x27A PUSH2 0x3EB JUMP JUMPDEST PUSH1 0x40 MLOAD PUSH2 0x287 SWAP2 SWAP1 PUSH2 0x409 JUMP JUMPDEST PUSH1 0x40 MLOAD DUP1 SWAP2 SUB SWAP1 RETURN JUMPDEST PUSH1 0x6 SLOAD DUP2 JUMP JUMPDEST PUSH1 0xC SLOAD DUP2 JUMP JUMPDEST PUSH1 0x9 SLOAD DUP2 JUMP JUMPDEST PUSH1 0xB DUP1 SLOAD PUSH2 0x2AF SWAP1 PUSH2 0x58A JUMP JUMPDEST DUP1 PUSH1 0x1F ADD PUSH1 0x20 DUP1 SWAP2 DIV MUL PUSH1 0x20 ADD PUSH1 0x40 MLOAD SWAP1 DUP2 ADD PUSH1 0x40 MSTORE DUP1 SWAP3 SWAP2 SWAP1 DUP2 DUP2 MSTORE PUSH1 0x20 ADD DUP3 DUP1 SLOAD PUSH2 0x2DB SWAP1 PUSH2 0x58A JUMP JUMPDEST DUP1 ISZERO PUSH2 0x326 JUMPI DUP1 PUSH1 0x1F LT PUSH2 0x2FD JUMPI PUSH2 0x100 DUP1 DUP4 SLOAD DIV MUL DUP4 MSTORE SWAP2 PUSH1 0x20 ADD SWAP2 PUSH2 0x326 JUMP JUMPDEST DUP3 ADD SWAP2 SWAP1 PUSH0 MSTORE PUSH1 0x20 PUSH0 KECCAK256 SWAP1 JUMPDEST DUP2 SLOAD DUP2 MSTORE SWAP1 PUSH1 0x1 ADD SWAP1 PUSH1 0x20 ADD DUP1 DUP4 GT PUSH2 0x309 JUMPI DUP3 SWAP1 SUB PUSH1 0x1F AND DUP3 ADD SWAP2 JUMPDEST POP POP POP POP POP DUP2 JUMP JUMPDEST PUSH1 0x2 SLOAD DUP2 JUMP JUMPDEST PUSH1 0x4 SLOAD DUP2 JUMP JUMPDEST PUSH1 0xA PUSH0 SWAP1 SLOAD SWAP1 PUSH2 0x100 EXP SWAP1 DIV PUSH1 0xE0 SHL DUP2 JUMP JUMPDEST PUSH0 DUP1 SLOAD SWAP1 PUSH2 0x100 EXP SWAP1 DIV PUSH20 0xFFFFFFFFFFFFFFFFFFFFFFFFFFFFFFFFFFFFFFFF AND DUP2 JUMP JUMPDEST PUSH1 0xA PUSH1 0x4 SWAP1 SLOAD SWAP1 PUSH2 0x100 EXP SWAP1 DIV PUSH20 0xFFFFFFFFFFFFFFFFFFFFFFFFFFFFFFFFFFFFFFFF AND DUP2 JUMP JUMPDEST PUSH1 0x8 PUSH0 SWAP1 SLOAD SWAP1 PUSH2 0x100 EXP SWAP1 DIV PUSH20 0xFFFFFFFFFFFFFFFFFFFFFFFFFFFFFFFFFFFFFFFF AND DUP2 JUMP JUMPDEST PUSH1 0x5 SLOAD DUP2 JUMP JUMPDEST PUSH1 0x1 PUSH0 SWAP1 SLOAD SWAP1 PUSH2 0x100 EXP SWAP1 DIV PUSH20 0xFFFFFFFFFFFFFFFFFFFFFFFFFFFFFFFFFFFFFFFF AND DUP2 JUMP JUMPDEST PUSH1 0x3 SLOAD DUP2 JUMP JUMPDEST PUSH1 0x7 SLOAD DUP2 JUMP JUMPDEST PUSH0 DUP2 SWAP1 POP SWAP2 SWAP1 POP JUMP JUMPDEST PUSH2 0x403 DUP2 PUSH2 0x3F1 JUMP JUMPDEST DUP3 MSTORE POP POP JUMP JUMPDEST PUSH0 PUSH1 0x20 DUP3 ADD SWAP1 POP PUSH2 0x41C PUSH0 DUP4 ADD DUP5 PUSH2 0x3FA JUMP JUMPDEST SWAP3 SWAP2 POP POP JUMP JUMPDEST PUSH0 DUP2 MLOAD SWAP1 POP SWAP2 SWAP1 POP JUMP JUMPDEST PUSH0 DUP3 DUP3 MSTORE PUSH1 0x20 DUP3 ADD SWAP1 POP SWAP3 SWAP2 POP POP JUMP JUMPDEST DUP3 DUP2 DUP4 MCOPY PUSH0 DUP4 DUP4 ADD MSTORE POP POP POP JUMP JUMPDEST PUSH0 PUSH1 0x1F NOT PUSH1 0x1F DUP4 ADD AND SWAP1 POP SWAP2 SWAP1 POP JUMP JUMPDEST PUSH0 PUSH2 0x464 DUP3 PUSH2 0x422 JUMP JUMPDEST PUSH2 0x46E DUP2 DUP6 PUSH2 0x42C JUMP JUMPDEST SWAP4 POP PUSH2 0x47E DUP2 DUP6 PUSH1 0x20 DUP7 ADD PUSH2 0x43C JUMP JUMPDEST PUSH2 0x487 DUP2 PUSH2 0x44A JUMP JUMPDEST DUP5 ADD SWAP2 POP POP SWAP3 SWAP2 POP POP JUMP JUMPDEST PUSH0 PUSH1 0x20 DUP3 ADD SWAP1 POP DUP2 DUP2 SUB PUSH0 DUP4 ADD MSTORE PUSH2 0x4AA DUP2 DUP5 PUSH2 0x45A JUMP JUMPDEST SWAP1 POP SWAP3 SWAP2 POP POP JUMP JUMPDEST PUSH0 PUSH32 0xFFFFFFFF00000000000000000000000000000000000000000000000000000000 DUP3 AND SWAP1 POP SWAP2 SWAP1 POP JUMP JUMPDEST PUSH2 0x4E6 DUP2 PUSH2 0x4B2 JUMP JUMPDEST DUP3 MSTORE POP POP JUMP JUMPDEST PUSH0 PUSH1 0x20 DUP3 ADD SWAP1 POP PUSH2 0x4FF PUSH0 DUP4 ADD DUP5 PUSH2 0x4DD JUMP JUMPDEST SWAP3 SWAP2 POP POP JUMP JUMPDEST PUSH0 PUSH20 0xFFFFFFFFFFFFFFFFFFFFFFFFFFFFFFFFFFFFFFFF DUP3 AND SWAP1 POP SWAP2 SWAP1 POP JUMP JUMPDEST PUSH0 PUSH2 0x52E DUP3 PUSH2 0x505 JUMP JUMPDEST SWAP1 POP SWAP2 SWAP1 POP JUMP JUMPDEST PUSH2 0x53E DUP2 PUSH2 0x524 JUMP JUMPDEST DUP3 MSTORE POP POP JUMP JUMPDEST PUSH0 PUSH1 0x20 DUP3 ADD SWAP1 POP PUSH2 0x557 PUSH0 DUP4 ADD DUP5 PUSH2 0x535 JUMP JUMPDEST SWAP3 SWAP2 POP POP JUMP JUMPDEST PUSH32 0x4E487B7100000000000000000000000000000000000000000000000000000000 PUSH0 MSTORE PUSH1 0x22 PUSH1 0x4 MSTORE PUSH1 0x24 PUSH0 REVERT JUMPDEST PUSH0 PUSH1 0x2 DUP3 DIV SWAP1 POP PUSH1 0x1 DUP3 AND DUP1 PUSH2 0x5A1 JUMPI PUSH1 0x7F DUP3 AND SWAP2 POP JUMPDEST PUSH1 0x20 DUP3 LT DUP2 SUB PUSH2 0x5B4 JUMPI PUSH2 0x5B3 PUSH2 0x55D JUMP JUMPDEST JUMPDEST POP SWAP2 SWAP1 POP JUMP INVALID LOG2 PUSH5 0x6970667358 0x22 SLT KECCAK256 0xB5 SHL BLOBHASH DUP2 PUSH30 0x435F7032147C16665089717438ECD8771B4170D1CA7CFE5D862FA764736F PUSH13 0x634300081A0033000000000000 "
				},
				"gasEstimates": {
					"creation": {
						"codeDepositCost": "304000",
						"executionCost": "infinite",
						"totalCost": "infinite"
					},
					"external": {
						"Firstfour()": "2555",
						"Myblockhash()": "2552",
						"blockNumber()": "2470",
						"callData()": "infinite",
						"coinbase()": "2575",
						"difficulty()": "2449",
						"gasLimit()": "2491",
						"gasPrice()": "2513",
						"gasUsed()": "2492",
						"nowOn()": "2471",
						"origin()": "2604",
						"owner()": "2528",
						"timestamp()": "2447",
						"value()": "2493"
					}
				},
				"methodIdentifiers": {
					"Firstfour()": "621a38e5",
					"Myblockhash()": "e976f0bc",
					"blockNumber()": "57e871e7",
					"callData()": "4e417a98",
					"coinbase()": "a6ae0aac",
					"difficulty()": "19cae462",
					"gasLimit()": "f68016b7",
					"gasPrice()": "fe173b97",
					"gasUsed()": "592cdadd",
					"nowOn()": "22b22ce8",
					"origin()": "938b5f32",
					"owner()": "8da5cb5b",
					"timestamp()": "b80777ea",
					"value()": "3fa4f245"
				}
			},
			"storageLayout": {
				"storage": [
					{
						"astId": 3,
						"contract": "contracts/globalVariable.sol:GlobalVariable",
						"label": "owner",
						"offset": 0,
						"slot": "0",
						"type": "t_address"
					},
					{
						"astId": 5,
						"contract": "contracts/globalVariable.sol:GlobalVariable",
						"label": "Myblockhash",
						"offset": 0,
						"slot": "1",
						"type": "t_address"
					},
					{
						"astId": 7,
						"contract": "contracts/globalVariable.sol:GlobalVariable",
						"label": "blockNumber",
						"offset": 0,
						"slot": "2",
						"type": "t_uint256"
					},
					{
						"astId": 9,
						"contract": "contracts/globalVariable.sol:GlobalVariable",
						"label": "gasLimit",
						"offset": 0,
						"slot": "3",
						"type": "t_uint256"
					},
					{
						"astId": 11,
						"contract": "contracts/globalVariable.sol:GlobalVariable",
						"label": "gasUsed",
						"offset": 0,
						"slot": "4",
						"type": "t_uint256"
					},
					{
						"astId": 13,
						"contract": "contracts/globalVariable.sol:GlobalVariable",
						"label": "timestamp",
						"offset": 0,
						"slot": "5",
						"type": "t_uint256"
					},
					{
						"astId": 15,
						"contract": "contracts/globalVariable.sol:GlobalVariable",
						"label": "difficulty",
						"offset": 0,
						"slot": "6",
						"type": "t_uint256"
					},
					{
						"astId": 17,
						"contract": "contracts/globalVariable.sol:GlobalVariable",
						"label": "gasPrice",
						"offset": 0,
						"slot": "7",
						"type": "t_uint256"
					},
					{
						"astId": 19,
						"contract": "contracts/globalVariable.sol:GlobalVariable",
						"label": "coinbase",
						"offset": 0,
						"slot": "8",
						"type": "t_address"
					},
					{
						"astId": 21,
						"contract": "contracts/globalVariable.sol:GlobalVariable",
						"label": "value",
						"offset": 0,
						"slot": "9",
						"type": "t_uint256"
					},
					{
						"astId": 23,
						"contract": "contracts/globalVariable.sol:GlobalVariable",
						"label": "Firstfour",
						"offset": 0,
						"slot": "10",
						"type": "t_bytes4"
					},
					{
						"astId": 25,
						"contract": "contracts/globalVariable.sol:GlobalVariable",
						"label": "origin",
						"offset": 4,
						"slot": "10",
						"type": "t_address"
					},
					{
						"astId": 27,
						"contract": "contracts/globalVariable.sol:GlobalVariable",
						"label": "callData",
						"offset": 0,
						"slot": "11",
						"type": "t_bytes_storage"
					},
					{
						"astId": 29,
						"contract": "contracts/globalVariable.sol:GlobalVariable",
						"label": "nowOn",
						"offset": 0,
						"slot": "12",
						"type": "t_uint256"
					}
				],
				"types": {
					"t_address": {
						"encoding": "inplace",
						"label": "address",
						"numberOfBytes": "20"
					},
					"t_bytes4": {
						"encoding": "inplace",
						"label": "bytes4",
						"numberOfBytes": "4"
					},
					"t_bytes_storage": {
						"encoding": "bytes",
						"label": "bytes",
						"numberOfBytes": "32"
					},
					"t_uint256": {
						"encoding": "inplace",
						"label": "uint256",
						"numberOfBytes": "32"
					}
				}
			},
			"userdoc": {
				"kind": "user",
				"methods": {},
				"version": 1
			}
		}
	}
}