{
	"data": {
		"bytecode": {
			"linkReferences": {},
			"object": "608060405260015f60016101000a81548160ff02191690831515021790555060ff60015561ffff60025f6101000a81548161ffff021916908361ffff16021790555060016002806101000a81548160ff021916908360ff1602179055506101c8600355607b6004557fffffffffffffffffffffffffffffffffffffffffffffffffffffffffffffffff60055f6101000a81548160ff02191690835f0b60ff1602179055506101c86006557ffffffffffffffffffffffffffffffffffffffffffffffffffffffffffffff3e76007557f80000000000000000000000000000000000000000000000000000000000000006008557f7fffffffffffffffffffffffffffffffffffffffffffffffffffffffffffffff60095560b760f81b600a60016101000a81548160ff021916908360f81c0217905550735b38da6a701c568545dcfcb03fcb875f56beddc4600b5f6101000a81548173ffffffffffffffffffffffffffffffffffffffff021916908373ffffffffffffffffffffffffffffffffffffffff160217905550348015610193575f80fd5b506108a0806101a15f395ff3fe608060405234801561000f575f80fd5b5060043610610140575f3560e01c80637e4e14cc116100b6578063bebacf361161007a578063bebacf3614610324578063c6a898c514610342578063c74bd03814610360578063d668f5b51461037e578063e5aa3d581461039c578063e96b824a146103ba57610140565b80637e4e14cc1461028e578063a99dca3f146102ac578063ab3a58a3146102ca578063b6c52ae8146102e8578063bde2b5731461030657610140565b80634c27fd62116101085780634c27fd62146101da5780634df7e3d0146101f85780635abe622b146102165780635c10169314610234578063767800de146102525780637a4c25711461027057610140565b806304b8de59146101445780630dbe671f146101625780631570c2cb14610180578063459b1acf1461019e578063485a9fc3146101bc575b5f80fd5b61014c6103d8565b60405161015991906105b9565b60405180910390f35b61016a6103e0565b604051610177919061060c565b60405180910390f35b6101886103f2565b60405161019591906105b9565b60405180910390f35b6101a66103f8565b6040516101b391906105b9565b60405180910390f35b6101c46103fe565b6040516101d1919061063f565b60405180910390f35b6101e261040f565b6040516101ef9190610670565b60405180910390f35b610200610415565b60405161020d919061060c565b60405180910390f35b61021e610428565b60405161022b9190610670565b60405180910390f35b61023c61042e565b60405161024991906106c8565b60405180910390f35b61025a610453565b60405161026791906106c8565b60405180910390f35b610278610478565b6040516102859190610670565b60405180910390f35b61029661047e565b6040516102a39190610670565b60405180910390f35b6102b4610484565b6040516102c191906106c8565b60405180910390f35b6102d26104aa565b6040516102df91906106fc565b60405180910390f35b6102f06104bb565b6040516102fd919061072f565b60405180910390f35b61030e6104cd565b60405161031b919061072f565b60405180910390f35b61032c6104dd565b6040516103399190610764565b60405180910390f35b61034a6104f0565b60405161035791906105b9565b60405180910390f35b6103686104f6565b60405161037591906105b9565b60405180910390f35b6103866104fc565b604051610393919061072f565b60405180910390f35b6103a461050f565b6040516103b19190610670565b60405180910390f35b6103c2610515565b6040516103cf91906107ed565b60405180910390f35b63ffffffff81565b600a5f9054906101000a900460f81b81565b600c5481565b60035481565b60055f9054906101000a90045f0b81565b60065481565b600a60019054906101000a900460f81b81565b600d5481565b600e5f9054906101000a900473ffffffffffffffffffffffffffffffffffffffff1681565b600b5f9054906101000a900473ffffffffffffffffffffffffffffffffffffffff1681565b60095481565b60085481565b600a60029054906101000a900473ffffffffffffffffffffffffffffffffffffffff1681565b60028054906101000a900460ff1681565b5f60019054906101000a900460ff1681565b5f8054906101000a900460ff1681565b60025f9054906101000a900461ffff1681565b60045481565b60015481565b600b60149054906101000a900460ff1681565b60075481565b600f80546105229061083a565b80601f016020809104026020016040519081016040528092919081815260200182805461054e9061083a565b80156105995780601f1061057057610100808354040283529160200191610599565b820191905f5260205f20905b81548152906001019060200180831161057c57829003601f168201915b505050505081565b5f819050919050565b6105b3816105a1565b82525050565b5f6020820190506105cc5f8301846105aa565b92915050565b5f7fff0000000000000000000000000000000000000000000000000000000000000082169050919050565b610606816105d2565b82525050565b5f60208201905061061f5f8301846105fd565b92915050565b5f815f0b9050919050565b61063981610625565b82525050565b5f6020820190506106525f830184610630565b92915050565b5f819050919050565b61066a81610658565b82525050565b5f6020820190506106835f830184610661565b92915050565b5f73ffffffffffffffffffffffffffffffffffffffff82169050919050565b5f6106b282610689565b9050919050565b6106c2816106a8565b82525050565b5f6020820190506106db5f8301846106b9565b92915050565b5f60ff82169050919050565b6106f6816106e1565b82525050565b5f60208201905061070f5f8301846106ed565b92915050565b5f8115159050919050565b61072981610715565b82525050565b5f6020820190506107425f830184610720565b92915050565b5f61ffff82169050919050565b61075e81610748565b82525050565b5f6020820190506107775f830184610755565b92915050565b5f81519050919050565b5f82825260208201905092915050565b8281835e5f83830152505050565b5f601f19601f8301169050919050565b5f6107bf8261077d565b6107c98185610787565b93506107d9818560208601610797565b6107e2816107a5565b840191505092915050565b5f6020820190508181035f83015261080581846107b5565b905092915050565b7f4e487b71000000000000000000000000000000000000000000000000000000005f52602260045260245ffd5b5f600282049050600182168061085157607f821691505b6020821081036108645761086361080d565b5b5091905056fea264697066735822122042e0eca77bb68aaa718f888e3cdc048798b37966f00ee393b20cc8644f86d16a64736f6c634300081a0033",
			"opcodes": "PUSH1 0x80 PUSH1 0x40 MSTORE PUSH1 0x1 PUSH0 PUSH1 0x1 PUSH2 0x100 EXP DUP2 SLOAD DUP2 PUSH1 0xFF MUL NOT AND SWAP1 DUP4 ISZERO ISZERO MUL OR SWAP1 SSTORE POP PUSH1 0xFF PUSH1 0x1 SSTORE PUSH2 0xFFFF PUSH1 0x2 PUSH0 PUSH2 0x100 EXP DUP2 SLOAD DUP2 PUSH2 0xFFFF MUL NOT AND SWAP1 DUP4 PUSH2 0xFFFF AND MUL OR SWAP1 SSTORE POP PUSH1 0x1 PUSH1 0x2 DUP1 PUSH2 0x100 EXP DUP2 SLOAD DUP2 PUSH1 0xFF MUL NOT AND SWAP1 DUP4 PUSH1 0xFF AND MUL OR SWAP1 SSTORE POP PUSH2 0x1C8 PUSH1 0x3 SSTORE PUSH1 0x7B PUSH1 0x4 SSTORE PUSH32 0xFFFFFFFFFFFFFFFFFFFFFFFFFFFFFFFFFFFFFFFFFFFFFFFFFFFFFFFFFFFFFFFF PUSH1 0x5 PUSH0 PUSH2 0x100 EXP DUP2 SLOAD DUP2 PUSH1 0xFF MUL NOT AND SWAP1 DUP4 PUSH0 SIGNEXTEND PUSH1 0xFF AND MUL OR SWAP1 SSTORE POP PUSH2 0x1C8 PUSH1 0x6 SSTORE PUSH32 0xFFFFFFFFFFFFFFFFFFFFFFFFFFFFFFFFFFFFFFFFFFFFFFFFFFFFFFFFFFFFF3E7 PUSH1 0x7 SSTORE PUSH32 0x8000000000000000000000000000000000000000000000000000000000000000 PUSH1 0x8 SSTORE PUSH32 0x7FFFFFFFFFFFFFFFFFFFFFFFFFFFFFFFFFFFFFFFFFFFFFFFFFFFFFFFFFFFFFFF PUSH1 0x9 SSTORE PUSH1 0xB7 PUSH1 0xF8 SHL PUSH1 0xA PUSH1 0x1 PUSH2 0x100 EXP DUP2 SLOAD DUP2 PUSH1 0xFF MUL NOT AND SWAP1 DUP4 PUSH1 0xF8 SHR MUL OR SWAP1 SSTORE POP PUSH20 0x5B38DA6A701C568545DCFCB03FCB875F56BEDDC4 PUSH1 0xB PUSH0 PUSH2 0x100 EXP DUP2 SLOAD DUP2 PUSH20 0xFFFFFFFFFFFFFFFFFFFFFFFFFFFFFFFFFFFFFFFF MUL NOT AND SWAP1 DUP4 PUSH20 0xFFFFFFFFFFFFFFFFFFFFFFFFFFFFFFFFFFFFFFFF AND MUL OR SWAP1 SSTORE POP CALLVALUE DUP1 ISZERO PUSH2 0x193 JUMPI PUSH0 DUP1 REVERT JUMPDEST POP PUSH2 0x8A0 DUP1 PUSH2 0x1A1 PUSH0 CODECOPY PUSH0 RETURN INVALID PUSH1 0x80 PUSH1 0x40 MSTORE CALLVALUE DUP1 ISZERO PUSH2 0xF JUMPI PUSH0 DUP1 REVERT JUMPDEST POP PUSH1 0x4 CALLDATASIZE LT PUSH2 0x140 JUMPI PUSH0 CALLDATALOAD PUSH1 0xE0 SHR DUP1 PUSH4 0x7E4E14CC GT PUSH2 0xB6 JUMPI DUP1 PUSH4 0xBEBACF36 GT PUSH2 0x7A JUMPI DUP1 PUSH4 0xBEBACF36 EQ PUSH2 0x324 JUMPI DUP1 PUSH4 0xC6A898C5 EQ PUSH2 0x342 JUMPI DUP1 PUSH4 0xC74BD038 EQ PUSH2 0x360 JUMPI DUP1 PUSH4 0xD668F5B5 EQ PUSH2 0x37E JUMPI DUP1 PUSH4 0xE5AA3D58 EQ PUSH2 0x39C JUMPI DUP1 PUSH4 0xE96B824A EQ PUSH2 0x3BA JUMPI PUSH2 0x140 JUMP JUMPDEST DUP1 PUSH4 0x7E4E14CC EQ PUSH2 0x28E JUMPI DUP1 PUSH4 0xA99DCA3F EQ PUSH2 0x2AC JUMPI DUP1 PUSH4 0xAB3A58A3 EQ PUSH2 0x2CA JUMPI DUP1 PUSH4 0xB6C52AE8 EQ PUSH2 0x2E8 JUMPI DUP1 PUSH4 0xBDE2B573 EQ PUSH2 0x306 JUMPI PUSH2 0x140 JUMP JUMPDEST DUP1 PUSH4 0x4C27FD62 GT PUSH2 0x108 JUMPI DUP1 PUSH4 0x4C27FD62 EQ PUSH2 0x1DA JUMPI DUP1 PUSH4 0x4DF7E3D0 EQ PUSH2 0x1F8 JUMPI DUP1 PUSH4 0x5ABE622B EQ PUSH2 0x216 JUMPI DUP1 PUSH4 0x5C101693 EQ PUSH2 0x234 JUMPI DUP1 PUSH4 0x767800DE EQ PUSH2 0x252 JUMPI DUP1 PUSH4 0x7A4C2571 EQ PUSH2 0x270 JUMPI PUSH2 0x140 JUMP JUMPDEST DUP1 PUSH4 0x4B8DE59 EQ PUSH2 0x144 JUMPI DUP1 PUSH4 0xDBE671F EQ PUSH2 0x162 JUMPI DUP1 PUSH4 0x1570C2CB EQ PUSH2 0x180 JUMPI DUP1 PUSH4 0x459B1ACF EQ PUSH2 0x19E JUMPI DUP1 PUSH4 0x485A9FC3 EQ PUSH2 0x1BC JUMPI JUMPDEST PUSH0 DUP1 REVERT JUMPDEST PUSH2 0x14C PUSH2 0x3D8 JUMP JUMPDEST PUSH1 0x40 MLOAD PUSH2 0x159 SWAP2 SWAP1 PUSH2 0x5B9 JUMP JUMPDEST PUSH1 0x40 MLOAD DUP1 SWAP2 SUB SWAP1 RETURN JUMPDEST PUSH2 0x16A PUSH2 0x3E0 JUMP JUMPDEST PUSH1 0x40 MLOAD PUSH2 0x177 SWAP2 SWAP1 PUSH2 0x60C JUMP JUMPDEST PUSH1 0x40 MLOAD DUP1 SWAP2 SUB SWAP1 RETURN JUMPDEST PUSH2 0x188 PUSH2 0x3F2 JUMP JUMPDEST PUSH1 0x40 MLOAD PUSH2 0x195 SWAP2 SWAP1 PUSH2 0x5B9 JUMP JUMPDEST PUSH1 0x40 MLOAD DUP1 SWAP2 SUB SWAP1 RETURN JUMPDEST PUSH2 0x1A6 PUSH2 0x3F8 JUMP JUMPDEST PUSH1 0x40 MLOAD PUSH2 0x1B3 SWAP2 SWAP1 PUSH2 0x5B9 JUMP JUMPDEST PUSH1 0x40 MLOAD DUP1 SWAP2 SUB SWAP1 RETURN JUMPDEST PUSH2 0x1C4 PUSH2 0x3FE JUMP JUMPDEST PUSH1 0x40 MLOAD PUSH2 0x1D1 SWAP2 SWAP1 PUSH2 0x63F JUMP JUMPDEST PUSH1 0x40 MLOAD DUP1 SWAP2 SUB SWAP1 RETURN JUMPDEST PUSH2 0x1E2 PUSH2 0x40F JUMP JUMPDEST PUSH1 0x40 MLOAD PUSH2 0x1EF SWAP2 SWAP1 PUSH2 0x670 JUMP JUMPDEST PUSH1 0x40 MLOAD DUP1 SWAP2 SUB SWAP1 RETURN JUMPDEST PUSH2 0x200 PUSH2 0x415 JUMP JUMPDEST PUSH1 0x40 MLOAD PUSH2 0x20D SWAP2 SWAP1 PUSH2 0x60C JUMP JUMPDEST PUSH1 0x40 MLOAD DUP1 SWAP2 SUB SWAP1 RETURN JUMPDEST PUSH2 0x21E PUSH2 0x428 JUMP JUMPDEST PUSH1 0x40 MLOAD PUSH2 0x22B SWAP2 SWAP1 PUSH2 0x670 JUMP JUMPDEST PUSH1 0x40 MLOAD DUP1 SWAP2 SUB SWAP1 RETURN JUMPDEST PUSH2 0x23C PUSH2 0x42E JUMP JUMPDEST PUSH1 0x40 MLOAD PUSH2 0x249 SWAP2 SWAP1 PUSH2 0x6C8 JUMP JUMPDEST PUSH1 0x40 MLOAD DUP1 SWAP2 SUB SWAP1 RETURN JUMPDEST PUSH2 0x25A PUSH2 0x453 JUMP JUMPDEST PUSH1 0x40 MLOAD PUSH2 0x267 SWAP2 SWAP1 PUSH2 0x6C8 JUMP JUMPDEST PUSH1 0x40 MLOAD DUP1 SWAP2 SUB SWAP1 RETURN JUMPDEST PUSH2 0x278 PUSH2 0x478 JUMP JUMPDEST PUSH1 0x40 MLOAD PUSH2 0x285 SWAP2 SWAP1 PUSH2 0x670 JUMP JUMPDEST PUSH1 0x40 MLOAD DUP1 SWAP2 SUB SWAP1 RETURN JUMPDEST PUSH2 0x296 PUSH2 0x47E JUMP JUMPDEST PUSH1 0x40 MLOAD PUSH2 0x2A3 SWAP2 SWAP1 PUSH2 0x670 JUMP JUMPDEST PUSH1 0x40 MLOAD DUP1 SWAP2 SUB SWAP1 RETURN JUMPDEST PUSH2 0x2B4 PUSH2 0x484 JUMP JUMPDEST PUSH1 0x40 MLOAD PUSH2 0x2C1 SWAP2 SWAP1 PUSH2 0x6C8 JUMP JUMPDEST PUSH1 0x40 MLOAD DUP1 SWAP2 SUB SWAP1 RETURN JUMPDEST PUSH2 0x2D2 PUSH2 0x4AA JUMP JUMPDEST PUSH1 0x40 MLOAD PUSH2 0x2DF SWAP2 SWAP1 PUSH2 0x6FC JUMP JUMPDEST PUSH1 0x40 MLOAD DUP1 SWAP2 SUB SWAP1 RETURN JUMPDEST PUSH2 0x2F0 PUSH2 0x4BB JUMP JUMPDEST PUSH1 0x40 MLOAD PUSH2 0x2FD SWAP2 SWAP1 PUSH2 0x72F JUMP JUMPDEST PUSH1 0x40 MLOAD DUP1 SWAP2 SUB SWAP1 RETURN JUMPDEST PUSH2 0x30E PUSH2 0x4CD JUMP JUMPDEST PUSH1 0x40 MLOAD PUSH2 0x31B SWAP2 SWAP1 PUSH2 0x72F JUMP JUMPDEST PUSH1 0x40 MLOAD DUP1 SWAP2 SUB SWAP1 RETURN JUMPDEST PUSH2 0x32C PUSH2 0x4DD JUMP JUMPDEST PUSH1 0x40 MLOAD PUSH2 0x339 SWAP2 SWAP1 PUSH2 0x764 JUMP JUMPDEST PUSH1 0x40 MLOAD DUP1 SWAP2 SUB SWAP1 RETURN JUMPDEST PUSH2 0x34A PUSH2 0x4F0 JUMP JUMPDEST PUSH1 0x40 MLOAD PUSH2 0x357 SWAP2 SWAP1 PUSH2 0x5B9 JUMP JUMPDEST PUSH1 0x40 MLOAD DUP1 SWAP2 SUB SWAP1 RETURN JUMPDEST PUSH2 0x368 PUSH2 0x4F6 JUMP JUMPDEST PUSH1 0x40 MLOAD PUSH2 0x375 SWAP2 SWAP1 PUSH2 0x5B9 JUMP JUMPDEST PUSH1 0x40 MLOAD DUP1 SWAP2 SUB SWAP1 RETURN JUMPDEST PUSH2 0x386 PUSH2 0x4FC JUMP JUMPDEST PUSH1 0x40 MLOAD PUSH2 0x393 SWAP2 SWAP1 PUSH2 0x72F JUMP JUMPDEST PUSH1 0x40 MLOAD DUP1 SWAP2 SUB SWAP1 RETURN JUMPDEST PUSH2 0x3A4 PUSH2 0x50F JUMP JUMPDEST PUSH1 0x40 MLOAD PUSH2 0x3B1 SWAP2 SWAP1 PUSH2 0x670 JUMP JUMPDEST PUSH1 0x40 MLOAD DUP1 SWAP2 SUB SWAP1 RETURN JUMPDEST PUSH2 0x3C2 PUSH2 0x515 JUMP JUMPDEST PUSH1 0x40 MLOAD PUSH2 0x3CF SWAP2 SWAP1 PUSH2 0x7ED JUMP JUMPDEST PUSH1 0x40 MLOAD DUP1 SWAP2 SUB SWAP1 RETURN JUMPDEST PUSH4 0xFFFFFFFF DUP2 JUMP JUMPDEST PUSH1 0xA PUSH0 SWAP1 SLOAD SWAP1 PUSH2 0x100 EXP SWAP1 DIV PUSH1 0xF8 SHL DUP2 JUMP JUMPDEST PUSH1 0xC SLOAD DUP2 JUMP JUMPDEST PUSH1 0x3 SLOAD DUP2 JUMP JUMPDEST PUSH1 0x5 PUSH0 SWAP1 SLOAD SWAP1 PUSH2 0x100 EXP SWAP1 DIV PUSH0 SIGNEXTEND DUP2 JUMP JUMPDEST PUSH1 0x6 SLOAD DUP2 JUMP JUMPDEST PUSH1 0xA PUSH1 0x1 SWAP1 SLOAD SWAP1 PUSH2 0x100 EXP SWAP1 DIV PUSH1 0xF8 SHL DUP2 JUMP JUMPDEST PUSH1 0xD SLOAD DUP2 JUMP JUMPDEST PUSH1 0xE PUSH0 SWAP1 SLOAD SWAP1 PUSH2 0x100 EXP SWAP1 DIV PUSH20 0xFFFFFFFFFFFFFFFFFFFFFFFFFFFFFFFFFFFFFFFF AND DUP2 JUMP JUMPDEST PUSH1 0xB PUSH0 SWAP1 SLOAD SWAP1 PUSH2 0x100 EXP SWAP1 DIV PUSH20 0xFFFFFFFFFFFFFFFFFFFFFFFFFFFFFFFFFFFFFFFF AND DUP2 JUMP JUMPDEST PUSH1 0x9 SLOAD DUP2 JUMP JUMPDEST PUSH1 0x8 SLOAD DUP2 JUMP JUMPDEST PUSH1 0xA PUSH1 0x2 SWAP1 SLOAD SWAP1 PUSH2 0x100 EXP SWAP1 DIV PUSH20 0xFFFFFFFFFFFFFFFFFFFFFFFFFFFFFFFFFFFFFFFF AND DUP2 JUMP JUMPDEST PUSH1 0x2 DUP1 SLOAD SWAP1 PUSH2 0x100 EXP SWAP1 DIV PUSH1 0xFF AND DUP2 JUMP JUMPDEST PUSH0 PUSH1 0x1 SWAP1 SLOAD SWAP1 PUSH2 0x100 EXP SWAP1 DIV PUSH1 0xFF AND DUP2 JUMP JUMPDEST PUSH0 DUP1 SLOAD SWAP1 PUSH2 0x100 EXP SWAP1 DIV PUSH1 0xFF AND DUP2 JUMP JUMPDEST PUSH1 0x2 PUSH0 SWAP1 SLOAD SWAP1 PUSH2 0x100 EXP SWAP1 DIV PUSH2 0xFFFF AND DUP2 JUMP JUMPDEST PUSH1 0x4 SLOAD DUP2 JUMP JUMPDEST PUSH1 0x1 SLOAD DUP2 JUMP JUMPDEST PUSH1 0xB PUSH1 0x14 SWAP1 SLOAD SWAP1 PUSH2 0x100 EXP SWAP1 DIV PUSH1 0xFF AND DUP2 JUMP JUMPDEST PUSH1 0x7 SLOAD DUP2 JUMP JUMPDEST PUSH1 0xF DUP1 SLOAD PUSH2 0x522 SWAP1 PUSH2 0x83A JUMP JUMPDEST DUP1 PUSH1 0x1F ADD PUSH1 0x20 DUP1 SWAP2 DIV MUL PUSH1 0x20 ADD PUSH1 0x40 MLOAD SWAP1 DUP2 ADD PUSH1 0x40 MSTORE DUP1 SWAP3 SWAP2 SWAP1 DUP2 DUP2 MSTORE PUSH1 0x20 ADD DUP3 DUP1 SLOAD PUSH2 0x54E SWAP1 PUSH2 0x83A JUMP JUMPDEST DUP1 ISZERO PUSH2 0x599 JUMPI DUP1 PUSH1 0x1F LT PUSH2 0x570 JUMPI PUSH2 0x100 DUP1 DUP4 SLOAD DIV MUL DUP4 MSTORE SWAP2 PUSH1 0x20 ADD SWAP2 PUSH2 0x599 JUMP JUMPDEST DUP3 ADD SWAP2 SWAP1 PUSH0 MSTORE PUSH1 0x20 PUSH0 KECCAK256 SWAP1 JUMPDEST DUP2 SLOAD DUP2 MSTORE SWAP1 PUSH1 0x1 ADD SWAP1 PUSH1 0x20 ADD DUP1 DUP4 GT PUSH2 0x57C JUMPI DUP3 SWAP1 SUB PUSH1 0x1F AND DUP3 ADD SWAP2 JUMPDEST POP POP POP POP POP DUP2 JUMP JUMPDEST PUSH0 DUP2 SWAP1 POP SWAP2 SWAP1 POP JUMP JUMPDEST PUSH2 0x5B3 DUP2 PUSH2 0x5A1 JUMP JUMPDEST DUP3 MSTORE POP POP JUMP JUMPDEST PUSH0 PUSH1 0x20 DUP3 ADD SWAP1 POP PUSH2 0x5CC PUSH0 DUP4 ADD DUP5 PUSH2 0x5AA JUMP JUMPDEST SWAP3 SWAP2 POP POP JUMP JUMPDEST PUSH0 PUSH32 0xFF00000000000000000000000000000000000000000000000000000000000000 DUP3 AND SWAP1 POP SWAP2 SWAP1 POP JUMP JUMPDEST PUSH2 0x606 DUP2 PUSH2 0x5D2 JUMP JUMPDEST DUP3 MSTORE POP POP JUMP JUMPDEST PUSH0 PUSH1 0x20 DUP3 ADD SWAP1 POP PUSH2 0x61F PUSH0 DUP4 ADD DUP5 PUSH2 0x5FD JUMP JUMPDEST SWAP3 SWAP2 POP POP JUMP JUMPDEST PUSH0 DUP2 PUSH0 SIGNEXTEND SWAP1 POP SWAP2 SWAP1 POP JUMP JUMPDEST PUSH2 0x639 DUP2 PUSH2 0x625 JUMP JUMPDEST DUP3 MSTORE POP POP JUMP JUMPDEST PUSH0 PUSH1 0x20 DUP3 ADD SWAP1 POP PUSH2 0x652 PUSH0 DUP4 ADD DUP5 PUSH2 0x630 JUMP JUMPDEST SWAP3 SWAP2 POP POP JUMP JUMPDEST PUSH0 DUP2 SWAP1 POP SWAP2 SWAP1 POP JUMP JUMPDEST PUSH2 0x66A DUP2 PUSH2 0x658 JUMP JUMPDEST DUP3 MSTORE POP POP JUMP JUMPDEST PUSH0 PUSH1 0x20 DUP3 ADD SWAP1 POP PUSH2 0x683 PUSH0 DUP4 ADD DUP5 PUSH2 0x661 JUMP JUMPDEST SWAP3 SWAP2 POP POP JUMP JUMPDEST PUSH0 PUSH20 0xFFFFFFFFFFFFFFFFFFFFFFFFFFFFFFFFFFFFFFFF DUP3 AND SWAP1 POP SWAP2 SWAP1 POP JUMP JUMPDEST PUSH0 PUSH2 0x6B2 DUP3 PUSH2 0x689 JUMP JUMPDEST SWAP1 POP SWAP2 SWAP1 POP JUMP JUMPDEST PUSH2 0x6C2 DUP2 PUSH2 0x6A8 JUMP JUMPDEST DUP3 MSTORE POP POP JUMP JUMPDEST PUSH0 PUSH1 0x20 DUP3 ADD SWAP1 POP PUSH2 0x6DB PUSH0 DUP4 ADD DUP5 PUSH2 0x6B9 JUMP JUMPDEST SWAP3 SWAP2 POP POP JUMP JUMPDEST PUSH0 PUSH1 0xFF DUP3 AND SWAP1 POP SWAP2 SWAP1 POP JUMP JUMPDEST PUSH2 0x6F6 DUP2 PUSH2 0x6E1 JUMP JUMPDEST DUP3 MSTORE POP POP JUMP JUMPDEST PUSH0 PUSH1 0x20 DUP3 ADD SWAP1 POP PUSH2 0x70F PUSH0 DUP4 ADD DUP5 PUSH2 0x6ED JUMP JUMPDEST SWAP3 SWAP2 POP POP JUMP JUMPDEST PUSH0 DUP2 ISZERO ISZERO SWAP1 POP SWAP2 SWAP1 POP JUMP JUMPDEST PUSH2 0x729 DUP2 PUSH2 0x715 JUMP JUMPDEST DUP3 MSTORE POP POP JUMP JUMPDEST PUSH0 PUSH1 0x20 DUP3 ADD SWAP1 POP PUSH2 0x742 PUSH0 DUP4 ADD DUP5 PUSH2 0x720 JUMP JUMPDEST SWAP3 SWAP2 POP POP JUMP JUMPDEST PUSH0 PUSH2 0xFFFF DUP3 AND SWAP1 POP SWAP2 SWAP1 POP JUMP JUMPDEST PUSH2 0x75E DUP2 PUSH2 0x748 JUMP JUMPDEST DUP3 MSTORE POP POP JUMP JUMPDEST PUSH0 PUSH1 0x20 DUP3 ADD SWAP1 POP PUSH2 0x777 PUSH0 DUP4 ADD DUP5 PUSH2 0x755 JUMP JUMPDEST SWAP3 SWAP2 POP POP JUMP JUMPDEST PUSH0 DUP2 MLOAD SWAP1 POP SWAP2 SWAP1 POP JUMP JUMPDEST PUSH0 DUP3 DUP3 MSTORE PUSH1 0x20 DUP3 ADD SWAP1 POP SWAP3 SWAP2 POP POP JUMP JUMPDEST DUP3 DUP2 DUP4 MCOPY PUSH0 DUP4 DUP4 ADD MSTORE POP POP POP JUMP JUMPDEST PUSH0 PUSH1 0x1F NOT PUSH1 0x1F DUP4 ADD AND SWAP1 POP SWAP2 SWAP1 POP JUMP JUMPDEST PUSH0 PUSH2 0x7BF DUP3 PUSH2 0x77D JUMP JUMPDEST PUSH2 0x7C9 DUP2 DUP6 PUSH2 0x787 JUMP JUMPDEST SWAP4 POP PUSH2 0x7D9 DUP2 DUP6 PUSH1 0x20 DUP7 ADD PUSH2 0x797 JUMP JUMPDEST PUSH2 0x7E2 DUP2 PUSH2 0x7A5 JUMP JUMPDEST DUP5 ADD SWAP2 POP POP SWAP3 SWAP2 POP POP JUMP JUMPDEST PUSH0 PUSH1 0x20 DUP3 ADD SWAP1 POP DUP2 DUP2 SUB PUSH0 DUP4 ADD MSTORE PUSH2 0x805 DUP2 DUP5 PUSH2 0x7B5 JUMP JUMPDEST SWAP1 POP SWAP3 SWAP2 POP POP JUMP JUMPDEST PUSH32 0x4E487B7100000000000000000000000000000000000000000000000000000000 PUSH0 MSTORE PUSH1 0x22 PUSH1 0x4 MSTORE PUSH1 0x24 PUSH0 REVERT JUMPDEST PUSH0 PUSH1 0x2 DUP3 DIV SWAP1 POP PUSH1 0x1 DUP3 AND DUP1 PUSH2 0x851 JUMPI PUSH1 0x7F DUP3 AND SWAP2 POP JUMPDEST PUSH1 0x20 DUP3 LT DUP2 SUB PUSH2 0x864 JUMPI PUSH2 0x863 PUSH2 0x80D JUMP JUMPDEST JUMPDEST POP SWAP2 SWAP1 POP JUMP INVALID LOG2 PUSH5 0x6970667358 0x22 SLT KECCAK256 TIMESTAMP 0xE0 0xEC 0xA7 PUSH28 0xB68AAA718F888E3CDC048798B37966F00EE393B20CC8644F86D16A64 PUSH20 0x6F6C634300081A00330000000000000000000000 "
		},
		"gasEstimates": {
			"creation": {
				"codeDepositCost": "441600",
				"executionCost": "300975",
				"totalCost": "742575"
			},
			"external": {
				"MAX_VALUE_FOR_LONG_INT()": "349",
				"a()": "2512",
				"addr()": "2619",
				"b()": "2562",
				"defaultAddress()": "2597",
				"defaultBool()": "2605",
				"defaultBytes()": "infinite",
				"defaultInt()": "2492",
				"defaultUint()": "2493",
				"g8()": "2580",
				"hey()": "2574",
				"hi()": "2604",
				"i()": "2535",
				"i256()": "2448",
				"maxInt()": "2558",
				"maxValueForByte()": "2491",
				"maxValueForShort()": "2488",
				"minInt()": "2448",
				"no()": "2605",
				"u()": "2469",
				"u256()": "2515",
				"u8()": "2581"
			}
		},
		"methodIdentifiers": {
			"MAX_VALUE_FOR_LONG_INT()": "04b8de59",
			"a()": "0dbe671f",
			"addr()": "767800de",
			"b()": "4df7e3d0",
			"defaultAddress()": "5c101693",
			"defaultBool()": "d668f5b5",
			"defaultBytes()": "e96b824a",
			"defaultInt()": "5abe622b",
			"defaultUint()": "1570c2cb",
			"g8()": "485a9fc3",
			"hey()": "bde2b573",
			"hi()": "a99dca3f",
			"i()": "e5aa3d58",
			"i256()": "4c27fd62",
			"maxInt()": "7a4c2571",
			"maxValueForByte()": "c74bd038",
			"maxValueForShort()": "bebacf36",
			"minInt()": "7e4e14cc",
			"no()": "b6c52ae8",
			"u()": "c6a898c5",
			"u256()": "459b1acf",
			"u8()": "ab3a58a3"
		}
	},
	"abi": [
		{
			"inputs": [],
			"name": "MAX_VALUE_FOR_LONG_INT",
			"outputs": [
				{
					"internalType": "uint256",
					"name": "",
					"type": "uint256"
				}
			],
			"stateMutability": "view",
			"type": "function"
		},
		{
			"inputs": [],
			"name": "a",
			"outputs": [
				{
					"internalType": "bytes1",
					"name": "",
					"type": "bytes1"
				}
			],
			"stateMutability": "view",
			"type": "function"
		},
		{
			"inputs": [],
			"name": "addr",
			"outputs": [
				{
					"internalType": "address",
					"name": "",
					"type": "address"
				}
			],
			"stateMutability": "view",
			"type": "function"
		},
		{
			"inputs": [],
			"name": "b",
			"outputs": [
				{
					"internalType": "bytes1",
					"name": "",
					"type": "bytes1"
				}
			],
			"stateMutability": "view",
			"type": "function"
		},
		{
			"inputs": [],
			"name": "defaultAddress",
			"outputs": [
				{
					"internalType": "address",
					"name": "",
					"type": "address"
				}
			],
			"stateMutability": "view",
			"type": "function"
		},
		{
			"inputs": [],
			"name": "defaultBool",
			"outputs": [
				{
					"internalType": "bool",
					"name": "",
					"type": "bool"
				}
			],
			"stateMutability": "view",
			"type": "function"
		},
		{
			"inputs": [],
			"name": "defaultBytes",
			"outputs": [
				{
					"internalType": "bytes",
					"name": "",
					"type": "bytes"
				}
			],
			"stateMutability": "view",
			"type": "function"
		},
		{
			"inputs": [],
			"name": "defaultInt",
			"outputs": [
				{
					"internalType": "int256",
					"name": "",
					"type": "int256"
				}
			],
			"stateMutability": "view",
			"type": "function"
		},
		{
			"inputs": [],
			"name": "defaultUint",
			"outputs": [
				{
					"internalType": "uint256",
					"name": "",
					"type": "uint256"
				}
			],
			"stateMutability": "view",
			"type": "function"
		},
		{
			"inputs": [],
			"name": "g8",
			"outputs": [
				{
					"internalType": "int8",
					"name": "",
					"type": "int8"
				}
			],
			"stateMutability": "view",
			"type": "function"
		},
		{
			"inputs": [],
			"name": "hey",
			"outputs": [
				{
					"internalType": "bool",
					"name": "",
					"type": "bool"
				}
			],
			"stateMutability": "view",
			"type": "function"
		},
		{
			"inputs": [],
			"name": "hi",
			"outputs": [
				{
					"internalType": "address",
					"name": "",
					"type": "address"
				}
			],
			"stateMutability": "view",
			"type": "function"
		},
		{
			"inputs": [],
			"name": "i",
			"outputs": [
				{
					"internalType": "int256",
					"name": "",
					"type": "int256"
				}
			],
			"stateMutability": "view",
			"type": "function"
		},
		{
			"inputs": [],
			"name": "i256",
			"outputs": [
				{
					"internalType": "int256",
					"name": "",
					"type": "int256"
				}
			],
			"stateMutability": "view",
			"type": "function"
		},
		{
			"inputs": [],
			"name": "maxInt",
			"outputs": [
				{
					"internalType": "int256",
					"name": "",
					"type": "int256"
				}
			],
			"stateMutability": "view",
			"type": "function"
		},
		{
			"inputs": [],
			"name": "maxValueForByte",
			"outputs": [
				{
					"internalType": "uint256",
					"name": "",
					"type": "uint256"
				}
			],
			"stateMutability": "view",
			"type": "function"
		},
		{
			"inputs": [],
			"name": "maxValueForShort",
			"outputs": [
				{
					"internalType": "uint16",
					"name": "",
					"type": "uint16"
				}
			],
			"stateMutability": "view",
			"type": "function"
		},
		{
			"inputs": [],
			"name": "minInt",
			"outputs": [
				{
					"internalType": "int256",
					"name": "",
					"type": "int256"
				}
			],
			"stateMutability": "view",
			"type": "function"
		},
		{
			"inputs": [],
			"name": "no",
			"outputs": [
				{
					"internalType": "bool",
					"name": "",
					"type": "bool"
				}
			],
			"stateMutability": "view",
			"type": "function"
		},
		{
			"inputs": [],
			"name": "u",
			"outputs": [
				{
					"internalType": "uint256",
					"name": "",
					"type": "uint256"
				}
			],
			"stateMutability": "view",
			"type": "function"
		},
		{
			"inputs": [],
			"name": "u256",
			"outputs": [
				{
					"internalType": "uint256",
					"name": "",
					"type": "uint256"
				}
			],
			"stateMutability": "view",
			"type": "function"
		},
		{
			"inputs": [],
			"name": "u8",
			"outputs": [
				{
					"internalType": "uint8",
					"name": "",
					"type": "uint8"
				}
			],
			"stateMutability": "view",
			"type": "function"
		}
	]
}