{
	"data": {
		"bytecode": {
			"linkReferences": {},
			"object": "6080604052348015600e575f80fd5b5061023e8061001c5f395ff3fe608060405234801561000f575f80fd5b506004361061004a575f3560e01c806345f907a81461004e578063688734401461006e5780638688754414610090578063adb4d990146100b0575b5f80fd5b6100566100d0565b60405161006593929190610182565b60405180910390f35b6100766100e4565b6040516100879594939291906101b7565b60405180910390f35b610098610122565b6040516100a793929190610182565b60405180910390f35b6100b8610136565b6040516100c793929190610182565b60405180910390f35b5f805f602360016008925092509250909192565b5f805f805f805f806100f4610122565b9250925092505f80600360046008925050915084848484849950995099509950995050505050509091929394565b5f805f60186001600a925092509250909192565b5f805f600a9250826001925082601e925092509250909192565b5f819050919050565b61016281610150565b82525050565b5f8115159050919050565b61017c81610168565b82525050565b5f6060820190506101955f830186610159565b6101a26020830185610173565b6101af6040830184610159565b949350505050565b5f60a0820190506101ca5f830188610159565b6101d76020830187610173565b6101e46040830186610159565b6101f16060830185610159565b6101fe6080830184610159565b969550505050505056fea2646970667358221220d8672e13c27f872546317cdbdea69f03c39a02ce71382f94b2820cdc111ed1a864736f6c634300081a0033",
			"opcodes": "PUSH1 0x80 PUSH1 0x40 MSTORE CALLVALUE DUP1 ISZERO PUSH1 0xE JUMPI PUSH0 DUP1 REVERT JUMPDEST POP PUSH2 0x23E DUP1 PUSH2 0x1C PUSH0 CODECOPY PUSH0 RETURN INVALID PUSH1 0x80 PUSH1 0x40 MSTORE CALLVALUE DUP1 ISZERO PUSH2 0xF JUMPI PUSH0 DUP1 REVERT JUMPDEST POP PUSH1 0x4 CALLDATASIZE LT PUSH2 0x4A JUMPI PUSH0 CALLDATALOAD PUSH1 0xE0 SHR DUP1 PUSH4 0x45F907A8 EQ PUSH2 0x4E JUMPI DUP1 PUSH4 0x68873440 EQ PUSH2 0x6E JUMPI DUP1 PUSH4 0x86887544 EQ PUSH2 0x90 JUMPI DUP1 PUSH4 0xADB4D990 EQ PUSH2 0xB0 JUMPI JUMPDEST PUSH0 DUP1 REVERT JUMPDEST PUSH2 0x56 PUSH2 0xD0 JUMP JUMPDEST PUSH1 0x40 MLOAD PUSH2 0x65 SWAP4 SWAP3 SWAP2 SWAP1 PUSH2 0x182 JUMP JUMPDEST PUSH1 0x40 MLOAD DUP1 SWAP2 SUB SWAP1 RETURN JUMPDEST PUSH2 0x76 PUSH2 0xE4 JUMP JUMPDEST PUSH1 0x40 MLOAD PUSH2 0x87 SWAP6 SWAP5 SWAP4 SWAP3 SWAP2 SWAP1 PUSH2 0x1B7 JUMP JUMPDEST PUSH1 0x40 MLOAD DUP1 SWAP2 SUB SWAP1 RETURN JUMPDEST PUSH2 0x98 PUSH2 0x122 JUMP JUMPDEST PUSH1 0x40 MLOAD PUSH2 0xA7 SWAP4 SWAP3 SWAP2 SWAP1 PUSH2 0x182 JUMP JUMPDEST PUSH1 0x40 MLOAD DUP1 SWAP2 SUB SWAP1 RETURN JUMPDEST PUSH2 0xB8 PUSH2 0x136 JUMP JUMPDEST PUSH1 0x40 MLOAD PUSH2 0xC7 SWAP4 SWAP3 SWAP2 SWAP1 PUSH2 0x182 JUMP JUMPDEST PUSH1 0x40 MLOAD DUP1 SWAP2 SUB SWAP1 RETURN JUMPDEST PUSH0 DUP1 PUSH0 PUSH1 0x23 PUSH1 0x1 PUSH1 0x8 SWAP3 POP SWAP3 POP SWAP3 POP SWAP1 SWAP2 SWAP3 JUMP JUMPDEST PUSH0 DUP1 PUSH0 DUP1 PUSH0 DUP1 PUSH0 DUP1 PUSH2 0xF4 PUSH2 0x122 JUMP JUMPDEST SWAP3 POP SWAP3 POP SWAP3 POP PUSH0 DUP1 PUSH1 0x3 PUSH1 0x4 PUSH1 0x8 SWAP3 POP POP SWAP2 POP DUP5 DUP5 DUP5 DUP5 DUP5 SWAP10 POP SWAP10 POP SWAP10 POP SWAP10 POP SWAP10 POP POP POP POP POP POP SWAP1 SWAP2 SWAP3 SWAP4 SWAP5 JUMP JUMPDEST PUSH0 DUP1 PUSH0 PUSH1 0x18 PUSH1 0x1 PUSH1 0xA SWAP3 POP SWAP3 POP SWAP3 POP SWAP1 SWAP2 SWAP3 JUMP JUMPDEST PUSH0 DUP1 PUSH0 PUSH1 0xA SWAP3 POP DUP3 PUSH1 0x1 SWAP3 POP DUP3 PUSH1 0x1E SWAP3 POP SWAP3 POP SWAP3 POP SWAP1 SWAP2 SWAP3 JUMP JUMPDEST PUSH0 DUP2 SWAP1 POP SWAP2 SWAP1 POP JUMP JUMPDEST PUSH2 0x162 DUP2 PUSH2 0x150 JUMP JUMPDEST DUP3 MSTORE POP POP JUMP JUMPDEST PUSH0 DUP2 ISZERO ISZERO SWAP1 POP SWAP2 SWAP1 POP JUMP JUMPDEST PUSH2 0x17C DUP2 PUSH2 0x168 JUMP JUMPDEST DUP3 MSTORE POP POP JUMP JUMPDEST PUSH0 PUSH1 0x60 DUP3 ADD SWAP1 POP PUSH2 0x195 PUSH0 DUP4 ADD DUP7 PUSH2 0x159 JUMP JUMPDEST PUSH2 0x1A2 PUSH1 0x20 DUP4 ADD DUP6 PUSH2 0x173 JUMP JUMPDEST PUSH2 0x1AF PUSH1 0x40 DUP4 ADD DUP5 PUSH2 0x159 JUMP JUMPDEST SWAP5 SWAP4 POP POP POP POP JUMP JUMPDEST PUSH0 PUSH1 0xA0 DUP3 ADD SWAP1 POP PUSH2 0x1CA PUSH0 DUP4 ADD DUP9 PUSH2 0x159 JUMP JUMPDEST PUSH2 0x1D7 PUSH1 0x20 DUP4 ADD DUP8 PUSH2 0x173 JUMP JUMPDEST PUSH2 0x1E4 PUSH1 0x40 DUP4 ADD DUP7 PUSH2 0x159 JUMP JUMPDEST PUSH2 0x1F1 PUSH1 0x60 DUP4 ADD DUP6 PUSH2 0x159 JUMP JUMPDEST PUSH2 0x1FE PUSH1 0x80 DUP4 ADD DUP5 PUSH2 0x159 JUMP JUMPDEST SWAP7 SWAP6 POP POP POP POP POP POP JUMP INVALID LOG2 PUSH5 0x6970667358 0x22 SLT KECCAK256 0xD8 PUSH8 0x2E13C27F87254631 PUSH29 0xDBDEA69F03C39A02CE71382F94B2820CDC111ED1A864736F6C63430008 BYTE STOP CALLER "
		},
		"gasEstimates": {
			"creation": {
				"codeDepositCost": "114800",
				"executionCost": "157",
				"totalCost": "114957"
			},
			"external": {
				"assigned()": "infinite",
				"destructuringAssignments()": "infinite",
				"named()": "infinite",
				"returnMany()": "infinite"
			}
		},
		"methodIdentifiers": {
			"assigned()": "adb4d990",
			"destructuringAssignments()": "68873440",
			"named()": "45f907a8",
			"returnMany()": "86887544"
		}
	},
	"abi": [
		{
			"inputs": [],
			"name": "assigned",
			"outputs": [
				{
					"internalType": "uint256",
					"name": "x",
					"type": "uint256"
				},
				{
					"internalType": "bool",
					"name": "r",
					"type": "bool"
				},
				{
					"internalType": "uint256",
					"name": "e",
					"type": "uint256"
				}
			],
			"stateMutability": "pure",
			"type": "function"
		},
		{
			"inputs": [],
			"name": "destructuringAssignments",
			"outputs": [
				{
					"internalType": "uint256",
					"name": "",
					"type": "uint256"
				},
				{
					"internalType": "bool",
					"name": "",
					"type": "bool"
				},
				{
					"internalType": "uint256",
					"name": "",
					"type": "uint256"
				},
				{
					"internalType": "uint256",
					"name": "",
					"type": "uint256"
				},
				{
					"internalType": "uint256",
					"name": "",
					"type": "uint256"
				}
			],
			"stateMutability": "pure",
			"type": "function"
		},
		{
			"inputs": [],
			"name": "named",
			"outputs": [
				{
					"internalType": "uint256",
					"name": "X",
					"type": "uint256"
				},
				{
					"internalType": "bool",
					"name": "y",
					"type": "bool"
				},
				{
					"internalType": "uint256",
					"name": "c",
					"type": "uint256"
				}
			],
			"stateMutability": "pure",
			"type": "function"
		},
		{
			"inputs": [],
			"name": "returnMany",
			"outputs": [
				{
					"internalType": "uint256",
					"name": "",
					"type": "uint256"
				},
				{
					"internalType": "bool",
					"name": "",
					"type": "bool"
				},
				{
					"internalType": "uint256",
					"name": "",
					"type": "uint256"
				}
			],
			"stateMutability": "pure",
			"type": "function"
		}
	]
}