{
	"data": {
		"bytecode": {
			"linkReferences": {},
			"object": "6080604052348015600e575f80fd5b506108698061001c5f395ff3fe608060405234801561000f575f80fd5b5060043610610060575f3560e01c8063021b8a7f146100645780635342720c1461009457806365372147146100c45780639084ab74146100e2578063d695697014610112578063de2927891461012e575b5f80fd5b61007e60048036038101906100799190610431565b61014c565b60405161008b91906104cc565b60405180910390f35b6100ae60048036038101906100a991906104ec565b610212565b6040516100bb91906104cc565b60405180910390f35b6100cc6102f6565b6040516100d99190610544565b60405180910390f35b6100fc60048036038101906100f79190610431565b610306565b6040516101099190610544565b60405180910390f35b61012c600480360381019061012791906104ec565b610327565b005b610136610367565b60405161014391906104cc565b60405180910390f35b60605f821015610191576040517f08c379a0000000000000000000000000000000000000000000000000000000008152600401610188906105cd565b60405180910390fd5b601e8211156101d5576040517f08c379a00000000000000000000000000000000000000000000000000000000081526004016101cc9061065b565b60405180910390fd5b6040518060400160405280600f81526020017f596f752061726520636f727265637400000000000000000000000000000000008152509050919050565b60605f828461022191906106a6565b90505f811080610232575061012c81115b15610272576040517f08c379a000000000000000000000000000000000000000000000000000000000815260040161026990610723565b60405180910390fd5b6101f48111156102b7576040517f08c379a00000000000000000000000000000000000000000000000000000000081526004016102ae9061078b565b60405180910390fd5b6040518060400160405280600b81526020017f6e6f206f766572666c6f7700000000000000000000000000000000000000000081525091505092915050565b5f8054906101000a900460ff1681565b5f8060028361031591906107d6565b0361031e575f80fd5b60019050919050565b5f818361033491906106a6565b905061012b81111561034957610348610806565b5b60015f806101000a81548160ff021916908315150217905550505050565b6060600115155f8054906101000a900460ff161515036103be576040518060400160405280600a81526020017f4e6f204f766572666f770000000000000000000000000000000000000000000081525090506103f7565b6040518060400160405280600e81526020017f4f766572666c6f7720457869737400000000000000000000000000000000000081525090505b90565b5f80fd5b5f819050919050565b610410816103fe565b811461041a575f80fd5b50565b5f8135905061042b81610407565b92915050565b5f60208284031215610446576104456103fa565b5b5f6104538482850161041d565b91505092915050565b5f81519050919050565b5f82825260208201905092915050565b8281835e5f83830152505050565b5f601f19601f8301169050919050565b5f61049e8261045c565b6104a88185610466565b93506104b8818560208601610476565b6104c181610484565b840191505092915050565b5f6020820190508181035f8301526104e48184610494565b905092915050565b5f8060408385031215610502576105016103fa565b5b5f61050f8582860161041d565b92505060206105208582860161041d565b9150509250929050565b5f8115159050919050565b61053e8161052a565b82525050565b5f6020820190506105575f830184610535565b92915050565b7f526571756972653a20496e707574206d757374206265206772656174657220745f8201527f68616e2030000000000000000000000000000000000000000000000000000000602082015250565b5f6105b7602583610466565b91506105c28261055d565b604082019050919050565b5f6020820190508181035f8301526105e4816105ab565b9050919050565b7f526571756972653a20496e707574206d757374206265206c657373207468616e5f8201527f2033300000000000000000000000000000000000000000000000000000000000602082015250565b5f610645602383610466565b9150610650826105eb565b604082019050919050565b5f6020820190508181035f83015261067281610639565b9050919050565b7f4e487b71000000000000000000000000000000000000000000000000000000005f52601160045260245ffd5b5f6106b0826103fe565b91506106bb836103fe565b92508282019050808211156106d3576106d2610679565b5b92915050565b7f4f766572666c6f772045786973740000000000000000000000000000000000005f82015250565b5f61070d600e83610466565b9150610718826106d9565b602082019050919050565b5f6020820190508181035f83015261073a81610701565b9050919050565b7f6d617373697665206f766572666c6f77000000000000000000000000000000005f82015250565b5f610775601083610466565b915061078082610741565b602082019050919050565b5f6020820190508181035f8301526107a281610769565b9050919050565b7f4e487b71000000000000000000000000000000000000000000000000000000005f52601260045260245ffd5b5f6107e0826103fe565b91506107eb836103fe565b9250826107fb576107fa6107a9565b5b828204905092915050565b7f4e487b71000000000000000000000000000000000000000000000000000000005f52600160045260245ffdfea264697066735822122071d8d5bffee03e9041773833107db34ea2474918a0d6c280dab7e40a3f2e506264736f6c634300081a0033",
			"opcodes": "PUSH1 0x80 PUSH1 0x40 MSTORE CALLVALUE DUP1 ISZERO PUSH1 0xE JUMPI PUSH0 DUP1 REVERT JUMPDEST POP PUSH2 0x869 DUP1 PUSH2 0x1C PUSH0 CODECOPY PUSH0 RETURN INVALID PUSH1 0x80 PUSH1 0x40 MSTORE CALLVALUE DUP1 ISZERO PUSH2 0xF JUMPI PUSH0 DUP1 REVERT JUMPDEST POP PUSH1 0x4 CALLDATASIZE LT PUSH2 0x60 JUMPI PUSH0 CALLDATALOAD PUSH1 0xE0 SHR DUP1 PUSH4 0x21B8A7F EQ PUSH2 0x64 JUMPI DUP1 PUSH4 0x5342720C EQ PUSH2 0x94 JUMPI DUP1 PUSH4 0x65372147 EQ PUSH2 0xC4 JUMPI DUP1 PUSH4 0x9084AB74 EQ PUSH2 0xE2 JUMPI DUP1 PUSH4 0xD6956970 EQ PUSH2 0x112 JUMPI DUP1 PUSH4 0xDE292789 EQ PUSH2 0x12E JUMPI JUMPDEST PUSH0 DUP1 REVERT JUMPDEST PUSH2 0x7E PUSH1 0x4 DUP1 CALLDATASIZE SUB DUP2 ADD SWAP1 PUSH2 0x79 SWAP2 SWAP1 PUSH2 0x431 JUMP JUMPDEST PUSH2 0x14C JUMP JUMPDEST PUSH1 0x40 MLOAD PUSH2 0x8B SWAP2 SWAP1 PUSH2 0x4CC JUMP JUMPDEST PUSH1 0x40 MLOAD DUP1 SWAP2 SUB SWAP1 RETURN JUMPDEST PUSH2 0xAE PUSH1 0x4 DUP1 CALLDATASIZE SUB DUP2 ADD SWAP1 PUSH2 0xA9 SWAP2 SWAP1 PUSH2 0x4EC JUMP JUMPDEST PUSH2 0x212 JUMP JUMPDEST PUSH1 0x40 MLOAD PUSH2 0xBB SWAP2 SWAP1 PUSH2 0x4CC JUMP JUMPDEST PUSH1 0x40 MLOAD DUP1 SWAP2 SUB SWAP1 RETURN JUMPDEST PUSH2 0xCC PUSH2 0x2F6 JUMP JUMPDEST PUSH1 0x40 MLOAD PUSH2 0xD9 SWAP2 SWAP1 PUSH2 0x544 JUMP JUMPDEST PUSH1 0x40 MLOAD DUP1 SWAP2 SUB SWAP1 RETURN JUMPDEST PUSH2 0xFC PUSH1 0x4 DUP1 CALLDATASIZE SUB DUP2 ADD SWAP1 PUSH2 0xF7 SWAP2 SWAP1 PUSH2 0x431 JUMP JUMPDEST PUSH2 0x306 JUMP JUMPDEST PUSH1 0x40 MLOAD PUSH2 0x109 SWAP2 SWAP1 PUSH2 0x544 JUMP JUMPDEST PUSH1 0x40 MLOAD DUP1 SWAP2 SUB SWAP1 RETURN JUMPDEST PUSH2 0x12C PUSH1 0x4 DUP1 CALLDATASIZE SUB DUP2 ADD SWAP1 PUSH2 0x127 SWAP2 SWAP1 PUSH2 0x4EC JUMP JUMPDEST PUSH2 0x327 JUMP JUMPDEST STOP JUMPDEST PUSH2 0x136 PUSH2 0x367 JUMP JUMPDEST PUSH1 0x40 MLOAD PUSH2 0x143 SWAP2 SWAP1 PUSH2 0x4CC JUMP JUMPDEST PUSH1 0x40 MLOAD DUP1 SWAP2 SUB SWAP1 RETURN JUMPDEST PUSH1 0x60 PUSH0 DUP3 LT ISZERO PUSH2 0x191 JUMPI PUSH1 0x40 MLOAD PUSH32 0x8C379A000000000000000000000000000000000000000000000000000000000 DUP2 MSTORE PUSH1 0x4 ADD PUSH2 0x188 SWAP1 PUSH2 0x5CD JUMP JUMPDEST PUSH1 0x40 MLOAD DUP1 SWAP2 SUB SWAP1 REVERT JUMPDEST PUSH1 0x1E DUP3 GT ISZERO PUSH2 0x1D5 JUMPI PUSH1 0x40 MLOAD PUSH32 0x8C379A000000000000000000000000000000000000000000000000000000000 DUP2 MSTORE PUSH1 0x4 ADD PUSH2 0x1CC SWAP1 PUSH2 0x65B JUMP JUMPDEST PUSH1 0x40 MLOAD DUP1 SWAP2 SUB SWAP1 REVERT JUMPDEST PUSH1 0x40 MLOAD DUP1 PUSH1 0x40 ADD PUSH1 0x40 MSTORE DUP1 PUSH1 0xF DUP2 MSTORE PUSH1 0x20 ADD PUSH32 0x596F752061726520636F72726563740000000000000000000000000000000000 DUP2 MSTORE POP SWAP1 POP SWAP2 SWAP1 POP JUMP JUMPDEST PUSH1 0x60 PUSH0 DUP3 DUP5 PUSH2 0x221 SWAP2 SWAP1 PUSH2 0x6A6 JUMP JUMPDEST SWAP1 POP PUSH0 DUP2 LT DUP1 PUSH2 0x232 JUMPI POP PUSH2 0x12C DUP2 GT JUMPDEST ISZERO PUSH2 0x272 JUMPI PUSH1 0x40 MLOAD PUSH32 0x8C379A000000000000000000000000000000000000000000000000000000000 DUP2 MSTORE PUSH1 0x4 ADD PUSH2 0x269 SWAP1 PUSH2 0x723 JUMP JUMPDEST PUSH1 0x40 MLOAD DUP1 SWAP2 SUB SWAP1 REVERT JUMPDEST PUSH2 0x1F4 DUP2 GT ISZERO PUSH2 0x2B7 JUMPI PUSH1 0x40 MLOAD PUSH32 0x8C379A000000000000000000000000000000000000000000000000000000000 DUP2 MSTORE PUSH1 0x4 ADD PUSH2 0x2AE SWAP1 PUSH2 0x78B JUMP JUMPDEST PUSH1 0x40 MLOAD DUP1 SWAP2 SUB SWAP1 REVERT JUMPDEST PUSH1 0x40 MLOAD DUP1 PUSH1 0x40 ADD PUSH1 0x40 MSTORE DUP1 PUSH1 0xB DUP2 MSTORE PUSH1 0x20 ADD PUSH32 0x6E6F206F766572666C6F77000000000000000000000000000000000000000000 DUP2 MSTORE POP SWAP2 POP POP SWAP3 SWAP2 POP POP JUMP JUMPDEST PUSH0 DUP1 SLOAD SWAP1 PUSH2 0x100 EXP SWAP1 DIV PUSH1 0xFF AND DUP2 JUMP JUMPDEST PUSH0 DUP1 PUSH1 0x2 DUP4 PUSH2 0x315 SWAP2 SWAP1 PUSH2 0x7D6 JUMP JUMPDEST SUB PUSH2 0x31E JUMPI PUSH0 DUP1 REVERT JUMPDEST PUSH1 0x1 SWAP1 POP SWAP2 SWAP1 POP JUMP JUMPDEST PUSH0 DUP2 DUP4 PUSH2 0x334 SWAP2 SWAP1 PUSH2 0x6A6 JUMP JUMPDEST SWAP1 POP PUSH2 0x12B DUP2 GT ISZERO PUSH2 0x349 JUMPI PUSH2 0x348 PUSH2 0x806 JUMP JUMPDEST JUMPDEST PUSH1 0x1 PUSH0 DUP1 PUSH2 0x100 EXP DUP2 SLOAD DUP2 PUSH1 0xFF MUL NOT AND SWAP1 DUP4 ISZERO ISZERO MUL OR SWAP1 SSTORE POP POP POP POP JUMP JUMPDEST PUSH1 0x60 PUSH1 0x1 ISZERO ISZERO PUSH0 DUP1 SLOAD SWAP1 PUSH2 0x100 EXP SWAP1 DIV PUSH1 0xFF AND ISZERO ISZERO SUB PUSH2 0x3BE JUMPI PUSH1 0x40 MLOAD DUP1 PUSH1 0x40 ADD PUSH1 0x40 MSTORE DUP1 PUSH1 0xA DUP2 MSTORE PUSH1 0x20 ADD PUSH32 0x4E6F204F766572666F7700000000000000000000000000000000000000000000 DUP2 MSTORE POP SWAP1 POP PUSH2 0x3F7 JUMP JUMPDEST PUSH1 0x40 MLOAD DUP1 PUSH1 0x40 ADD PUSH1 0x40 MSTORE DUP1 PUSH1 0xE DUP2 MSTORE PUSH1 0x20 ADD PUSH32 0x4F766572666C6F77204578697374000000000000000000000000000000000000 DUP2 MSTORE POP SWAP1 POP JUMPDEST SWAP1 JUMP JUMPDEST PUSH0 DUP1 REVERT JUMPDEST PUSH0 DUP2 SWAP1 POP SWAP2 SWAP1 POP JUMP JUMPDEST PUSH2 0x410 DUP2 PUSH2 0x3FE JUMP JUMPDEST DUP2 EQ PUSH2 0x41A JUMPI PUSH0 DUP1 REVERT JUMPDEST POP JUMP JUMPDEST PUSH0 DUP2 CALLDATALOAD SWAP1 POP PUSH2 0x42B DUP2 PUSH2 0x407 JUMP JUMPDEST SWAP3 SWAP2 POP POP JUMP JUMPDEST PUSH0 PUSH1 0x20 DUP3 DUP5 SUB SLT ISZERO PUSH2 0x446 JUMPI PUSH2 0x445 PUSH2 0x3FA JUMP JUMPDEST JUMPDEST PUSH0 PUSH2 0x453 DUP5 DUP3 DUP6 ADD PUSH2 0x41D JUMP JUMPDEST SWAP2 POP POP SWAP3 SWAP2 POP POP JUMP JUMPDEST PUSH0 DUP2 MLOAD SWAP1 POP SWAP2 SWAP1 POP JUMP JUMPDEST PUSH0 DUP3 DUP3 MSTORE PUSH1 0x20 DUP3 ADD SWAP1 POP SWAP3 SWAP2 POP POP JUMP JUMPDEST DUP3 DUP2 DUP4 MCOPY PUSH0 DUP4 DUP4 ADD MSTORE POP POP POP JUMP JUMPDEST PUSH0 PUSH1 0x1F NOT PUSH1 0x1F DUP4 ADD AND SWAP1 POP SWAP2 SWAP1 POP JUMP JUMPDEST PUSH0 PUSH2 0x49E DUP3 PUSH2 0x45C JUMP JUMPDEST PUSH2 0x4A8 DUP2 DUP6 PUSH2 0x466 JUMP JUMPDEST SWAP4 POP PUSH2 0x4B8 DUP2 DUP6 PUSH1 0x20 DUP7 ADD PUSH2 0x476 JUMP JUMPDEST PUSH2 0x4C1 DUP2 PUSH2 0x484 JUMP JUMPDEST DUP5 ADD SWAP2 POP POP SWAP3 SWAP2 POP POP JUMP JUMPDEST PUSH0 PUSH1 0x20 DUP3 ADD SWAP1 POP DUP2 DUP2 SUB PUSH0 DUP4 ADD MSTORE PUSH2 0x4E4 DUP2 DUP5 PUSH2 0x494 JUMP JUMPDEST SWAP1 POP SWAP3 SWAP2 POP POP JUMP JUMPDEST PUSH0 DUP1 PUSH1 0x40 DUP4 DUP6 SUB SLT ISZERO PUSH2 0x502 JUMPI PUSH2 0x501 PUSH2 0x3FA JUMP JUMPDEST JUMPDEST PUSH0 PUSH2 0x50F DUP6 DUP3 DUP7 ADD PUSH2 0x41D JUMP JUMPDEST SWAP3 POP POP PUSH1 0x20 PUSH2 0x520 DUP6 DUP3 DUP7 ADD PUSH2 0x41D JUMP JUMPDEST SWAP2 POP POP SWAP3 POP SWAP3 SWAP1 POP JUMP JUMPDEST PUSH0 DUP2 ISZERO ISZERO SWAP1 POP SWAP2 SWAP1 POP JUMP JUMPDEST PUSH2 0x53E DUP2 PUSH2 0x52A JUMP JUMPDEST DUP3 MSTORE POP POP JUMP JUMPDEST PUSH0 PUSH1 0x20 DUP3 ADD SWAP1 POP PUSH2 0x557 PUSH0 DUP4 ADD DUP5 PUSH2 0x535 JUMP JUMPDEST SWAP3 SWAP2 POP POP JUMP JUMPDEST PUSH32 0x526571756972653A20496E707574206D75737420626520677265617465722074 PUSH0 DUP3 ADD MSTORE PUSH32 0x68616E2030000000000000000000000000000000000000000000000000000000 PUSH1 0x20 DUP3 ADD MSTORE POP JUMP JUMPDEST PUSH0 PUSH2 0x5B7 PUSH1 0x25 DUP4 PUSH2 0x466 JUMP JUMPDEST SWAP2 POP PUSH2 0x5C2 DUP3 PUSH2 0x55D JUMP JUMPDEST PUSH1 0x40 DUP3 ADD SWAP1 POP SWAP2 SWAP1 POP JUMP JUMPDEST PUSH0 PUSH1 0x20 DUP3 ADD SWAP1 POP DUP2 DUP2 SUB PUSH0 DUP4 ADD MSTORE PUSH2 0x5E4 DUP2 PUSH2 0x5AB JUMP JUMPDEST SWAP1 POP SWAP2 SWAP1 POP JUMP JUMPDEST PUSH32 0x526571756972653A20496E707574206D757374206265206C657373207468616E PUSH0 DUP3 ADD MSTORE PUSH32 0x2033300000000000000000000000000000000000000000000000000000000000 PUSH1 0x20 DUP3 ADD MSTORE POP JUMP JUMPDEST PUSH0 PUSH2 0x645 PUSH1 0x23 DUP4 PUSH2 0x466 JUMP JUMPDEST SWAP2 POP PUSH2 0x650 DUP3 PUSH2 0x5EB JUMP JUMPDEST PUSH1 0x40 DUP3 ADD SWAP1 POP SWAP2 SWAP1 POP JUMP JUMPDEST PUSH0 PUSH1 0x20 DUP3 ADD SWAP1 POP DUP2 DUP2 SUB PUSH0 DUP4 ADD MSTORE PUSH2 0x672 DUP2 PUSH2 0x639 JUMP JUMPDEST SWAP1 POP SWAP2 SWAP1 POP JUMP JUMPDEST PUSH32 0x4E487B7100000000000000000000000000000000000000000000000000000000 PUSH0 MSTORE PUSH1 0x11 PUSH1 0x4 MSTORE PUSH1 0x24 PUSH0 REVERT JUMPDEST PUSH0 PUSH2 0x6B0 DUP3 PUSH2 0x3FE JUMP JUMPDEST SWAP2 POP PUSH2 0x6BB DUP4 PUSH2 0x3FE JUMP JUMPDEST SWAP3 POP DUP3 DUP3 ADD SWAP1 POP DUP1 DUP3 GT ISZERO PUSH2 0x6D3 JUMPI PUSH2 0x6D2 PUSH2 0x679 JUMP JUMPDEST JUMPDEST SWAP3 SWAP2 POP POP JUMP JUMPDEST PUSH32 0x4F766572666C6F77204578697374000000000000000000000000000000000000 PUSH0 DUP3 ADD MSTORE POP JUMP JUMPDEST PUSH0 PUSH2 0x70D PUSH1 0xE DUP4 PUSH2 0x466 JUMP JUMPDEST SWAP2 POP PUSH2 0x718 DUP3 PUSH2 0x6D9 JUMP JUMPDEST PUSH1 0x20 DUP3 ADD SWAP1 POP SWAP2 SWAP1 POP JUMP JUMPDEST PUSH0 PUSH1 0x20 DUP3 ADD SWAP1 POP DUP2 DUP2 SUB PUSH0 DUP4 ADD MSTORE PUSH2 0x73A DUP2 PUSH2 0x701 JUMP JUMPDEST SWAP1 POP SWAP2 SWAP1 POP JUMP JUMPDEST PUSH32 0x6D617373697665206F766572666C6F7700000000000000000000000000000000 PUSH0 DUP3 ADD MSTORE POP JUMP JUMPDEST PUSH0 PUSH2 0x775 PUSH1 0x10 DUP4 PUSH2 0x466 JUMP JUMPDEST SWAP2 POP PUSH2 0x780 DUP3 PUSH2 0x741 JUMP JUMPDEST PUSH1 0x20 DUP3 ADD SWAP1 POP SWAP2 SWAP1 POP JUMP JUMPDEST PUSH0 PUSH1 0x20 DUP3 ADD SWAP1 POP DUP2 DUP2 SUB PUSH0 DUP4 ADD MSTORE PUSH2 0x7A2 DUP2 PUSH2 0x769 JUMP JUMPDEST SWAP1 POP SWAP2 SWAP1 POP JUMP JUMPDEST PUSH32 0x4E487B7100000000000000000000000000000000000000000000000000000000 PUSH0 MSTORE PUSH1 0x12 PUSH1 0x4 MSTORE PUSH1 0x24 PUSH0 REVERT JUMPDEST PUSH0 PUSH2 0x7E0 DUP3 PUSH2 0x3FE JUMP JUMPDEST SWAP2 POP PUSH2 0x7EB DUP4 PUSH2 0x3FE JUMP JUMPDEST SWAP3 POP DUP3 PUSH2 0x7FB JUMPI PUSH2 0x7FA PUSH2 0x7A9 JUMP JUMPDEST JUMPDEST DUP3 DUP3 DIV SWAP1 POP SWAP3 SWAP2 POP POP JUMP JUMPDEST PUSH32 0x4E487B7100000000000000000000000000000000000000000000000000000000 PUSH0 MSTORE PUSH1 0x1 PUSH1 0x4 MSTORE PUSH1 0x24 PUSH0 REVERT INVALID LOG2 PUSH5 0x6970667358 0x22 SLT KECCAK256 PUSH18 0xD8D5BFFEE03E9041773833107DB34EA24749 XOR LOG0 0xD6 0xC2 DUP1 0xDA 0xB7 0xE4 EXP EXTCODEHASH 0x2E POP PUSH3 0x64736F PUSH13 0x634300081A0033000000000000 "
		},
		"gasEstimates": {
			"creation": {
				"codeDepositCost": "430600",
				"executionCost": "466",
				"totalCost": "431066"
			},
			"external": {
				"EvenNumber(uint256)": "infinite",
				"checkInput(uint256)": "infinite",
				"checkOverflow(uint256,uint256)": "infinite",
				"checkoverflow(uint256,uint256)": "infinite",
				"getResult()": "infinite",
				"result()": "2485"
			}
		},
		"methodIdentifiers": {
			"EvenNumber(uint256)": "9084ab74",
			"checkInput(uint256)": "021b8a7f",
			"checkOverflow(uint256,uint256)": "d6956970",
			"checkoverflow(uint256,uint256)": "5342720c",
			"getResult()": "de292789",
			"result()": "65372147"
		}
	},
	"abi": [
		{
			"inputs": [
				{
					"internalType": "uint256",
					"name": "_input",
					"type": "uint256"
				}
			],
			"name": "EvenNumber",
			"outputs": [
				{
					"internalType": "bool",
					"name": "",
					"type": "bool"
				}
			],
			"stateMutability": "pure",
			"type": "function"
		},
		{
			"inputs": [
				{
					"internalType": "uint256",
					"name": "_input",
					"type": "uint256"
				}
			],
			"name": "checkInput",
			"outputs": [
				{
					"internalType": "string",
					"name": "",
					"type": "string"
				}
			],
			"stateMutability": "pure",
			"type": "function"
		},
		{
			"inputs": [
				{
					"internalType": "uint256",
					"name": "_num1",
					"type": "uint256"
				},
				{
					"internalType": "uint256",
					"name": "_num2",
					"type": "uint256"
				}
			],
			"name": "checkOverflow",
			"outputs": [],
			"stateMutability": "nonpayable",
			"type": "function"
		},
		{
			"inputs": [
				{
					"internalType": "uint256",
					"name": "_num1",
					"type": "uint256"
				},
				{
					"internalType": "uint256",
					"name": "_num2",
					"type": "uint256"
				}
			],
			"name": "checkoverflow",
			"outputs": [
				{
					"internalType": "string",
					"name": "",
					"type": "string"
				}
			],
			"stateMutability": "pure",
			"type": "function"
		},
		{
			"inputs": [],
			"name": "getResult",
			"outputs": [
				{
					"internalType": "string",
					"name": "",
					"type": "string"
				}
			],
			"stateMutability": "view",
			"type": "function"
		},
		{
			"inputs": [],
			"name": "result",
			"outputs": [
				{
					"internalType": "bool",
					"name": "",
					"type": "bool"
				}
			],
			"stateMutability": "view",
			"type": "function"
		}
	]
}