{
	"data": {
		"bytecode": {
			"linkReferences": {},
			"object": "60806040526040518060400160405280600781526020017f4f6c756a696d6900000000000000000000000000000000000000000000000000815250600290816100489190610317565b5060126003556040518060400160405280600a81526020017f686579207761737375700000000000000000000000000000000000000000000081525060049081610092919061043e565b5034801561009e575f80fd5b506040516110d43803806110d483398181016040528101906100c09190610657565b815f90816100ce9190610317565b508060018190555050506106b1565b5f81519050919050565b7f4e487b71000000000000000000000000000000000000000000000000000000005f52604160045260245ffd5b7f4e487b71000000000000000000000000000000000000000000000000000000005f52602260045260245ffd5b5f600282049050600182168061015857607f821691505b60208210810361016b5761016a610114565b5b50919050565b5f819050815f5260205f209050919050565b5f6020601f8301049050919050565b5f82821b905092915050565b5f600883026101cd7fffffffffffffffffffffffffffffffffffffffffffffffffffffffffffffffff82610192565b6101d78683610192565b95508019841693508086168417925050509392505050565b5f819050919050565b5f819050919050565b5f61021b610216610211846101ef565b6101f8565b6101ef565b9050919050565b5f819050919050565b61023483610201565b61024861024082610222565b84845461019e565b825550505050565b5f90565b61025c610250565b61026781848461022b565b505050565b5b8181101561028a5761027f5f82610254565b60018101905061026d565b5050565b601f8211156102cf576102a081610171565b6102a984610183565b810160208510156102b8578190505b6102cc6102c485610183565b83018261026c565b50505b505050565b5f82821c905092915050565b5f6102ef5f19846008026102d4565b1980831691505092915050565b5f61030783836102e0565b9150826002028217905092915050565b610320826100dd565b67ffffffffffffffff811115610339576103386100e7565b5b6103438254610141565b61034e82828561028e565b5f60209050601f83116001811461037f575f841561036d578287015190505b61037785826102fc565b8655506103de565b601f19841661038d86610171565b5f5b828110156103b45784890151825560018201915060208501945060208101905061038f565b868310156103d157848901516103cd601f8916826102e0565b8355505b6001600288020188555050505b505050505050565b5f819050815f5260205f209050919050565b601f8211156104395761040a816103e6565b61041384610183565b81016020851015610422578190505b61043661042e85610183565b83018261026c565b50505b505050565b610447826100dd565b67ffffffffffffffff8111156104605761045f6100e7565b5b61046a8254610141565b6104758282856103f8565b5f60209050601f8311600181146104a6575f8415610494578287015190505b61049e85826102fc565b865550610505565b601f1984166104b4866103e6565b5f5b828110156104db578489015182556001820191506020850194506020810190506104b6565b868310156104f857848901516104f4601f8916826102e0565b8355505b6001600288020188555050505b505050505050565b5f604051905090565b5f80fd5b5f80fd5b5f80fd5b5f80fd5b5f601f19601f8301169050919050565b61053f82610526565b810181811067ffffffffffffffff8211171561055e5761055d6100e7565b5b80604052505050565b5f61057061050d565b905061057c8282610536565b919050565b5f67ffffffffffffffff82111561059b5761059a6100e7565b5b6105a482610526565b9050602081019050919050565b8281835e5f83830152505050565b5f6105d16105cc84610581565b610567565b9050828152602081018484840111156105ed576105ec610522565b5b6105f88482856105b1565b509392505050565b5f82601f8301126106145761061361051e565b5b81516106248482602086016105bf565b91505092915050565b610636816101ef565b8114610640575f80fd5b50565b5f815190506106518161062d565b92915050565b5f806040838503121561066d5761066c610516565b5b5f83015167ffffffffffffffff81111561068a5761068961051a565b5b61069685828601610600565b92505060206106a785828601610643565b9150509250929050565b610a16806106be5f395ff3fe608060405234801561000f575f80fd5b5060043610610086575f3560e01c806391085e2d1161005957806391085e2d14610112578063b5bf2fa014610130578063d26d02a91461014e578063d4da005a1461016c57610086565b806307ca24421461008a5780634ee5c2ee146100ba57806356b1dbbe146100d65780638bf1799f146100f4575b5f80fd5b6100a4600480360381019061009f919061043c565b61018a565b6040516100b19190610476565b60405180910390f35b6100d460048036038101906100cf91906105cb565b6101a3565b005b6100de6101bd565b6040516100eb9190610685565b60405180910390f35b6100fc610249565b60405161010991906106f7565b60405180910390f35b61011a6102d4565b6040516101279190610685565b60405180910390f35b610138610360565b6040516101459190610476565b60405180910390f35b610156610366565b60405161016391906106f7565b60405180910390f35b6101746103f2565b6040516101819190610476565b60405180910390f35b60068160058110610199575f80fd5b015f915090505481565b815f90816101b19190610911565b50806001819055505050565b600480546101ca90610744565b80601f01602080910402602001604051908101604052809291908181526020018280546101f690610744565b80156102415780601f1061021857610100808354040283529160200191610241565b820191905f5260205f20905b81548152906001019060200180831161022457829003601f168201915b505050505081565b5f805461025590610744565b80601f016020809104026020016040519081016040528092919081815260200182805461028190610744565b80156102cc5780601f106102a3576101008083540402835291602001916102cc565b820191905f5260205f20905b8154815290600101906020018083116102af57829003601f168201915b505050505081565b600580546102e190610744565b80601f016020809104026020016040519081016040528092919081815260200182805461030d90610744565b80156103585780601f1061032f57610100808354040283529160200191610358565b820191905f5260205f20905b81548152906001019060200180831161033b57829003601f168201915b505050505081565b60035481565b6002805461037390610744565b80601f016020809104026020016040519081016040528092919081815260200182805461039f90610744565b80156103ea5780601f106103c1576101008083540402835291602001916103ea565b820191905f5260205f20905b8154815290600101906020018083116103cd57829003601f168201915b505050505081565b60015481565b5f604051905090565b5f80fd5b5f80fd5b5f819050919050565b61041b81610409565b8114610425575f80fd5b50565b5f8135905061043681610412565b92915050565b5f6020828403121561045157610450610401565b5b5f61045e84828501610428565b91505092915050565b61047081610409565b82525050565b5f6020820190506104895f830184610467565b92915050565b5f80fd5b5f80fd5b5f601f19601f8301169050919050565b7f4e487b71000000000000000000000000000000000000000000000000000000005f52604160045260245ffd5b6104dd82610497565b810181811067ffffffffffffffff821117156104fc576104fb6104a7565b5b80604052505050565b5f61050e6103f8565b905061051a82826104d4565b919050565b5f67ffffffffffffffff821115610539576105386104a7565b5b61054282610497565b9050602081019050919050565b828183375f83830152505050565b5f61056f61056a8461051f565b610505565b90508281526020810184848401111561058b5761058a610493565b5b61059684828561054f565b509392505050565b5f82601f8301126105b2576105b161048f565b5b81356105c284826020860161055d565b91505092915050565b5f80604083850312156105e1576105e0610401565b5b5f83013567ffffffffffffffff8111156105fe576105fd610405565b5b61060a8582860161059e565b925050602061061b85828601610428565b9150509250929050565b5f81519050919050565b5f82825260208201905092915050565b8281835e5f83830152505050565b5f61065782610625565b610661818561062f565b935061067181856020860161063f565b61067a81610497565b840191505092915050565b5f6020820190508181035f83015261069d818461064d565b905092915050565b5f81519050919050565b5f82825260208201905092915050565b5f6106c9826106a5565b6106d381856106af565b93506106e381856020860161063f565b6106ec81610497565b840191505092915050565b5f6020820190508181035f83015261070f81846106bf565b905092915050565b7f4e487b71000000000000000000000000000000000000000000000000000000005f52602260045260245ffd5b5f600282049050600182168061075b57607f821691505b60208210810361076e5761076d610717565b5b50919050565b5f819050815f5260205f209050919050565b5f6020601f8301049050919050565b5f82821b905092915050565b5f600883026107d07fffffffffffffffffffffffffffffffffffffffffffffffffffffffffffffffff82610795565b6107da8683610795565b95508019841693508086168417925050509392505050565b5f819050919050565b5f61081561081061080b84610409565b6107f2565b610409565b9050919050565b5f819050919050565b61082e836107fb565b61084261083a8261081c565b8484546107a1565b825550505050565b5f90565b61085661084a565b610861818484610825565b505050565b5b81811015610884576108795f8261084e565b600181019050610867565b5050565b601f8211156108c95761089a81610774565b6108a384610786565b810160208510156108b2578190505b6108c66108be85610786565b830182610866565b50505b505050565b5f82821c905092915050565b5f6108e95f19846008026108ce565b1980831691505092915050565b5f61090183836108da565b9150826002028217905092915050565b61091a826106a5565b67ffffffffffffffff811115610933576109326104a7565b5b61093d8254610744565b610948828285610888565b5f60209050601f831160018114610979575f8415610967578287015190505b61097185826108f6565b8655506109d8565b601f19841661098786610774565b5f5b828110156109ae57848901518255600182019150602085019450602081019050610989565b868310156109cb57848901516109c7601f8916826108da565b8355505b6001600288020188555050505b50505050505056fea2646970667358221220ed04ba2517199d9d2b1183181dd257696cde49f757a4e4a1e150f25832b7121f64736f6c634300081a0033",
			"opcodes": "PUSH1 0x80 PUSH1 0x40 MSTORE PUSH1 0x40 MLOAD DUP1 PUSH1 0x40 ADD PUSH1 0x40 MSTORE DUP1 PUSH1 0x7 DUP2 MSTORE PUSH1 0x20 ADD PUSH32 0x4F6C756A696D6900000000000000000000000000000000000000000000000000 DUP2 MSTORE POP PUSH1 0x2 SWAP1 DUP2 PUSH2 0x48 SWAP2 SWAP1 PUSH2 0x317 JUMP JUMPDEST POP PUSH1 0x12 PUSH1 0x3 SSTORE PUSH1 0x40 MLOAD DUP1 PUSH1 0x40 ADD PUSH1 0x40 MSTORE DUP1 PUSH1 0xA DUP2 MSTORE PUSH1 0x20 ADD PUSH32 0x6865792077617373757000000000000000000000000000000000000000000000 DUP2 MSTORE POP PUSH1 0x4 SWAP1 DUP2 PUSH2 0x92 SWAP2 SWAP1 PUSH2 0x43E JUMP JUMPDEST POP CALLVALUE DUP1 ISZERO PUSH2 0x9E JUMPI PUSH0 DUP1 REVERT JUMPDEST POP PUSH1 0x40 MLOAD PUSH2 0x10D4 CODESIZE SUB DUP1 PUSH2 0x10D4 DUP4 CODECOPY DUP2 DUP2 ADD PUSH1 0x40 MSTORE DUP2 ADD SWAP1 PUSH2 0xC0 SWAP2 SWAP1 PUSH2 0x657 JUMP JUMPDEST DUP2 PUSH0 SWAP1 DUP2 PUSH2 0xCE SWAP2 SWAP1 PUSH2 0x317 JUMP JUMPDEST POP DUP1 PUSH1 0x1 DUP2 SWAP1 SSTORE POP POP POP PUSH2 0x6B1 JUMP JUMPDEST PUSH0 DUP2 MLOAD SWAP1 POP SWAP2 SWAP1 POP JUMP JUMPDEST PUSH32 0x4E487B7100000000000000000000000000000000000000000000000000000000 PUSH0 MSTORE PUSH1 0x41 PUSH1 0x4 MSTORE PUSH1 0x24 PUSH0 REVERT JUMPDEST PUSH32 0x4E487B7100000000000000000000000000000000000000000000000000000000 PUSH0 MSTORE PUSH1 0x22 PUSH1 0x4 MSTORE PUSH1 0x24 PUSH0 REVERT JUMPDEST PUSH0 PUSH1 0x2 DUP3 DIV SWAP1 POP PUSH1 0x1 DUP3 AND DUP1 PUSH2 0x158 JUMPI PUSH1 0x7F DUP3 AND SWAP2 POP JUMPDEST PUSH1 0x20 DUP3 LT DUP2 SUB PUSH2 0x16B JUMPI PUSH2 0x16A PUSH2 0x114 JUMP JUMPDEST JUMPDEST POP SWAP2 SWAP1 POP JUMP JUMPDEST PUSH0 DUP2 SWAP1 POP DUP2 PUSH0 MSTORE PUSH1 0x20 PUSH0 KECCAK256 SWAP1 POP SWAP2 SWAP1 POP JUMP JUMPDEST PUSH0 PUSH1 0x20 PUSH1 0x1F DUP4 ADD DIV SWAP1 POP SWAP2 SWAP1 POP JUMP JUMPDEST PUSH0 DUP3 DUP3 SHL SWAP1 POP SWAP3 SWAP2 POP POP JUMP JUMPDEST PUSH0 PUSH1 0x8 DUP4 MUL PUSH2 0x1CD PUSH32 0xFFFFFFFFFFFFFFFFFFFFFFFFFFFFFFFFFFFFFFFFFFFFFFFFFFFFFFFFFFFFFFFF DUP3 PUSH2 0x192 JUMP JUMPDEST PUSH2 0x1D7 DUP7 DUP4 PUSH2 0x192 JUMP JUMPDEST SWAP6 POP DUP1 NOT DUP5 AND SWAP4 POP DUP1 DUP7 AND DUP5 OR SWAP3 POP POP POP SWAP4 SWAP3 POP POP POP JUMP JUMPDEST PUSH0 DUP2 SWAP1 POP SWAP2 SWAP1 POP JUMP JUMPDEST PUSH0 DUP2 SWAP1 POP SWAP2 SWAP1 POP JUMP JUMPDEST PUSH0 PUSH2 0x21B PUSH2 0x216 PUSH2 0x211 DUP5 PUSH2 0x1EF JUMP JUMPDEST PUSH2 0x1F8 JUMP JUMPDEST PUSH2 0x1EF JUMP JUMPDEST SWAP1 POP SWAP2 SWAP1 POP JUMP JUMPDEST PUSH0 DUP2 SWAP1 POP SWAP2 SWAP1 POP JUMP JUMPDEST PUSH2 0x234 DUP4 PUSH2 0x201 JUMP JUMPDEST PUSH2 0x248 PUSH2 0x240 DUP3 PUSH2 0x222 JUMP JUMPDEST DUP5 DUP5 SLOAD PUSH2 0x19E JUMP JUMPDEST DUP3 SSTORE POP POP POP POP JUMP JUMPDEST PUSH0 SWAP1 JUMP JUMPDEST PUSH2 0x25C PUSH2 0x250 JUMP JUMPDEST PUSH2 0x267 DUP2 DUP5 DUP5 PUSH2 0x22B JUMP JUMPDEST POP POP POP JUMP JUMPDEST JUMPDEST DUP2 DUP2 LT ISZERO PUSH2 0x28A JUMPI PUSH2 0x27F PUSH0 DUP3 PUSH2 0x254 JUMP JUMPDEST PUSH1 0x1 DUP2 ADD SWAP1 POP PUSH2 0x26D JUMP JUMPDEST POP POP JUMP JUMPDEST PUSH1 0x1F DUP3 GT ISZERO PUSH2 0x2CF JUMPI PUSH2 0x2A0 DUP2 PUSH2 0x171 JUMP JUMPDEST PUSH2 0x2A9 DUP5 PUSH2 0x183 JUMP JUMPDEST DUP2 ADD PUSH1 0x20 DUP6 LT ISZERO PUSH2 0x2B8 JUMPI DUP2 SWAP1 POP JUMPDEST PUSH2 0x2CC PUSH2 0x2C4 DUP6 PUSH2 0x183 JUMP JUMPDEST DUP4 ADD DUP3 PUSH2 0x26C JUMP JUMPDEST POP POP JUMPDEST POP POP POP JUMP JUMPDEST PUSH0 DUP3 DUP3 SHR SWAP1 POP SWAP3 SWAP2 POP POP JUMP JUMPDEST PUSH0 PUSH2 0x2EF PUSH0 NOT DUP5 PUSH1 0x8 MUL PUSH2 0x2D4 JUMP JUMPDEST NOT DUP1 DUP4 AND SWAP2 POP POP SWAP3 SWAP2 POP POP JUMP JUMPDEST PUSH0 PUSH2 0x307 DUP4 DUP4 PUSH2 0x2E0 JUMP JUMPDEST SWAP2 POP DUP3 PUSH1 0x2 MUL DUP3 OR SWAP1 POP SWAP3 SWAP2 POP POP JUMP JUMPDEST PUSH2 0x320 DUP3 PUSH2 0xDD JUMP JUMPDEST PUSH8 0xFFFFFFFFFFFFFFFF DUP2 GT ISZERO PUSH2 0x339 JUMPI PUSH2 0x338 PUSH2 0xE7 JUMP JUMPDEST JUMPDEST PUSH2 0x343 DUP3 SLOAD PUSH2 0x141 JUMP JUMPDEST PUSH2 0x34E DUP3 DUP3 DUP6 PUSH2 0x28E JUMP JUMPDEST PUSH0 PUSH1 0x20 SWAP1 POP PUSH1 0x1F DUP4 GT PUSH1 0x1 DUP2 EQ PUSH2 0x37F JUMPI PUSH0 DUP5 ISZERO PUSH2 0x36D JUMPI DUP3 DUP8 ADD MLOAD SWAP1 POP JUMPDEST PUSH2 0x377 DUP6 DUP3 PUSH2 0x2FC JUMP JUMPDEST DUP7 SSTORE POP PUSH2 0x3DE JUMP JUMPDEST PUSH1 0x1F NOT DUP5 AND PUSH2 0x38D DUP7 PUSH2 0x171 JUMP JUMPDEST PUSH0 JUMPDEST DUP3 DUP2 LT ISZERO PUSH2 0x3B4 JUMPI DUP5 DUP10 ADD MLOAD DUP3 SSTORE PUSH1 0x1 DUP3 ADD SWAP2 POP PUSH1 0x20 DUP6 ADD SWAP5 POP PUSH1 0x20 DUP2 ADD SWAP1 POP PUSH2 0x38F JUMP JUMPDEST DUP7 DUP4 LT ISZERO PUSH2 0x3D1 JUMPI DUP5 DUP10 ADD MLOAD PUSH2 0x3CD PUSH1 0x1F DUP10 AND DUP3 PUSH2 0x2E0 JUMP JUMPDEST DUP4 SSTORE POP JUMPDEST PUSH1 0x1 PUSH1 0x2 DUP9 MUL ADD DUP9 SSTORE POP POP POP JUMPDEST POP POP POP POP POP POP JUMP JUMPDEST PUSH0 DUP2 SWAP1 POP DUP2 PUSH0 MSTORE PUSH1 0x20 PUSH0 KECCAK256 SWAP1 POP SWAP2 SWAP1 POP JUMP JUMPDEST PUSH1 0x1F DUP3 GT ISZERO PUSH2 0x439 JUMPI PUSH2 0x40A DUP2 PUSH2 0x3E6 JUMP JUMPDEST PUSH2 0x413 DUP5 PUSH2 0x183 JUMP JUMPDEST DUP2 ADD PUSH1 0x20 DUP6 LT ISZERO PUSH2 0x422 JUMPI DUP2 SWAP1 POP JUMPDEST PUSH2 0x436 PUSH2 0x42E DUP6 PUSH2 0x183 JUMP JUMPDEST DUP4 ADD DUP3 PUSH2 0x26C JUMP JUMPDEST POP POP JUMPDEST POP POP POP JUMP JUMPDEST PUSH2 0x447 DUP3 PUSH2 0xDD JUMP JUMPDEST PUSH8 0xFFFFFFFFFFFFFFFF DUP2 GT ISZERO PUSH2 0x460 JUMPI PUSH2 0x45F PUSH2 0xE7 JUMP JUMPDEST JUMPDEST PUSH2 0x46A DUP3 SLOAD PUSH2 0x141 JUMP JUMPDEST PUSH2 0x475 DUP3 DUP3 DUP6 PUSH2 0x3F8 JUMP JUMPDEST PUSH0 PUSH1 0x20 SWAP1 POP PUSH1 0x1F DUP4 GT PUSH1 0x1 DUP2 EQ PUSH2 0x4A6 JUMPI PUSH0 DUP5 ISZERO PUSH2 0x494 JUMPI DUP3 DUP8 ADD MLOAD SWAP1 POP JUMPDEST PUSH2 0x49E DUP6 DUP3 PUSH2 0x2FC JUMP JUMPDEST DUP7 SSTORE POP PUSH2 0x505 JUMP JUMPDEST PUSH1 0x1F NOT DUP5 AND PUSH2 0x4B4 DUP7 PUSH2 0x3E6 JUMP JUMPDEST PUSH0 JUMPDEST DUP3 DUP2 LT ISZERO PUSH2 0x4DB JUMPI DUP5 DUP10 ADD MLOAD DUP3 SSTORE PUSH1 0x1 DUP3 ADD SWAP2 POP PUSH1 0x20 DUP6 ADD SWAP5 POP PUSH1 0x20 DUP2 ADD SWAP1 POP PUSH2 0x4B6 JUMP JUMPDEST DUP7 DUP4 LT ISZERO PUSH2 0x4F8 JUMPI DUP5 DUP10 ADD MLOAD PUSH2 0x4F4 PUSH1 0x1F DUP10 AND DUP3 PUSH2 0x2E0 JUMP JUMPDEST DUP4 SSTORE POP JUMPDEST PUSH1 0x1 PUSH1 0x2 DUP9 MUL ADD DUP9 SSTORE POP POP POP JUMPDEST POP POP POP POP POP POP JUMP JUMPDEST PUSH0 PUSH1 0x40 MLOAD SWAP1 POP SWAP1 JUMP JUMPDEST PUSH0 DUP1 REVERT JUMPDEST PUSH0 DUP1 REVERT JUMPDEST PUSH0 DUP1 REVERT JUMPDEST PUSH0 DUP1 REVERT JUMPDEST PUSH0 PUSH1 0x1F NOT PUSH1 0x1F DUP4 ADD AND SWAP1 POP SWAP2 SWAP1 POP JUMP JUMPDEST PUSH2 0x53F DUP3 PUSH2 0x526 JUMP JUMPDEST DUP2 ADD DUP2 DUP2 LT PUSH8 0xFFFFFFFFFFFFFFFF DUP3 GT OR ISZERO PUSH2 0x55E JUMPI PUSH2 0x55D PUSH2 0xE7 JUMP JUMPDEST JUMPDEST DUP1 PUSH1 0x40 MSTORE POP POP POP JUMP JUMPDEST PUSH0 PUSH2 0x570 PUSH2 0x50D JUMP JUMPDEST SWAP1 POP PUSH2 0x57C DUP3 DUP3 PUSH2 0x536 JUMP JUMPDEST SWAP2 SWAP1 POP JUMP JUMPDEST PUSH0 PUSH8 0xFFFFFFFFFFFFFFFF DUP3 GT ISZERO PUSH2 0x59B JUMPI PUSH2 0x59A PUSH2 0xE7 JUMP JUMPDEST JUMPDEST PUSH2 0x5A4 DUP3 PUSH2 0x526 JUMP JUMPDEST SWAP1 POP PUSH1 0x20 DUP2 ADD SWAP1 POP SWAP2 SWAP1 POP JUMP JUMPDEST DUP3 DUP2 DUP4 MCOPY PUSH0 DUP4 DUP4 ADD MSTORE POP POP POP JUMP JUMPDEST PUSH0 PUSH2 0x5D1 PUSH2 0x5CC DUP5 PUSH2 0x581 JUMP JUMPDEST PUSH2 0x567 JUMP JUMPDEST SWAP1 POP DUP3 DUP2 MSTORE PUSH1 0x20 DUP2 ADD DUP5 DUP5 DUP5 ADD GT ISZERO PUSH2 0x5ED JUMPI PUSH2 0x5EC PUSH2 0x522 JUMP JUMPDEST JUMPDEST PUSH2 0x5F8 DUP5 DUP3 DUP6 PUSH2 0x5B1 JUMP JUMPDEST POP SWAP4 SWAP3 POP POP POP JUMP JUMPDEST PUSH0 DUP3 PUSH1 0x1F DUP4 ADD SLT PUSH2 0x614 JUMPI PUSH2 0x613 PUSH2 0x51E JUMP JUMPDEST JUMPDEST DUP2 MLOAD PUSH2 0x624 DUP5 DUP3 PUSH1 0x20 DUP7 ADD PUSH2 0x5BF JUMP JUMPDEST SWAP2 POP POP SWAP3 SWAP2 POP POP JUMP JUMPDEST PUSH2 0x636 DUP2 PUSH2 0x1EF JUMP JUMPDEST DUP2 EQ PUSH2 0x640 JUMPI PUSH0 DUP1 REVERT JUMPDEST POP JUMP JUMPDEST PUSH0 DUP2 MLOAD SWAP1 POP PUSH2 0x651 DUP2 PUSH2 0x62D JUMP JUMPDEST SWAP3 SWAP2 POP POP JUMP JUMPDEST PUSH0 DUP1 PUSH1 0x40 DUP4 DUP6 SUB SLT ISZERO PUSH2 0x66D JUMPI PUSH2 0x66C PUSH2 0x516 JUMP JUMPDEST JUMPDEST PUSH0 DUP4 ADD MLOAD PUSH8 0xFFFFFFFFFFFFFFFF DUP2 GT ISZERO PUSH2 0x68A JUMPI PUSH2 0x689 PUSH2 0x51A JUMP JUMPDEST JUMPDEST PUSH2 0x696 DUP6 DUP3 DUP7 ADD PUSH2 0x600 JUMP JUMPDEST SWAP3 POP POP PUSH1 0x20 PUSH2 0x6A7 DUP6 DUP3 DUP7 ADD PUSH2 0x643 JUMP JUMPDEST SWAP2 POP POP SWAP3 POP SWAP3 SWAP1 POP JUMP JUMPDEST PUSH2 0xA16 DUP1 PUSH2 0x6BE PUSH0 CODECOPY PUSH0 RETURN INVALID PUSH1 0x80 PUSH1 0x40 MSTORE CALLVALUE DUP1 ISZERO PUSH2 0xF JUMPI PUSH0 DUP1 REVERT JUMPDEST POP PUSH1 0x4 CALLDATASIZE LT PUSH2 0x86 JUMPI PUSH0 CALLDATALOAD PUSH1 0xE0 SHR DUP1 PUSH4 0x91085E2D GT PUSH2 0x59 JUMPI DUP1 PUSH4 0x91085E2D EQ PUSH2 0x112 JUMPI DUP1 PUSH4 0xB5BF2FA0 EQ PUSH2 0x130 JUMPI DUP1 PUSH4 0xD26D02A9 EQ PUSH2 0x14E JUMPI DUP1 PUSH4 0xD4DA005A EQ PUSH2 0x16C JUMPI PUSH2 0x86 JUMP JUMPDEST DUP1 PUSH4 0x7CA2442 EQ PUSH2 0x8A JUMPI DUP1 PUSH4 0x4EE5C2EE EQ PUSH2 0xBA JUMPI DUP1 PUSH4 0x56B1DBBE EQ PUSH2 0xD6 JUMPI DUP1 PUSH4 0x8BF1799F EQ PUSH2 0xF4 JUMPI JUMPDEST PUSH0 DUP1 REVERT JUMPDEST PUSH2 0xA4 PUSH1 0x4 DUP1 CALLDATASIZE SUB DUP2 ADD SWAP1 PUSH2 0x9F SWAP2 SWAP1 PUSH2 0x43C JUMP JUMPDEST PUSH2 0x18A JUMP JUMPDEST PUSH1 0x40 MLOAD PUSH2 0xB1 SWAP2 SWAP1 PUSH2 0x476 JUMP JUMPDEST PUSH1 0x40 MLOAD DUP1 SWAP2 SUB SWAP1 RETURN JUMPDEST PUSH2 0xD4 PUSH1 0x4 DUP1 CALLDATASIZE SUB DUP2 ADD SWAP1 PUSH2 0xCF SWAP2 SWAP1 PUSH2 0x5CB JUMP JUMPDEST PUSH2 0x1A3 JUMP JUMPDEST STOP JUMPDEST PUSH2 0xDE PUSH2 0x1BD JUMP JUMPDEST PUSH1 0x40 MLOAD PUSH2 0xEB SWAP2 SWAP1 PUSH2 0x685 JUMP JUMPDEST PUSH1 0x40 MLOAD DUP1 SWAP2 SUB SWAP1 RETURN JUMPDEST PUSH2 0xFC PUSH2 0x249 JUMP JUMPDEST PUSH1 0x40 MLOAD PUSH2 0x109 SWAP2 SWAP1 PUSH2 0x6F7 JUMP JUMPDEST PUSH1 0x40 MLOAD DUP1 SWAP2 SUB SWAP1 RETURN JUMPDEST PUSH2 0x11A PUSH2 0x2D4 JUMP JUMPDEST PUSH1 0x40 MLOAD PUSH2 0x127 SWAP2 SWAP1 PUSH2 0x685 JUMP JUMPDEST PUSH1 0x40 MLOAD DUP1 SWAP2 SUB SWAP1 RETURN JUMPDEST PUSH2 0x138 PUSH2 0x360 JUMP JUMPDEST PUSH1 0x40 MLOAD PUSH2 0x145 SWAP2 SWAP1 PUSH2 0x476 JUMP JUMPDEST PUSH1 0x40 MLOAD DUP1 SWAP2 SUB SWAP1 RETURN JUMPDEST PUSH2 0x156 PUSH2 0x366 JUMP JUMPDEST PUSH1 0x40 MLOAD PUSH2 0x163 SWAP2 SWAP1 PUSH2 0x6F7 JUMP JUMPDEST PUSH1 0x40 MLOAD DUP1 SWAP2 SUB SWAP1 RETURN JUMPDEST PUSH2 0x174 PUSH2 0x3F2 JUMP JUMPDEST PUSH1 0x40 MLOAD PUSH2 0x181 SWAP2 SWAP1 PUSH2 0x476 JUMP JUMPDEST PUSH1 0x40 MLOAD DUP1 SWAP2 SUB SWAP1 RETURN JUMPDEST PUSH1 0x6 DUP2 PUSH1 0x5 DUP2 LT PUSH2 0x199 JUMPI PUSH0 DUP1 REVERT JUMPDEST ADD PUSH0 SWAP2 POP SWAP1 POP SLOAD DUP2 JUMP JUMPDEST DUP2 PUSH0 SWAP1 DUP2 PUSH2 0x1B1 SWAP2 SWAP1 PUSH2 0x911 JUMP JUMPDEST POP DUP1 PUSH1 0x1 DUP2 SWAP1 SSTORE POP POP POP JUMP JUMPDEST PUSH1 0x4 DUP1 SLOAD PUSH2 0x1CA SWAP1 PUSH2 0x744 JUMP JUMPDEST DUP1 PUSH1 0x1F ADD PUSH1 0x20 DUP1 SWAP2 DIV MUL PUSH1 0x20 ADD PUSH1 0x40 MLOAD SWAP1 DUP2 ADD PUSH1 0x40 MSTORE DUP1 SWAP3 SWAP2 SWAP1 DUP2 DUP2 MSTORE PUSH1 0x20 ADD DUP3 DUP1 SLOAD PUSH2 0x1F6 SWAP1 PUSH2 0x744 JUMP JUMPDEST DUP1 ISZERO PUSH2 0x241 JUMPI DUP1 PUSH1 0x1F LT PUSH2 0x218 JUMPI PUSH2 0x100 DUP1 DUP4 SLOAD DIV MUL DUP4 MSTORE SWAP2 PUSH1 0x20 ADD SWAP2 PUSH2 0x241 JUMP JUMPDEST DUP3 ADD SWAP2 SWAP1 PUSH0 MSTORE PUSH1 0x20 PUSH0 KECCAK256 SWAP1 JUMPDEST DUP2 SLOAD DUP2 MSTORE SWAP1 PUSH1 0x1 ADD SWAP1 PUSH1 0x20 ADD DUP1 DUP4 GT PUSH2 0x224 JUMPI DUP3 SWAP1 SUB PUSH1 0x1F AND DUP3 ADD SWAP2 JUMPDEST POP POP POP POP POP DUP2 JUMP JUMPDEST PUSH0 DUP1 SLOAD PUSH2 0x255 SWAP1 PUSH2 0x744 JUMP JUMPDEST DUP1 PUSH1 0x1F ADD PUSH1 0x20 DUP1 SWAP2 DIV MUL PUSH1 0x20 ADD PUSH1 0x40 MLOAD SWAP1 DUP2 ADD PUSH1 0x40 MSTORE DUP1 SWAP3 SWAP2 SWAP1 DUP2 DUP2 MSTORE PUSH1 0x20 ADD DUP3 DUP1 SLOAD PUSH2 0x281 SWAP1 PUSH2 0x744 JUMP JUMPDEST DUP1 ISZERO PUSH2 0x2CC JUMPI DUP1 PUSH1 0x1F LT PUSH2 0x2A3 JUMPI PUSH2 0x100 DUP1 DUP4 SLOAD DIV MUL DUP4 MSTORE SWAP2 PUSH1 0x20 ADD SWAP2 PUSH2 0x2CC JUMP JUMPDEST DUP3 ADD SWAP2 SWAP1 PUSH0 MSTORE PUSH1 0x20 PUSH0 KECCAK256 SWAP1 JUMPDEST DUP2 SLOAD DUP2 MSTORE SWAP1 PUSH1 0x1 ADD SWAP1 PUSH1 0x20 ADD DUP1 DUP4 GT PUSH2 0x2AF JUMPI DUP3 SWAP1 SUB PUSH1 0x1F AND DUP3 ADD SWAP2 JUMPDEST POP POP POP POP POP DUP2 JUMP JUMPDEST PUSH1 0x5 DUP1 SLOAD PUSH2 0x2E1 SWAP1 PUSH2 0x744 JUMP JUMPDEST DUP1 PUSH1 0x1F ADD PUSH1 0x20 DUP1 SWAP2 DIV MUL PUSH1 0x20 ADD PUSH1 0x40 MLOAD SWAP1 DUP2 ADD PUSH1 0x40 MSTORE DUP1 SWAP3 SWAP2 SWAP1 DUP2 DUP2 MSTORE PUSH1 0x20 ADD DUP3 DUP1 SLOAD PUSH2 0x30D SWAP1 PUSH2 0x744 JUMP JUMPDEST DUP1 ISZERO PUSH2 0x358 JUMPI DUP1 PUSH1 0x1F LT PUSH2 0x32F JUMPI PUSH2 0x100 DUP1 DUP4 SLOAD DIV MUL DUP4 MSTORE SWAP2 PUSH1 0x20 ADD SWAP2 PUSH2 0x358 JUMP JUMPDEST DUP3 ADD SWAP2 SWAP1 PUSH0 MSTORE PUSH1 0x20 PUSH0 KECCAK256 SWAP1 JUMPDEST DUP2 SLOAD DUP2 MSTORE SWAP1 PUSH1 0x1 ADD SWAP1 PUSH1 0x20 ADD DUP1 DUP4 GT PUSH2 0x33B JUMPI DUP3 SWAP1 SUB PUSH1 0x1F AND DUP3 ADD SWAP2 JUMPDEST POP POP POP POP POP DUP2 JUMP JUMPDEST PUSH1 0x3 SLOAD DUP2 JUMP JUMPDEST PUSH1 0x2 DUP1 SLOAD PUSH2 0x373 SWAP1 PUSH2 0x744 JUMP JUMPDEST DUP1 PUSH1 0x1F ADD PUSH1 0x20 DUP1 SWAP2 DIV MUL PUSH1 0x20 ADD PUSH1 0x40 MLOAD SWAP1 DUP2 ADD PUSH1 0x40 MSTORE DUP1 SWAP3 SWAP2 SWAP1 DUP2 DUP2 MSTORE PUSH1 0x20 ADD DUP3 DUP1 SLOAD PUSH2 0x39F SWAP1 PUSH2 0x744 JUMP JUMPDEST DUP1 ISZERO PUSH2 0x3EA JUMPI DUP1 PUSH1 0x1F LT PUSH2 0x3C1 JUMPI PUSH2 0x100 DUP1 DUP4 SLOAD DIV MUL DUP4 MSTORE SWAP2 PUSH1 0x20 ADD SWAP2 PUSH2 0x3EA JUMP JUMPDEST DUP3 ADD SWAP2 SWAP1 PUSH0 MSTORE PUSH1 0x20 PUSH0 KECCAK256 SWAP1 JUMPDEST DUP2 SLOAD DUP2 MSTORE SWAP1 PUSH1 0x1 ADD SWAP1 PUSH1 0x20 ADD DUP1 DUP4 GT PUSH2 0x3CD JUMPI DUP3 SWAP1 SUB PUSH1 0x1F AND DUP3 ADD SWAP2 JUMPDEST POP POP POP POP POP DUP2 JUMP JUMPDEST PUSH1 0x1 SLOAD DUP2 JUMP JUMPDEST PUSH0 PUSH1 0x40 MLOAD SWAP1 POP SWAP1 JUMP JUMPDEST PUSH0 DUP1 REVERT JUMPDEST PUSH0 DUP1 REVERT JUMPDEST PUSH0 DUP2 SWAP1 POP SWAP2 SWAP1 POP JUMP JUMPDEST PUSH2 0x41B DUP2 PUSH2 0x409 JUMP JUMPDEST DUP2 EQ PUSH2 0x425 JUMPI PUSH0 DUP1 REVERT JUMPDEST POP JUMP JUMPDEST PUSH0 DUP2 CALLDATALOAD SWAP1 POP PUSH2 0x436 DUP2 PUSH2 0x412 JUMP JUMPDEST SWAP3 SWAP2 POP POP JUMP JUMPDEST PUSH0 PUSH1 0x20 DUP3 DUP5 SUB SLT ISZERO PUSH2 0x451 JUMPI PUSH2 0x450 PUSH2 0x401 JUMP JUMPDEST JUMPDEST PUSH0 PUSH2 0x45E DUP5 DUP3 DUP6 ADD PUSH2 0x428 JUMP JUMPDEST SWAP2 POP POP SWAP3 SWAP2 POP POP JUMP JUMPDEST PUSH2 0x470 DUP2 PUSH2 0x409 JUMP JUMPDEST DUP3 MSTORE POP POP JUMP JUMPDEST PUSH0 PUSH1 0x20 DUP3 ADD SWAP1 POP PUSH2 0x489 PUSH0 DUP4 ADD DUP5 PUSH2 0x467 JUMP JUMPDEST SWAP3 SWAP2 POP POP JUMP JUMPDEST PUSH0 DUP1 REVERT JUMPDEST PUSH0 DUP1 REVERT JUMPDEST PUSH0 PUSH1 0x1F NOT PUSH1 0x1F DUP4 ADD AND SWAP1 POP SWAP2 SWAP1 POP JUMP JUMPDEST PUSH32 0x4E487B7100000000000000000000000000000000000000000000000000000000 PUSH0 MSTORE PUSH1 0x41 PUSH1 0x4 MSTORE PUSH1 0x24 PUSH0 REVERT JUMPDEST PUSH2 0x4DD DUP3 PUSH2 0x497 JUMP JUMPDEST DUP2 ADD DUP2 DUP2 LT PUSH8 0xFFFFFFFFFFFFFFFF DUP3 GT OR ISZERO PUSH2 0x4FC JUMPI PUSH2 0x4FB PUSH2 0x4A7 JUMP JUMPDEST JUMPDEST DUP1 PUSH1 0x40 MSTORE POP POP POP JUMP JUMPDEST PUSH0 PUSH2 0x50E PUSH2 0x3F8 JUMP JUMPDEST SWAP1 POP PUSH2 0x51A DUP3 DUP3 PUSH2 0x4D4 JUMP JUMPDEST SWAP2 SWAP1 POP JUMP JUMPDEST PUSH0 PUSH8 0xFFFFFFFFFFFFFFFF DUP3 GT ISZERO PUSH2 0x539 JUMPI PUSH2 0x538 PUSH2 0x4A7 JUMP JUMPDEST JUMPDEST PUSH2 0x542 DUP3 PUSH2 0x497 JUMP JUMPDEST SWAP1 POP PUSH1 0x20 DUP2 ADD SWAP1 POP SWAP2 SWAP1 POP JUMP JUMPDEST DUP3 DUP2 DUP4 CALLDATACOPY PUSH0 DUP4 DUP4 ADD MSTORE POP POP POP JUMP JUMPDEST PUSH0 PUSH2 0x56F PUSH2 0x56A DUP5 PUSH2 0x51F JUMP JUMPDEST PUSH2 0x505 JUMP JUMPDEST SWAP1 POP DUP3 DUP2 MSTORE PUSH1 0x20 DUP2 ADD DUP5 DUP5 DUP5 ADD GT ISZERO PUSH2 0x58B JUMPI PUSH2 0x58A PUSH2 0x493 JUMP JUMPDEST JUMPDEST PUSH2 0x596 DUP5 DUP3 DUP6 PUSH2 0x54F JUMP JUMPDEST POP SWAP4 SWAP3 POP POP POP JUMP JUMPDEST PUSH0 DUP3 PUSH1 0x1F DUP4 ADD SLT PUSH2 0x5B2 JUMPI PUSH2 0x5B1 PUSH2 0x48F JUMP JUMPDEST JUMPDEST DUP2 CALLDATALOAD PUSH2 0x5C2 DUP5 DUP3 PUSH1 0x20 DUP7 ADD PUSH2 0x55D JUMP JUMPDEST SWAP2 POP POP SWAP3 SWAP2 POP POP JUMP JUMPDEST PUSH0 DUP1 PUSH1 0x40 DUP4 DUP6 SUB SLT ISZERO PUSH2 0x5E1 JUMPI PUSH2 0x5E0 PUSH2 0x401 JUMP JUMPDEST JUMPDEST PUSH0 DUP4 ADD CALLDATALOAD PUSH8 0xFFFFFFFFFFFFFFFF DUP2 GT ISZERO PUSH2 0x5FE JUMPI PUSH2 0x5FD PUSH2 0x405 JUMP JUMPDEST JUMPDEST PUSH2 0x60A DUP6 DUP3 DUP7 ADD PUSH2 0x59E JUMP JUMPDEST SWAP3 POP POP PUSH1 0x20 PUSH2 0x61B DUP6 DUP3 DUP7 ADD PUSH2 0x428 JUMP JUMPDEST SWAP2 POP POP SWAP3 POP SWAP3 SWAP1 POP JUMP JUMPDEST PUSH0 DUP2 MLOAD SWAP1 POP SWAP2 SWAP1 POP JUMP JUMPDEST PUSH0 DUP3 DUP3 MSTORE PUSH1 0x20 DUP3 ADD SWAP1 POP SWAP3 SWAP2 POP POP JUMP JUMPDEST DUP3 DUP2 DUP4 MCOPY PUSH0 DUP4 DUP4 ADD MSTORE POP POP POP JUMP JUMPDEST PUSH0 PUSH2 0x657 DUP3 PUSH2 0x625 JUMP JUMPDEST PUSH2 0x661 DUP2 DUP6 PUSH2 0x62F JUMP JUMPDEST SWAP4 POP PUSH2 0x671 DUP2 DUP6 PUSH1 0x20 DUP7 ADD PUSH2 0x63F JUMP JUMPDEST PUSH2 0x67A DUP2 PUSH2 0x497 JUMP JUMPDEST DUP5 ADD SWAP2 POP POP SWAP3 SWAP2 POP POP JUMP JUMPDEST PUSH0 PUSH1 0x20 DUP3 ADD SWAP1 POP DUP2 DUP2 SUB PUSH0 DUP4 ADD MSTORE PUSH2 0x69D DUP2 DUP5 PUSH2 0x64D JUMP JUMPDEST SWAP1 POP SWAP3 SWAP2 POP POP JUMP JUMPDEST PUSH0 DUP2 MLOAD SWAP1 POP SWAP2 SWAP1 POP JUMP JUMPDEST PUSH0 DUP3 DUP3 MSTORE PUSH1 0x20 DUP3 ADD SWAP1 POP SWAP3 SWAP2 POP POP JUMP JUMPDEST PUSH0 PUSH2 0x6C9 DUP3 PUSH2 0x6A5 JUMP JUMPDEST PUSH2 0x6D3 DUP2 DUP6 PUSH2 0x6AF JUMP JUMPDEST SWAP4 POP PUSH2 0x6E3 DUP2 DUP6 PUSH1 0x20 DUP7 ADD PUSH2 0x63F JUMP JUMPDEST PUSH2 0x6EC DUP2 PUSH2 0x497 JUMP JUMPDEST DUP5 ADD SWAP2 POP POP SWAP3 SWAP2 POP POP JUMP JUMPDEST PUSH0 PUSH1 0x20 DUP3 ADD SWAP1 POP DUP2 DUP2 SUB PUSH0 DUP4 ADD MSTORE PUSH2 0x70F DUP2 DUP5 PUSH2 0x6BF JUMP JUMPDEST SWAP1 POP SWAP3 SWAP2 POP POP JUMP JUMPDEST PUSH32 0x4E487B7100000000000000000000000000000000000000000000000000000000 PUSH0 MSTORE PUSH1 0x22 PUSH1 0x4 MSTORE PUSH1 0x24 PUSH0 REVERT JUMPDEST PUSH0 PUSH1 0x2 DUP3 DIV SWAP1 POP PUSH1 0x1 DUP3 AND DUP1 PUSH2 0x75B JUMPI PUSH1 0x7F DUP3 AND SWAP2 POP JUMPDEST PUSH1 0x20 DUP3 LT DUP2 SUB PUSH2 0x76E JUMPI PUSH2 0x76D PUSH2 0x717 JUMP JUMPDEST JUMPDEST POP SWAP2 SWAP1 POP JUMP JUMPDEST PUSH0 DUP2 SWAP1 POP DUP2 PUSH0 MSTORE PUSH1 0x20 PUSH0 KECCAK256 SWAP1 POP SWAP2 SWAP1 POP JUMP JUMPDEST PUSH0 PUSH1 0x20 PUSH1 0x1F DUP4 ADD DIV SWAP1 POP SWAP2 SWAP1 POP JUMP JUMPDEST PUSH0 DUP3 DUP3 SHL SWAP1 POP SWAP3 SWAP2 POP POP JUMP JUMPDEST PUSH0 PUSH1 0x8 DUP4 MUL PUSH2 0x7D0 PUSH32 0xFFFFFFFFFFFFFFFFFFFFFFFFFFFFFFFFFFFFFFFFFFFFFFFFFFFFFFFFFFFFFFFF DUP3 PUSH2 0x795 JUMP JUMPDEST PUSH2 0x7DA DUP7 DUP4 PUSH2 0x795 JUMP JUMPDEST SWAP6 POP DUP1 NOT DUP5 AND SWAP4 POP DUP1 DUP7 AND DUP5 OR SWAP3 POP POP POP SWAP4 SWAP3 POP POP POP JUMP JUMPDEST PUSH0 DUP2 SWAP1 POP SWAP2 SWAP1 POP JUMP JUMPDEST PUSH0 PUSH2 0x815 PUSH2 0x810 PUSH2 0x80B DUP5 PUSH2 0x409 JUMP JUMPDEST PUSH2 0x7F2 JUMP JUMPDEST PUSH2 0x409 JUMP JUMPDEST SWAP1 POP SWAP2 SWAP1 POP JUMP JUMPDEST PUSH0 DUP2 SWAP1 POP SWAP2 SWAP1 POP JUMP JUMPDEST PUSH2 0x82E DUP4 PUSH2 0x7FB JUMP JUMPDEST PUSH2 0x842 PUSH2 0x83A DUP3 PUSH2 0x81C JUMP JUMPDEST DUP5 DUP5 SLOAD PUSH2 0x7A1 JUMP JUMPDEST DUP3 SSTORE POP POP POP POP JUMP JUMPDEST PUSH0 SWAP1 JUMP JUMPDEST PUSH2 0x856 PUSH2 0x84A JUMP JUMPDEST PUSH2 0x861 DUP2 DUP5 DUP5 PUSH2 0x825 JUMP JUMPDEST POP POP POP JUMP JUMPDEST JUMPDEST DUP2 DUP2 LT ISZERO PUSH2 0x884 JUMPI PUSH2 0x879 PUSH0 DUP3 PUSH2 0x84E JUMP JUMPDEST PUSH1 0x1 DUP2 ADD SWAP1 POP PUSH2 0x867 JUMP JUMPDEST POP POP JUMP JUMPDEST PUSH1 0x1F DUP3 GT ISZERO PUSH2 0x8C9 JUMPI PUSH2 0x89A DUP2 PUSH2 0x774 JUMP JUMPDEST PUSH2 0x8A3 DUP5 PUSH2 0x786 JUMP JUMPDEST DUP2 ADD PUSH1 0x20 DUP6 LT ISZERO PUSH2 0x8B2 JUMPI DUP2 SWAP1 POP JUMPDEST PUSH2 0x8C6 PUSH2 0x8BE DUP6 PUSH2 0x786 JUMP JUMPDEST DUP4 ADD DUP3 PUSH2 0x866 JUMP JUMPDEST POP POP JUMPDEST POP POP POP JUMP JUMPDEST PUSH0 DUP3 DUP3 SHR SWAP1 POP SWAP3 SWAP2 POP POP JUMP JUMPDEST PUSH0 PUSH2 0x8E9 PUSH0 NOT DUP5 PUSH1 0x8 MUL PUSH2 0x8CE JUMP JUMPDEST NOT DUP1 DUP4 AND SWAP2 POP POP SWAP3 SWAP2 POP POP JUMP JUMPDEST PUSH0 PUSH2 0x901 DUP4 DUP4 PUSH2 0x8DA JUMP JUMPDEST SWAP2 POP DUP3 PUSH1 0x2 MUL DUP3 OR SWAP1 POP SWAP3 SWAP2 POP POP JUMP JUMPDEST PUSH2 0x91A DUP3 PUSH2 0x6A5 JUMP JUMPDEST PUSH8 0xFFFFFFFFFFFFFFFF DUP2 GT ISZERO PUSH2 0x933 JUMPI PUSH2 0x932 PUSH2 0x4A7 JUMP JUMPDEST JUMPDEST PUSH2 0x93D DUP3 SLOAD PUSH2 0x744 JUMP JUMPDEST PUSH2 0x948 DUP3 DUP3 DUP6 PUSH2 0x888 JUMP JUMPDEST PUSH0 PUSH1 0x20 SWAP1 POP PUSH1 0x1F DUP4 GT PUSH1 0x1 DUP2 EQ PUSH2 0x979 JUMPI PUSH0 DUP5 ISZERO PUSH2 0x967 JUMPI DUP3 DUP8 ADD MLOAD SWAP1 POP JUMPDEST PUSH2 0x971 DUP6 DUP3 PUSH2 0x8F6 JUMP JUMPDEST DUP7 SSTORE POP PUSH2 0x9D8 JUMP JUMPDEST PUSH1 0x1F NOT DUP5 AND PUSH2 0x987 DUP7 PUSH2 0x774 JUMP JUMPDEST PUSH0 JUMPDEST DUP3 DUP2 LT ISZERO PUSH2 0x9AE JUMPI DUP5 DUP10 ADD MLOAD DUP3 SSTORE PUSH1 0x1 DUP3 ADD SWAP2 POP PUSH1 0x20 DUP6 ADD SWAP5 POP PUSH1 0x20 DUP2 ADD SWAP1 POP PUSH2 0x989 JUMP JUMPDEST DUP7 DUP4 LT ISZERO PUSH2 0x9CB JUMPI DUP5 DUP10 ADD MLOAD PUSH2 0x9C7 PUSH1 0x1F DUP10 AND DUP3 PUSH2 0x8DA JUMP JUMPDEST DUP4 SSTORE POP JUMPDEST PUSH1 0x1 PUSH1 0x2 DUP9 MUL ADD DUP9 SSTORE POP POP POP JUMPDEST POP POP POP POP POP POP JUMP INVALID LOG2 PUSH5 0x6970667358 0x22 SLT KECCAK256 0xED DIV 0xBA 0x25 OR NOT SWAP14 SWAP14 0x2B GT DUP4 XOR SAR 0xD2 JUMPI PUSH10 0x6CDE49F757A4E4A1E150 CALLCODE PC ORIGIN 0xB7 SLT 0x1F PUSH5 0x736F6C6343 STOP ADDMOD BYTE STOP CALLER "
		},
		"gasEstimates": {
			"creation": {
				"codeDepositCost": "516400",
				"executionCost": "infinite",
				"totalCost": "infinite"
			},
			"external": {
				"defaultAge()": "2447",
				"defaultByte()": "infinite",
				"defaultByteNo()": "infinite",
				"defaultName()": "infinite",
				"myNum()": "2491",
				"myNumber(uint256)": "infinite",
				"myState()": "infinite",
				"update(string,uint256)": "infinite"
			}
		},
		"methodIdentifiers": {
			"defaultAge()": "b5bf2fa0",
			"defaultByte()": "56b1dbbe",
			"defaultByteNo()": "91085e2d",
			"defaultName()": "d26d02a9",
			"myNum()": "d4da005a",
			"myNumber(uint256)": "07ca2442",
			"myState()": "8bf1799f",
			"update(string,uint256)": "4ee5c2ee"
		}
	},
	"abi": [
		{
			"inputs": [
				{
					"internalType": "string",
					"name": "_name",
					"type": "string"
				},
				{
					"internalType": "uint256",
					"name": "_no",
					"type": "uint256"
				}
			],
			"stateMutability": "nonpayable",
			"type": "constructor"
		},
		{
			"inputs": [],
			"name": "defaultAge",
			"outputs": [
				{
					"internalType": "uint256",
					"name": "",
					"type": "uint256"
				}
			],
			"stateMutability": "view",
			"type": "function"
		},
		{
			"inputs": [],
			"name": "defaultByte",
			"outputs": [
				{
					"internalType": "bytes",
					"name": "",
					"type": "bytes"
				}
			],
			"stateMutability": "view",
			"type": "function"
		},
		{
			"inputs": [],
			"name": "defaultByteNo",
			"outputs": [
				{
					"internalType": "bytes",
					"name": "",
					"type": "bytes"
				}
			],
			"stateMutability": "view",
			"type": "function"
		},
		{
			"inputs": [],
			"name": "defaultName",
			"outputs": [
				{
					"internalType": "string",
					"name": "",
					"type": "string"
				}
			],
			"stateMutability": "view",
			"type": "function"
		},
		{
			"inputs": [],
			"name": "myNum",
			"outputs": [
				{
					"internalType": "uint256",
					"name": "",
					"type": "uint256"
				}
			],
			"stateMutability": "view",
			"type": "function"
		},
		{
			"inputs": [
				{
					"internalType": "uint256",
					"name": "",
					"type": "uint256"
				}
			],
			"name": "myNumber",
			"outputs": [
				{
					"internalType": "uint256",
					"name": "",
					"type": "uint256"
				}
			],
			"stateMutability": "view",
			"type": "function"
		},
		{
			"inputs": [],
			"name": "myState",
			"outputs": [
				{
					"internalType": "string",
					"name": "",
					"type": "string"
				}
			],
			"stateMutability": "view",
			"type": "function"
		},
		{
			"inputs": [
				{
					"internalType": "string",
					"name": "_name",
					"type": "string"
				},
				{
					"internalType": "uint256",
					"name": "_no",
					"type": "uint256"
				}
			],
			"name": "update",
			"outputs": [],
			"stateMutability": "nonpayable",
			"type": "function"
		}
	]
}